{
  "contractName": "AppToken",
  "abi": [
    {
      "constant": false,
      "inputs": [
        {
          "name": "_spender",
          "type": "address"
        },
        {
          "name": "_value",
          "type": "uint256"
        }
      ],
      "name": "approve",
      "outputs": [
        {
          "name": "",
          "type": "bool"
        }
      ],
      "payable": false,
      "stateMutability": "nonpayable",
      "type": "function"
    },
    {
      "constant": true,
      "inputs": [],
      "name": "totalSupply",
      "outputs": [
        {
          "name": "",
          "type": "uint256"
        }
      ],
      "payable": false,
      "stateMutability": "view",
      "type": "function"
    },
    {
      "constant": false,
      "inputs": [
        {
          "name": "_from",
          "type": "address"
        },
        {
          "name": "_to",
          "type": "address"
        },
        {
          "name": "_value",
          "type": "uint256"
        }
      ],
      "name": "transferFrom",
      "outputs": [
        {
          "name": "",
          "type": "bool"
        }
      ],
      "payable": false,
      "stateMutability": "nonpayable",
      "type": "function"
    },
    {
      "constant": false,
      "inputs": [],
      "name": "unpause",
      "outputs": [],
      "payable": false,
      "stateMutability": "nonpayable",
      "type": "function"
    },
    {
      "constant": true,
      "inputs": [],
      "name": "paused",
      "outputs": [
        {
          "name": "",
          "type": "bool"
        }
      ],
      "payable": false,
      "stateMutability": "view",
      "type": "function"
    },
    {
      "constant": false,
      "inputs": [
        {
          "name": "_spender",
          "type": "address"
        },
        {
          "name": "_subtractedValue",
          "type": "uint256"
        }
      ],
      "name": "decreaseApproval",
      "outputs": [
        {
          "name": "success",
          "type": "bool"
        }
      ],
      "payable": false,
      "stateMutability": "nonpayable",
      "type": "function"
    },
    {
      "constant": true,
      "inputs": [
        {
          "name": "_owner",
          "type": "address"
        }
      ],
      "name": "balanceOf",
      "outputs": [
        {
          "name": "balance",
          "type": "uint256"
        }
      ],
      "payable": false,
      "stateMutability": "view",
      "type": "function"
    },
    {
      "constant": false,
      "inputs": [],
      "name": "pause",
      "outputs": [],
      "payable": false,
      "stateMutability": "nonpayable",
      "type": "function"
    },
    {
      "constant": true,
      "inputs": [],
      "name": "owner",
      "outputs": [
        {
          "name": "",
          "type": "address"
        }
      ],
      "payable": false,
      "stateMutability": "view",
      "type": "function"
    },
    {
      "constant": false,
      "inputs": [
        {
          "name": "_to",
          "type": "address"
        },
        {
          "name": "_value",
          "type": "uint256"
        }
      ],
      "name": "transfer",
      "outputs": [
        {
          "name": "",
          "type": "bool"
        }
      ],
      "payable": false,
      "stateMutability": "nonpayable",
      "type": "function"
    },
    {
      "constant": false,
      "inputs": [
        {
          "name": "_spender",
          "type": "address"
        },
        {
          "name": "_addedValue",
          "type": "uint256"
        }
      ],
      "name": "increaseApproval",
      "outputs": [
        {
          "name": "success",
          "type": "bool"
        }
      ],
      "payable": false,
      "stateMutability": "nonpayable",
      "type": "function"
    },
    {
      "constant": true,
      "inputs": [
        {
          "name": "_owner",
          "type": "address"
        },
        {
          "name": "_spender",
          "type": "address"
        }
      ],
      "name": "allowance",
      "outputs": [
        {
          "name": "remaining",
          "type": "uint256"
        }
      ],
      "payable": false,
      "stateMutability": "view",
      "type": "function"
    },
    {
      "constant": false,
      "inputs": [
        {
          "name": "newOwner",
          "type": "address"
        }
      ],
      "name": "transferOwnership",
      "outputs": [],
      "payable": false,
      "stateMutability": "nonpayable",
      "type": "function"
    },
    {
      "inputs": [
        {
          "name": "trustee1",
          "type": "address"
        },
        {
          "name": "trustee2",
          "type": "address"
        },
        {
          "name": "trustee3",
          "type": "address"
        }
      ],
      "payable": false,
      "stateMutability": "nonpayable",
      "type": "constructor"
    },
    {
      "anonymous": false,
      "inputs": [],
      "name": "Pause",
      "type": "event"
    },
    {
      "anonymous": false,
      "inputs": [],
      "name": "Unpause",
      "type": "event"
    },
    {
      "anonymous": false,
      "inputs": [
        {
          "indexed": true,
          "name": "previousOwner",
          "type": "address"
        },
        {
          "indexed": true,
          "name": "newOwner",
          "type": "address"
        }
      ],
      "name": "OwnershipTransferred",
      "type": "event"
    },
    {
      "anonymous": false,
      "inputs": [
        {
          "indexed": true,
          "name": "owner",
          "type": "address"
        },
        {
          "indexed": true,
          "name": "spender",
          "type": "address"
        },
        {
          "indexed": false,
          "name": "value",
          "type": "uint256"
        }
      ],
      "name": "Approval",
      "type": "event"
    },
    {
      "anonymous": false,
      "inputs": [
        {
          "indexed": true,
          "name": "from",
          "type": "address"
        },
        {
          "indexed": true,
          "name": "to",
          "type": "address"
        },
        {
          "indexed": false,
          "name": "value",
          "type": "uint256"
        }
      ],
      "name": "Transfer",
      "type": "event"
    },
    {
      "anonymous": false,
      "inputs": [
        {
          "indexed": false,
          "name": "app",
          "type": "address"
        },
        {
          "indexed": false,
          "name": "approver",
          "type": "address"
        }
      ],
      "name": "StartRequest",
      "type": "event"
    },
    {
      "anonymous": false,
      "inputs": [
        {
          "indexed": false,
          "name": "app",
          "type": "address"
        }
      ],
      "name": "Installed",
      "type": "event"
    },
    {
      "anonymous": false,
      "inputs": [
        {
          "indexed": false,
          "name": "app",
          "type": "address"
        },
        {
          "indexed": false,
          "name": "stopper",
          "type": "address"
        }
      ],
      "name": "StopRequest",
      "type": "event"
    },
    {
      "anonymous": false,
      "inputs": [
        {
          "indexed": false,
          "name": "app",
          "type": "address"
        }
      ],
      "name": "Uninstalled",
      "type": "event"
    },
    {
      "anonymous": false,
      "inputs": [
        {
          "indexed": false,
          "name": "board",
          "type": "address"
        }
      ],
      "name": "Board",
      "type": "event"
    },
    {
      "anonymous": false,
      "inputs": [
        {
          "indexed": false,
          "name": "board",
          "type": "address"
        }
      ],
      "name": "Revoked",
      "type": "event"
    },
    {
      "anonymous": false,
      "inputs": [
        {
          "indexed": false,
          "name": "nominee",
          "type": "address"
        },
        {
          "indexed": false,
          "name": "nominator",
          "type": "address"
        }
      ],
      "name": "Nominated",
      "type": "event"
    },
    {
      "anonymous": false,
      "inputs": [
        {
          "indexed": false,
          "name": "denouncee",
          "type": "address"
        },
        {
          "indexed": false,
          "name": "denouncer",
          "type": "address"
        }
      ],
      "name": "Denounced",
      "type": "event"
    },
    {
      "constant": false,
      "inputs": [
        {
          "name": "_from",
          "type": "address"
        },
        {
          "name": "_to",
          "type": "address"
        },
        {
          "name": "_value",
          "type": "uint256"
        }
      ],
      "name": "appTransfer",
      "outputs": [],
      "payable": false,
      "stateMutability": "nonpayable",
      "type": "function"
    },
    {
      "constant": true,
      "inputs": [
        {
          "name": "_app",
          "type": "address"
        }
      ],
      "name": "installed",
      "outputs": [
        {
          "name": "",
          "type": "bool"
        }
      ],
      "payable": false,
      "stateMutability": "view",
      "type": "function"
    },
    {
      "constant": false,
      "inputs": [
        {
          "name": "_board",
          "type": "address"
        }
      ],
      "name": "nominate",
      "outputs": [],
      "payable": false,
      "stateMutability": "nonpayable",
      "type": "function"
    },
    {
      "constant": false,
      "inputs": [
        {
          "name": "_board",
          "type": "address"
        }
      ],
      "name": "revoke",
      "outputs": [],
      "payable": false,
      "stateMutability": "nonpayable",
      "type": "function"
    },
    {
      "constant": false,
      "inputs": [
        {
          "name": "_app",
          "type": "address"
        }
      ],
      "name": "install",
      "outputs": [],
      "payable": false,
      "stateMutability": "nonpayable",
      "type": "function"
    },
    {
      "constant": false,
      "inputs": [
        {
          "name": "_app",
          "type": "address"
        }
      ],
      "name": "uninstall",
      "outputs": [],
      "payable": false,
      "stateMutability": "nonpayable",
      "type": "function"
    }
  ],
  "bytecode": "0x60606040526003805460a060020a60ff0219169055341561001f57600080fd5b6040516060806113d583398101604052808051919060200180519190602001805160038054600160a060020a03191633600160a060020a03908116919091179091558581166000908152600460205260408082208054600260ff1991821681179092558885168452828420805482168317905593851683529181902080549093169091179091559092506000805160206113b58339815191529150849051600160a060020a03909116815260200160405180910390a16000805160206113b583398151915282604051600160a060020a03909116815260200160405180910390a16000805160206113b583398151915281604051600160a060020a03909116815260200160405180910390a150506b033b2e3c9fd0803ce80000006000818155600160a060020a03331681526001602052604090205550611250806101656000396000f3006060604052600436106101065763ffffffff7c0100000000000000000000000000000000000000000000000000000000600035041663095ea7b3811461010b57806318160ddd1461014157806323b872dd146101665780632a1b8f9b1461018e5780632aaa68cd146101af5780633f4ba83a146101d757806359bc2249146101ea5780635c975abb14610209578063661884631461021c57806370a082311461023e57806374a8f1031461025d5780638456cb591461027c5780638da5cb5b1461028f578063a9059cbb146102be578063b332180b146102e0578063d73dd623146102ff578063dd62ed3e14610321578063f02900bf14610346578063f2fde38b14610365575b600080fd5b341561011657600080fd5b61012d600160a060020a0360043516602435610384565b604051901515815260200160405180910390f35b341561014c57600080fd5b6101546103c0565b60405190815260200160405180910390f35b341561017157600080fd5b61012d600160a060020a03600435811690602435166044356103c6565b341561019957600080fd5b6101ad600160a060020a0360043516610404565b005b34156101ba57600080fd5b6101ad600160a060020a036004358116906024351660443561057c565b34156101e257600080fd5b6101ad610688565b34156101f557600080fd5b6101ad600160a060020a0360043516610718565b341561021457600080fd5b61012d6108a0565b341561022757600080fd5b61012d600160a060020a03600435166024356108c1565b341561024957600080fd5b610154600160a060020a03600435166108f6565b341561026857600080fd5b6101ad600160a060020a0360043516610911565b341561028757600080fd5b6101ad610a98565b341561029a57600080fd5b6102a2610b3e565b604051600160a060020a03909116815260200160405180910390f35b34156102c957600080fd5b61012d600160a060020a0360043516602435610b4d565b34156102eb57600080fd5b6101ad600160a060020a0360043516610b82565b341561030a57600080fd5b61012d600160a060020a0360043516602435610cde565b341561032c57600080fd5b610154600160a060020a0360043581169060243516610d13565b341561035157600080fd5b61012d600160a060020a0360043516610d3e565b341561037057600080fd5b6101ad600160a060020a0360043516610d5e565b60035460009074010000000000000000000000000000000000000000900460ff16156103af57600080fd5b6103b98383610df9565b9392505050565b60005481565b60035460009074010000000000000000000000000000000000000000900460ff16156103f157600080fd5b6103fc848484610e65565b949350505050565b600160a060020a0333166000908152600460205260408120548190600216151561042d57600080fd5b600160a060020a038316600090815260046020526040902080549092506001161561045757610577565b815433600160a060020a0390811661010090920416141561047757610577565b7f80ab95d1965a5efca6615e2000b9fe318d405ac21a211df480ff08d7290a4f078333604051600160a060020a039283168152911660208201526040908101905180910390a181546101009004600160a060020a0316600090815260046020526040902054600216151561051557815474ffffffffffffffffffffffffffffffffffffffff00191661010033600160a060020a031602178255610577565b50813b6000811161052557600080fd5b815460ff8082166001171660ff199091161782557f07fb6870e0f01ad7e4f2d6b1bcfc72edd0d1d8c4982569c8cb8bd79b9c08767483604051600160a060020a03909116815260200160405180910390a15b505050565b61058533610d3e565b151561059057600080fd5b60035474010000000000000000000000000000000000000000900460ff16156105b857600080fd5b68056bc75e2d631000008111156105ce57600080fd5b600160a060020a0383166000908152600160205260409020546105f7908263ffffffff610f8f16565b600160a060020a03808516600090815260016020526040808220939093559084168152205461062c908263ffffffff610fa116565b600160a060020a03808416600081815260016020526040908190209390935591908516907fddf252ad1be2c89b69c2b068fc378daa952ba7f163c4a11628f55a4df523b3ef9084905190815260200160405180910390a3505050565b60035433600160a060020a039081169116146106a357600080fd5b60035474010000000000000000000000000000000000000000900460ff1615156106cc57600080fd5b6003805474ff0000000000000000000000000000000000000000191690557f7805862f689e2f13df9f062ff482ad3ad112aca9e0847911ed832e158c525b3360405160405180910390a1565b600160a060020a033316600090815260046020526040812054600216151561073f57600080fd5b50600160a060020a03808216600090815260046020526040902080549091610100909104161561078657805474ffffffffffffffffffffffffffffffffffffffff00191681555b805460011615156107965761089c565b600181015433600160a060020a03908116911614156107b45761089c565b7f907c0e95d6f0f3011107f134bdbb16d2933db6d8708df09e79318ea9629429fe8233604051600160a060020a039283168152911660208201526040908101905180910390a16001810154600160a060020a0316600090815260046020526040902054600216151561084f5760018101805473ffffffffffffffffffffffffffffffffffffffff191633600160a060020a031617905561089c565b805460ff19811660fe9091161781557f9cb86cc95d6eac716bbb27ee1a1d43a60e71c7965292b8da04a923e29ed93c6282604051600160a060020a03909116815260200160405180910390a15b5050565b60035474010000000000000000000000000000000000000000900460ff1681565b60035460009074010000000000000000000000000000000000000000900460ff16156108ec57600080fd5b6103b98383610fb0565b600160a060020a031660009081526001602052604090205490565b600160a060020a033316600090815260046020526040812054600216151561093857600080fd5b50600160a060020a03808216600090815260046020526040902060028101549091161561097f5760028101805473ffffffffffffffffffffffffffffffffffffffff191690555b8054600216151561098f5761089c565b600381015433600160a060020a03908116911614156109ad5761089c565b7f55faf8e51ab442f8d8510476317b2e313144c3db60adc284affef64140fe85528233604051600160a060020a039283168152911660208201526040908101905180910390a16003810154600160a060020a03166000908152600460205260409020546002161515610a485760038101805473ffffffffffffffffffffffffffffffffffffffff191633600160a060020a031617905561089c565b805460ff19811660fd9091161781557fb6fa8b8bd5eab60f292eca876e3ef90722275b785309d84b1de113ce0b8c4e7482604051600160a060020a03909116815260200160405180910390a15050565b60035433600160a060020a03908116911614610ab357600080fd5b60035474010000000000000000000000000000000000000000900460ff1615610adb57600080fd5b6003805474ff00000000000000000000000000000000000000001916740100000000000000000000000000000000000000001790557f6985a02210a168e66602d3235cb6db0e70f92b3ba4d376a33c0f3d9434bff62560405160405180910390a1565b600354600160a060020a031681565b60035460009074010000000000000000000000000000000000000000900460ff1615610b7857600080fd5b6103b983836110aa565b600160a060020a0333166000908152600460205260408120546002161515610ba957600080fd5b50600160a060020a0381166000908152600460205260409020805460021615610bd15761089c565b600281015433600160a060020a0390811691161415610bef5761089c565b7f3ce7d0c04d2ef9adf7825b41aa982b376bd65267c91603077653811dcce94b748233604051600160a060020a039283168152911660208201526040908101905180910390a1600281810154600160a060020a0316600090815260046020526040902054161515610c895760028101805473ffffffffffffffffffffffffffffffffffffffff191633600160a060020a031617905561089c565b805460ff8082166002171660ff199091161781557f178407cae5375558cd8030fb8b73bfce971b88244c1990eb3eee1cd7cb9441c682604051600160a060020a03909116815260200160405180910390a15050565b60035460009074010000000000000000000000000000000000000000900460ff1615610d0957600080fd5b6103b98383611180565b600160a060020a03918216600090815260026020908152604080832093909416825291909152205490565b600160a060020a0316600090815260046020526040902054600116151590565b60035433600160a060020a03908116911614610d7957600080fd5b600160a060020a0381161515610d8e57600080fd5b600354600160a060020a0380831691167f8be0079c531659141344cd1fd0a4f28419497f9722a3daafe3b4186f6b6457e060405160405180910390a36003805473ffffffffffffffffffffffffffffffffffffffff1916600160a060020a0392909216919091179055565b600160a060020a03338116600081815260026020908152604080832094871680845294909152808220859055909291907f8c5be1e5ebec7d5bd14f71427d1e84f3dd0314c0f7b2291e5b200ac8c7c3b9259085905190815260200160405180910390a350600192915050565b600080600160a060020a0384161515610e7d57600080fd5b50600160a060020a03808516600081815260026020908152604080832033909516835293815283822054928252600190529190912054610ec3908463ffffffff610f8f16565b600160a060020a038087166000908152600160205260408082209390935590861681522054610ef8908463ffffffff610fa116565b600160a060020a038516600090815260016020526040902055610f21818463ffffffff610f8f16565b600160a060020a03808716600081815260026020908152604080832033861684529091529081902093909355908616917fddf252ad1be2c89b69c2b068fc378daa952ba7f163c4a11628f55a4df523b3ef9086905190815260200160405180910390a3506001949350505050565b600082821115610f9b57fe5b50900390565b6000828201838110156103b957fe5b600160a060020a0333811660009081526002602090815260408083209386168352929052908120548083111561100d57600160a060020a033381166000908152600260209081526040808320938816835292905290812055611044565b61101d818463ffffffff610f8f16565b600160a060020a033381166000908152600260209081526040808320938916835292905220555b600160a060020a0333811660008181526002602090815260408083209489168084529490915290819020547f8c5be1e5ebec7d5bd14f71427d1e84f3dd0314c0f7b2291e5b200ac8c7c3b925915190815260200160405180910390a35060019392505050565b6000600160a060020a03831615156110c157600080fd5b600160a060020a0333166000908152600160205260409020546110ea908363ffffffff610f8f16565b600160a060020a03338116600090815260016020526040808220939093559085168152205461111f908363ffffffff610fa116565b600160a060020a0380851660008181526001602052604090819020939093559133909116907fddf252ad1be2c89b69c2b068fc378daa952ba7f163c4a11628f55a4df523b3ef9085905190815260200160405180910390a350600192915050565b600160a060020a0333811660009081526002602090815260408083209386168352929052908120546111b8908363ffffffff610fa116565b600160a060020a0333811660008181526002602090815260408083209489168084529490915290819020849055919290917f8c5be1e5ebec7d5bd14f71427d1e84f3dd0314c0f7b2291e5b200ac8c7c3b92591905190815260200160405180910390a3506001929150505600a165627a7a7230582077b1d9a574f2eb77a4f86b10cc8537eba0a41dec865f0274a865a63b19754b3f0029178407cae5375558cd8030fb8b73bfce971b88244c1990eb3eee1cd7cb9441c6",
  "source": "/*\n  Copyright 2018 Menlo One, Inc.\n\n  Licensed under the Apache License, Version 2.0 (the “License”);\n  you may not use this file except in compliance with the License.\n  You may obtain a copy of the License at\n\n  http://www.apache.org/licenses/LICENSE-2.0\n\n  Unless required by applicable law or agreed to in writing, software\n  distributed under the License is distributed on an “AS IS” BASIS,\n  WITHOUT WARRANTIES OR CONDITIONS OF ANY KIND, either express or implied.\n  See the License for the specific language governing permissions and\n  limitations under the License.\n*/\npragma solidity^0.4.18;\n\nimport 'zeppelin-solidity/contracts/token/PausableToken.sol';\n/*\n/ installed apps are cheaper on gas than approve/transferFrom because they require fewer SSTOREs\n/\n/ app installation works with a simple trustee system that assumes no two trustees would collude to rob token holders\n/ the trustee system relies on mutual distrust\n/ trustees should not:\n/ * nominate(0x0)\n/   - boarding 0x0 gives unilateral authority to all remaining board members\n/   - the second board member to nominate 0x0 is the first with unilateral authority, so colluding is uneconomic\n/   - if someone nominates 0x0, you must immediately revoke(0x0) and denounce the malicious party\n/ * let an individual control two trustee accounts\n/   - an individual with two accounts has unilateral power\n/   - if someone loses their key, revoke the initial account before issuing another\n/ * nominate an app before that app finishes third-party auditing\n/   - malicious applications can spam microtransactions to steal tokens\n/ * let the number of living trustees fall below 3\n/   - death is unpredictable\n/   - an individual trustee is powerless\n/ the trustee system is trustful and should be replaced\n/ to fully-replace the trustee system with a new governing contract:\n/ * a.nominate(replacement)\n/ * b.nominate(replacement)\n/ * a.nominate(0x0)\n/ * replacement.nominate(0x0)\n/ * replacement.denounce(a)\n/ * replacement.denounce(b)\n*/\ncontract AppTokenEvents {\n    event StartRequest(address app, address approver);\n    event Installed(address app);\n    event StopRequest(address app, address stopper);\n    event Uninstalled(address app);\n    event Board(address board);\n    event Revoked(address board);\n    event Nominated(address nominee, address nominator);\n    event Denounced(address denouncee, address denouncer);\n}\ncontract AppToken is AppTokenEvents,PausableToken {\n    // Permissions Bitmap:\n    uint8 constant INSTALLED = 1;\n    uint8 constant BOARD = 2;\n\n    mapping (address => Account) accounts;\n    struct Account {\n        uint8 permissions;\n        address installer;\n        address stopper;\n        address nominator;\n        address denouncer;\n    }\n\n    function appTransfer(address _from, address _to, uint256 _value) external onlyInstalled whenNotPaused {\n        // microtransactions only\n        require(_value <= 100 ether);\n\n        balances[_from] = balances[_from].sub(_value);\n        balances[_to] = balances[_to].add(_value);\n        Transfer(_from, _to, _value);\n    }\n\n    function AppToken(address trustee1, address trustee2, address trustee3) public {\n        accounts[trustee1].permissions = BOARD;\n        accounts[trustee2].permissions = BOARD;\n        accounts[trustee3].permissions = BOARD;\n        Board(trustee1);\n        Board(trustee2);\n        Board(trustee3);\n        totalSupply = 1000000000 ether;\n        balances[msg.sender] = totalSupply;\n    }\n\n    function installed(address _app) public view returns (bool) {\n        return accounts[_app].permissions & INSTALLED != 0;\n    }\n\n    modifier onlyInstalled {\n        require(installed(msg.sender));\n        _;\n    }\n\n    modifier onlyBoard {\n        require(accounts[msg.sender].permissions & BOARD != 0);\n        _;\n    }\n\n    function nominate(address _board) external onlyBoard {\n        Account storage nominee = accounts[_board];\n        if (nominee.permissions & BOARD != 0) {\n            return;\n        }\n        if (nominee.nominator == msg.sender) {\n            return;\n        }\n        Nominated(_board, msg.sender);\n        if (accounts[nominee.nominator].permissions & BOARD == 0) {\n            nominee.nominator = msg.sender;\n            return;\n        }\n        nominee.permissions |= BOARD;\n        Board(_board);\n    }\n\n    function revoke(address _board) external onlyBoard {\n        Account storage denounced = accounts[_board];\n        if (denounced.nominator != 0) {\n            denounced.nominator = 0;\n        }\n        if (denounced.permissions & BOARD == 0) {\n            return;\n        }\n        if (denounced.denouncer == msg.sender) {\n            return;\n        }\n        Denounced(_board, msg.sender);\n        if (accounts[denounced.denouncer].permissions & BOARD == 0) {\n            denounced.denouncer = msg.sender;\n            return;\n        }\n        denounced.permissions &= ~BOARD;\n        Revoked(_board);\n    }\n\n    function install(address _app) external onlyBoard {\n        Account storage application = accounts[_app];\n        if (application.permissions & INSTALLED != 0) {\n            return;\n        }\n        if (application.installer == msg.sender) {\n            return;\n        }\n        StartRequest(_app, msg.sender);\n        if (accounts[application.installer].permissions & BOARD == 0) {\n            application.installer = msg.sender;\n            return;\n        }\n        uint256 size;\n        assembly {\n            size := extcodesize(_app)\n        }\n        require(size > 0);\n        application.permissions |= INSTALLED;\n        Installed(_app);\n    }\n    function uninstall(address _app) external onlyBoard {\n        Account storage application = accounts[_app];\n        if (application.installer != 0) {\n            application.installer = 0;\n        }\n        if (application.permissions & INSTALLED == 0) {\n            return;\n        }\n        if (application.stopper == msg.sender) {\n            return;\n        }\n        StopRequest(_app, msg.sender);\n        if (accounts[application.stopper].permissions & BOARD == 0) {\n            application.stopper = msg.sender;\n            return;\n        }\n        application.permissions &= ~INSTALLED;\n        Uninstalled(_app);\n    }\n}\n",
  "sourcePath": "/Users/dave/Code/townhall/contracts/AppToken.sol",
  "compiler": {
    "name": "solc",
    "version": "0.4.21+commit.dfe3193c.Emscripten.clang"
  },
  "schemaVersion": "2.0.0",
  "updatedAt": "2018-05-24T19:17:44.632Z"
}