{
  "contractName": "AppToken",
  "abi": [
    {
      "constant": false,
      "inputs": [
        {
          "name": "_spender",
          "type": "address"
        },
        {
          "name": "_value",
          "type": "uint256"
        }
      ],
      "name": "approve",
      "outputs": [
        {
          "name": "",
          "type": "bool"
        }
      ],
      "payable": false,
      "stateMutability": "nonpayable",
      "type": "function"
    },
    {
      "constant": true,
      "inputs": [],
      "name": "totalSupply",
      "outputs": [
        {
          "name": "",
          "type": "uint256"
        }
      ],
      "payable": false,
      "stateMutability": "view",
      "type": "function"
    },
    {
      "constant": false,
      "inputs": [
        {
          "name": "_from",
          "type": "address"
        },
        {
          "name": "_to",
          "type": "address"
        },
        {
          "name": "_value",
          "type": "uint256"
        }
      ],
      "name": "transferFrom",
      "outputs": [
        {
          "name": "",
          "type": "bool"
        }
      ],
      "payable": false,
      "stateMutability": "nonpayable",
      "type": "function"
    },
    {
      "constant": false,
      "inputs": [],
      "name": "unpause",
      "outputs": [],
      "payable": false,
      "stateMutability": "nonpayable",
      "type": "function"
    },
    {
      "constant": true,
      "inputs": [],
      "name": "paused",
      "outputs": [
        {
          "name": "",
          "type": "bool"
        }
      ],
      "payable": false,
      "stateMutability": "view",
      "type": "function"
    },
    {
      "constant": false,
      "inputs": [
        {
          "name": "_spender",
          "type": "address"
        },
        {
          "name": "_subtractedValue",
          "type": "uint256"
        }
      ],
      "name": "decreaseApproval",
      "outputs": [
        {
          "name": "success",
          "type": "bool"
        }
      ],
      "payable": false,
      "stateMutability": "nonpayable",
      "type": "function"
    },
    {
      "constant": true,
      "inputs": [
        {
          "name": "_owner",
          "type": "address"
        }
      ],
      "name": "balanceOf",
      "outputs": [
        {
          "name": "",
          "type": "uint256"
        }
      ],
      "payable": false,
      "stateMutability": "view",
      "type": "function"
    },
    {
      "constant": false,
      "inputs": [],
      "name": "renounceOwnership",
      "outputs": [],
      "payable": false,
      "stateMutability": "nonpayable",
      "type": "function"
    },
    {
      "constant": false,
      "inputs": [],
      "name": "pause",
      "outputs": [],
      "payable": false,
      "stateMutability": "nonpayable",
      "type": "function"
    },
    {
      "constant": true,
      "inputs": [],
      "name": "owner",
      "outputs": [
        {
          "name": "",
          "type": "address"
        }
      ],
      "payable": false,
      "stateMutability": "view",
      "type": "function"
    },
    {
      "constant": false,
      "inputs": [
        {
          "name": "_to",
          "type": "address"
        },
        {
          "name": "_value",
          "type": "uint256"
        }
      ],
      "name": "transfer",
      "outputs": [
        {
          "name": "",
          "type": "bool"
        }
      ],
      "payable": false,
      "stateMutability": "nonpayable",
      "type": "function"
    },
    {
      "constant": false,
      "inputs": [
        {
          "name": "_spender",
          "type": "address"
        },
        {
          "name": "_addedValue",
          "type": "uint256"
        }
      ],
      "name": "increaseApproval",
      "outputs": [
        {
          "name": "success",
          "type": "bool"
        }
      ],
      "payable": false,
      "stateMutability": "nonpayable",
      "type": "function"
    },
    {
      "constant": true,
      "inputs": [
        {
          "name": "_owner",
          "type": "address"
        },
        {
          "name": "_spender",
          "type": "address"
        }
      ],
      "name": "allowance",
      "outputs": [
        {
          "name": "",
          "type": "uint256"
        }
      ],
      "payable": false,
      "stateMutability": "view",
      "type": "function"
    },
    {
      "constant": false,
      "inputs": [
        {
          "name": "_newOwner",
          "type": "address"
        }
      ],
      "name": "transferOwnership",
      "outputs": [],
      "payable": false,
      "stateMutability": "nonpayable",
      "type": "function"
    },
    {
      "inputs": [
        {
          "name": "trustee1",
          "type": "address"
        },
        {
          "name": "trustee2",
          "type": "address"
        },
        {
          "name": "trustee3",
          "type": "address"
        }
      ],
      "payable": false,
      "stateMutability": "nonpayable",
      "type": "constructor"
    },
    {
      "anonymous": false,
      "inputs": [],
      "name": "Pause",
      "type": "event"
    },
    {
      "anonymous": false,
      "inputs": [],
      "name": "Unpause",
      "type": "event"
    },
    {
      "anonymous": false,
      "inputs": [
        {
          "indexed": true,
          "name": "previousOwner",
          "type": "address"
        }
      ],
      "name": "OwnershipRenounced",
      "type": "event"
    },
    {
      "anonymous": false,
      "inputs": [
        {
          "indexed": true,
          "name": "previousOwner",
          "type": "address"
        },
        {
          "indexed": true,
          "name": "newOwner",
          "type": "address"
        }
      ],
      "name": "OwnershipTransferred",
      "type": "event"
    },
    {
      "anonymous": false,
      "inputs": [
        {
          "indexed": true,
          "name": "owner",
          "type": "address"
        },
        {
          "indexed": true,
          "name": "spender",
          "type": "address"
        },
        {
          "indexed": false,
          "name": "value",
          "type": "uint256"
        }
      ],
      "name": "Approval",
      "type": "event"
    },
    {
      "anonymous": false,
      "inputs": [
        {
          "indexed": true,
          "name": "from",
          "type": "address"
        },
        {
          "indexed": true,
          "name": "to",
          "type": "address"
        },
        {
          "indexed": false,
          "name": "value",
          "type": "uint256"
        }
      ],
      "name": "Transfer",
      "type": "event"
    },
    {
      "anonymous": false,
      "inputs": [
        {
          "indexed": false,
          "name": "app",
          "type": "address"
        },
        {
          "indexed": false,
          "name": "approver",
          "type": "address"
        }
      ],
      "name": "StartRequest",
      "type": "event"
    },
    {
      "anonymous": false,
      "inputs": [
        {
          "indexed": false,
          "name": "app",
          "type": "address"
        }
      ],
      "name": "Installed",
      "type": "event"
    },
    {
      "anonymous": false,
      "inputs": [
        {
          "indexed": false,
          "name": "app",
          "type": "address"
        },
        {
          "indexed": false,
          "name": "stopper",
          "type": "address"
        }
      ],
      "name": "StopRequest",
      "type": "event"
    },
    {
      "anonymous": false,
      "inputs": [
        {
          "indexed": false,
          "name": "app",
          "type": "address"
        }
      ],
      "name": "Uninstalled",
      "type": "event"
    },
    {
      "anonymous": false,
      "inputs": [
        {
          "indexed": false,
          "name": "board",
          "type": "address"
        }
      ],
      "name": "Board",
      "type": "event"
    },
    {
      "anonymous": false,
      "inputs": [
        {
          "indexed": false,
          "name": "board",
          "type": "address"
        }
      ],
      "name": "Revoked",
      "type": "event"
    },
    {
      "anonymous": false,
      "inputs": [
        {
          "indexed": false,
          "name": "nominee",
          "type": "address"
        },
        {
          "indexed": false,
          "name": "nominator",
          "type": "address"
        }
      ],
      "name": "Nominated",
      "type": "event"
    },
    {
      "anonymous": false,
      "inputs": [
        {
          "indexed": false,
          "name": "denouncee",
          "type": "address"
        },
        {
          "indexed": false,
          "name": "denouncer",
          "type": "address"
        }
      ],
      "name": "Denounced",
      "type": "event"
    },
    {
      "constant": false,
      "inputs": [
        {
          "name": "_from",
          "type": "address"
        },
        {
          "name": "_to",
          "type": "address"
        },
        {
          "name": "_value",
          "type": "uint256"
        }
      ],
      "name": "appTransfer",
      "outputs": [],
      "payable": false,
      "stateMutability": "nonpayable",
      "type": "function"
    },
    {
      "constant": true,
      "inputs": [
        {
          "name": "_app",
          "type": "address"
        }
      ],
      "name": "installed",
      "outputs": [
        {
          "name": "",
          "type": "bool"
        }
      ],
      "payable": false,
      "stateMutability": "view",
      "type": "function"
    },
    {
      "constant": false,
      "inputs": [
        {
          "name": "_board",
          "type": "address"
        }
      ],
      "name": "nominate",
      "outputs": [],
      "payable": false,
      "stateMutability": "nonpayable",
      "type": "function"
    },
    {
      "constant": false,
      "inputs": [
        {
          "name": "_board",
          "type": "address"
        }
      ],
      "name": "revoke",
      "outputs": [],
      "payable": false,
      "stateMutability": "nonpayable",
      "type": "function"
    },
    {
      "constant": false,
      "inputs": [
        {
          "name": "_app",
          "type": "address"
        }
      ],
      "name": "install",
      "outputs": [],
      "payable": false,
      "stateMutability": "nonpayable",
      "type": "function"
    },
    {
      "constant": false,
      "inputs": [
        {
          "name": "_app",
          "type": "address"
        }
      ],
      "name": "uninstall",
      "outputs": [],
      "payable": false,
      "stateMutability": "nonpayable",
      "type": "function"
    }
  ],
  "bytecode": "0x60806040526003805460a060020a60ff021916905534801561002057600080fd5b506040516060806112bd83398101604081815282516020808501519483015160038054600160a060020a03191633179055600160a060020a03808416600081815260048552868120805460ff199081166002908117909255848b16835288832080548216831790559385168252908790208054909316179091558552925191949360008051602061129d833981519152929081900390910190a160408051600160a060020a0384168152905160008051602061129d8339815191529181900360200190a160408051600160a060020a0383168152905160008051602061129d8339815191529181900360200190a150506b033b2e3c9fd0803ce80000006001819055336000908152602081905260409020555061115b806101426000396000f3006080604052600436106100f85763ffffffff60e060020a600035041663095ea7b381146100fd57806318160ddd1461013557806323b872dd1461015c5780632a1b8f9b146101865780632aaa68cd146101a95780633f4ba83a146101d357806359bc2249146101e85780635c975abb14610209578063661884631461021e57806370a0823114610242578063715018a61461026357806374a8f103146102785780638456cb59146102995780638da5cb5b146102ae578063a9059cbb146102df578063b332180b14610303578063d73dd62314610324578063dd62ed3e14610348578063f02900bf1461036f578063f2fde38b14610390575b600080fd5b34801561010957600080fd5b50610121600160a060020a03600435166024356103b1565b604080519115158252519081900360200190f35b34801561014157600080fd5b5061014a6103dc565b60408051918252519081900360200190f35b34801561016857600080fd5b50610121600160a060020a03600435811690602435166044356103e2565b34801561019257600080fd5b506101a7600160a060020a036004351661040f565b005b3480156101b557600080fd5b506101a7600160a060020a0360043581169060243516604435610560565b3480156101df57600080fd5b506101a7610647565b3480156101f457600080fd5b506101a7600160a060020a03600435166106b1565b34801561021557600080fd5b50610121610805565b34801561022a57600080fd5b50610121600160a060020a0360043516602435610815565b34801561024e57600080fd5b5061014a600160a060020a0360043516610839565b34801561026f57600080fd5b506101a7610854565b34801561028457600080fd5b506101a7600160a060020a03600435166108b5565b3480156102a557600080fd5b506101a7610a08565b3480156102ba57600080fd5b506102c3610a77565b60408051600160a060020a039092168252519081900360200190f35b3480156102eb57600080fd5b50610121600160a060020a0360043516602435610a86565b34801561030f57600080fd5b506101a7600160a060020a0360043516610aaa565b34801561033057600080fd5b50610121600160a060020a0360043516602435610bdf565b34801561035457600080fd5b5061014a600160a060020a0360043581169060243516610c03565b34801561037b57600080fd5b50610121600160a060020a0360043516610c2e565b34801561039c57600080fd5b506101a7600160a060020a0360043516610c4e565b60035460009060a060020a900460ff16156103cb57600080fd5b6103d58383610c71565b9392505050565b60015490565b60035460009060a060020a900460ff16156103fc57600080fd5b610407848484610cc5565b949350505050565b336000908152600460205260408120548190600216151561042f57600080fd5b600160a060020a03831660009081526004602052604090208054909250600116156104595761055b565b81546101009004600160a060020a03163314156104755761055b565b60408051600160a060020a038516815233602082015281517f80ab95d1965a5efca6615e2000b9fe318d405ac21a211df480ff08d7290a4f07929181900390910190a181546101009004600160a060020a031660009081526004602052604090205460021615156104fa57815461010060a860020a031916336101000217825561055b565b50813b6000811161050a57600080fd5b815460ff8082166001171660ff1990911617825560408051600160a060020a038516815290517f07fb6870e0f01ad7e4f2d6b1bcfc72edd0d1d8c4982569c8cb8bd79b9c0876749181900360200190a15b505050565b61056933610c2e565b151561057457600080fd5b60035460a060020a900460ff161561058b57600080fd5b68056bc75e2d631000008111156105a157600080fd5b600160a060020a0383166000908152602081905260409020546105ca908263ffffffff610e2816565b600160a060020a0380851660009081526020819052604080822093909355908416815220546105ff908263ffffffff610e3a16565b600160a060020a038084166000818152602081815260409182902094909455805185815290519193928716926000805160206110f083398151915292918290030190a3505050565b600354600160a060020a0316331461065e57600080fd5b60035460a060020a900460ff16151561067657600080fd5b6003805460a060020a60ff02191690556040517f7805862f689e2f13df9f062ff482ad3ad112aca9e0847911ed832e158c525b3390600090a1565b3360009081526004602052604081205460021615156106cf57600080fd5b50600160a060020a03808216600090815260046020526040902080549091610100909104161561070957805461010060a860020a03191681555b8054600116151561071957610801565b6001810154600160a060020a031633141561073357610801565b60408051600160a060020a038416815233602082015281517f907c0e95d6f0f3011107f134bdbb16d2933db6d8708df09e79318ea9629429fe929181900390910190a16001810154600160a060020a031660009081526004602052604090205460021615156107b557600181018054600160a060020a03191633179055610801565b805460ff19811660fe90911617815560408051600160a060020a038416815290517f9cb86cc95d6eac716bbb27ee1a1d43a60e71c7965292b8da04a923e29ed93c629181900360200190a15b5050565b60035460a060020a900460ff1681565b60035460009060a060020a900460ff161561082f57600080fd5b6103d58383610e4d565b600160a060020a031660009081526020819052604090205490565b600354600160a060020a0316331461086b57600080fd5b600354604051600160a060020a03909116907ff8df31144d9c2f0f6b59d69b8b98abd5459d07f2742c4df920b25aae33c6482090600090a260038054600160a060020a0319169055565b3360009081526004602052604081205460021615156108d357600080fd5b50600160a060020a03808216600090815260046020526040902060028101549091161561090d57600281018054600160a060020a03191690555b8054600216151561091d57610801565b6003810154600160a060020a031633141561093757610801565b60408051600160a060020a038416815233602082015281517f55faf8e51ab442f8d8510476317b2e313144c3db60adc284affef64140fe8552929181900390910190a16003810154600160a060020a031660009081526004602052604090205460021615156109b957600381018054600160a060020a03191633179055610801565b805460ff19811660fd90911617815560408051600160a060020a038416815290517fb6fa8b8bd5eab60f292eca876e3ef90722275b785309d84b1de113ce0b8c4e749181900360200190a15050565b600354600160a060020a03163314610a1f57600080fd5b60035460a060020a900460ff1615610a3657600080fd5b6003805460a060020a60ff02191660a060020a1790556040517f6985a02210a168e66602d3235cb6db0e70f92b3ba4d376a33c0f3d9434bff62590600090a1565b600354600160a060020a031681565b60035460009060a060020a900460ff1615610aa057600080fd5b6103d58383610f2a565b336000908152600460205260408120546002161515610ac857600080fd5b50600160a060020a0381166000908152600460205260409020805460021615610af057610801565b6002810154600160a060020a0316331415610b0a57610801565b60408051600160a060020a038416815233602082015281517f3ce7d0c04d2ef9adf7825b41aa982b376bd65267c91603077653811dcce94b74929181900390910190a1600281810154600160a060020a0316600090815260046020526040902054161515610b8b57600281018054600160a060020a03191633179055610801565b805460ff8082166002171660ff1990911617815560408051600160a060020a038416815290517f178407cae5375558cd8030fb8b73bfce971b88244c1990eb3eee1cd7cb9441c69181900360200190a15050565b60035460009060a060020a900460ff1615610bf957600080fd5b6103d58383610ff7565b600160a060020a03918216600090815260026020908152604080832093909416825291909152205490565b600160a060020a0316600090815260046020526040902054600116151590565b600354600160a060020a03163314610c6557600080fd5b610c6e8161107e565b50565b336000818152600260209081526040808320600160a060020a03871680855290835281842086905581518681529151939490939092600080516020611110833981519152928290030190a350600192915050565b600160a060020a038316600090815260208190526040812054821115610cea57600080fd5b600160a060020a0384166000908152600260209081526040808320338452909152902054821115610d1a57600080fd5b600160a060020a0383161515610d2f57600080fd5b600160a060020a038416600090815260208190526040902054610d58908363ffffffff610e2816565b600160a060020a038086166000908152602081905260408082209390935590851681522054610d8d908363ffffffff610e3a16565b600160a060020a03808516600090815260208181526040808320949094559187168152600282528281203382529091522054610dcf908363ffffffff610e2816565b600160a060020a03808616600081815260026020908152604080832033845282529182902094909455805186815290519287169391926000805160206110f0833981519152929181900390910190a35060019392505050565b600082821115610e3457fe5b50900390565b81810182811015610e4757fe5b92915050565b336000908152600260209081526040808320600160a060020a0386168452909152812054808310610ea157336000908152600260209081526040808320600160a060020a0388168452909152812055610ed6565b610eb1818463ffffffff610e2816565b336000908152600260209081526040808320600160a060020a03891684529091529020555b336000818152600260209081526040808320600160a060020a038916808552908352928190205481519081529051929392600080516020611110833981519152929181900390910190a35060019392505050565b33600090815260208190526040812054821115610f4657600080fd5b600160a060020a0383161515610f5b57600080fd5b33600090815260208190526040902054610f7b908363ffffffff610e2816565b3360009081526020819052604080822092909255600160a060020a03851681522054610fad908363ffffffff610e3a16565b600160a060020a038416600081815260208181526040918290209390935580518581529051919233926000805160206110f08339815191529281900390910190a350600192915050565b336000908152600260209081526040808320600160a060020a038616845290915281205461102b908363ffffffff610e3a16565b336000818152600260209081526040808320600160a060020a038916808552908352928190208590558051948552519193600080516020611110833981519152929081900390910190a350600192915050565b600160a060020a038116151561109357600080fd5b600354604051600160a060020a038084169216907f8be0079c531659141344cd1fd0a4f28419497f9722a3daafe3b4186f6b6457e090600090a360038054600160a060020a031916600160a060020a03929092169190911790555600ddf252ad1be2c89b69c2b068fc378daa952ba7f163c4a11628f55a4df523b3ef8c5be1e5ebec7d5bd14f71427d1e84f3dd0314c0f7b2291e5b200ac8c7c3b925a165627a7a72305820e831d188c9feaac80f1a61708f60861549fd74081c86c40ac3327d7d08fcb8490029178407cae5375558cd8030fb8b73bfce971b88244c1990eb3eee1cd7cb9441c6",
  "source": "/*\n  Copyright 2018 Menlo, Inc.\n\n  Licensed under the Apache License, Version 2.0 (the “License”);\n  you may not use this file except in compliance with the License.\n  You may obtain a copy of the License at\n\n  http://www.apache.org/licenses/LICENSE-2.0\n\n  Unless required by applicable law or agreed to in writing, software\n  distributed under the License is distributed on an “AS IS” BASIS,\n  WITHOUT WARRANTIES OR CONDITIONS OF ANY KIND, either express or implied.\n  See the License for the specific language governing permissions and\n  limitations under the License.\n*/\npragma solidity^0.4.18;\n\nimport 'openzeppelin-solidity/contracts/token/ERC20/PausableToken.sol';\n/*\n/ installed apps are cheaper on gas than approve/transferFrom because they require fewer SSTOREs\n/\n/ app installation works with a simple trustee system that assumes no two trustees would collude to rob token holders\n/ the trustee system relies on mutual distrust\n/ trustees should not:\n/ * nominate(0x0)\n/   - boarding 0x0 gives unilateral authority to all remaining board members\n/   - the second board member to nominate 0x0 is the first with unilateral authority, so colluding is uneconomic\n/   - if someone nominates 0x0, you must immediately revoke(0x0) and denounce the malicious party\n/ * let an individual control two trustee accounts\n/   - an individual with two accounts has unilateral power\n/   - if someone loses their key, revoke the initial account before issuing another\n/ * nominate an app before that app finishes third-party auditing\n/   - malicious applications can spam microtransactions to steal tokens\n/ * let the number of living trustees fall below 3\n/   - death is unpredictable\n/   - an individual trustee is powerless\n/ the trustee system is trustful and should be replaced\n/ to fully-replace the trustee system with a new governing contract:\n/ * a.nominate(replacement)\n/ * b.nominate(replacement)\n/ * a.nominate(0x0)\n/ * replacement.nominate(0x0)\n/ * replacement.denounce(a)\n/ * replacement.denounce(b)\n*/\ncontract AppTokenEvents {\n    event StartRequest(address app, address approver);\n    event Installed(address app);\n    event StopRequest(address app, address stopper);\n    event Uninstalled(address app);\n    event Board(address board);\n    event Revoked(address board);\n    event Nominated(address nominee, address nominator);\n    event Denounced(address denouncee, address denouncer);\n}\ncontract AppToken is AppTokenEvents,PausableToken {\n    // Permissions Bitmap:\n    uint8 constant INSTALLED = 1;\n    uint8 constant BOARD = 2;\n\n    mapping (address => Account) accounts;\n    struct Account {\n        uint8 permissions;\n        address installer;\n        address stopper;\n        address nominator;\n        address denouncer;\n    }\n\n    function appTransfer(address _from, address _to, uint256 _value) external onlyInstalled whenNotPaused {\n        // microtransactions only\n        require(_value <= 100 ether);\n\n        balances[_from] = balances[_from].sub(_value);\n        balances[_to] = balances[_to].add(_value);\n        emit Transfer(_from, _to, _value);\n    }\n\n    constructor(address trustee1, address trustee2, address trustee3) public {\n        accounts[trustee1].permissions = BOARD;\n        accounts[trustee2].permissions = BOARD;\n        accounts[trustee3].permissions = BOARD;\n        emit Board(trustee1);\n        emit Board(trustee2);\n        emit Board(trustee3);\n        totalSupply_ = 1000000000 ether;\n        balances[msg.sender] = totalSupply_;\n    }\n\n    function installed(address _app) public view returns (bool) {\n        return accounts[_app].permissions & INSTALLED != 0;\n    }\n\n    modifier onlyInstalled {\n        require(installed(msg.sender));\n        _;\n    }\n\n    modifier onlyBoard {\n        require(accounts[msg.sender].permissions & BOARD != 0);\n        _;\n    }\n\n    function nominate(address _board) external onlyBoard {\n        Account storage nominee = accounts[_board];\n        if (nominee.permissions & BOARD != 0) {\n            return;\n        }\n        if (nominee.nominator == msg.sender) {\n            return;\n        }\n        emit Nominated(_board, msg.sender);\n        if (accounts[nominee.nominator].permissions & BOARD == 0) {\n            nominee.nominator = msg.sender;\n            return;\n        }\n        nominee.permissions |= BOARD;\n        emit Board(_board);\n    }\n\n    function revoke(address _board) external onlyBoard {\n        Account storage denounced = accounts[_board];\n        if (denounced.nominator != 0) {\n            denounced.nominator = 0;\n        }\n        if (denounced.permissions & BOARD == 0) {\n            return;\n        }\n        if (denounced.denouncer == msg.sender) {\n            return;\n        }\n        emit Denounced(_board, msg.sender);\n        if (accounts[denounced.denouncer].permissions & BOARD == 0) {\n            denounced.denouncer = msg.sender;\n            return;\n        }\n        denounced.permissions &= ~BOARD;\n        emit Revoked(_board);\n    }\n\n    function install(address _app) external onlyBoard {\n        Account storage application = accounts[_app];\n        if (application.permissions & INSTALLED != 0) {\n            return;\n        }\n        if (application.installer == msg.sender) {\n            return;\n        }\n        emit StartRequest(_app, msg.sender);\n        if (accounts[application.installer].permissions & BOARD == 0) {\n            application.installer = msg.sender;\n            return;\n        }\n        uint256 size;\n        assembly {\n            size := extcodesize(_app)\n        }\n        require(size > 0);\n        application.permissions |= INSTALLED;\n        emit Installed(_app);\n    }\n    function uninstall(address _app) external onlyBoard {\n        Account storage application = accounts[_app];\n        if (application.installer != 0) {\n            application.installer = 0;\n        }\n        if (application.permissions & INSTALLED == 0) {\n            return;\n        }\n        if (application.stopper == msg.sender) {\n            return;\n        }\n        emit StopRequest(_app, msg.sender);\n        if (accounts[application.stopper].permissions & BOARD == 0) {\n            application.stopper = msg.sender;\n            return;\n        }\n        application.permissions &= ~INSTALLED;\n        emit Uninstalled(_app);\n    }\n}\n",
  "sourcePath": "/Users/dave/Code/expo-demo/contracts/AppToken.sol",
  "compiler": {
    "name": "solc",
    "version": "0.4.24+commit.e67f0147.Emscripten.clang"
  },
  "schemaVersion": "2.0.1",
  "updatedAt": "2018-08-17T21:49:48.897Z"
}