{
  "contractName": "AppToken",
  "abi": [
    {
      "constant": false,
      "inputs": [
        {
          "name": "_spender",
          "type": "address"
        },
        {
          "name": "_value",
          "type": "uint256"
        }
      ],
      "name": "approve",
      "outputs": [
        {
          "name": "",
          "type": "bool"
        }
      ],
      "payable": false,
      "stateMutability": "nonpayable",
      "type": "function"
    },
    {
      "constant": true,
      "inputs": [],
      "name": "totalSupply",
      "outputs": [
        {
          "name": "",
          "type": "uint256"
        }
      ],
      "payable": false,
      "stateMutability": "view",
      "type": "function"
    },
    {
      "constant": false,
      "inputs": [
        {
          "name": "_from",
          "type": "address"
        },
        {
          "name": "_to",
          "type": "address"
        },
        {
          "name": "_value",
          "type": "uint256"
        }
      ],
      "name": "transferFrom",
      "outputs": [
        {
          "name": "",
          "type": "bool"
        }
      ],
      "payable": false,
      "stateMutability": "nonpayable",
      "type": "function"
    },
    {
      "constant": false,
      "inputs": [],
      "name": "unpause",
      "outputs": [],
      "payable": false,
      "stateMutability": "nonpayable",
      "type": "function"
    },
    {
      "constant": true,
      "inputs": [],
      "name": "paused",
      "outputs": [
        {
          "name": "",
          "type": "bool"
        }
      ],
      "payable": false,
      "stateMutability": "view",
      "type": "function"
    },
    {
      "constant": false,
      "inputs": [
        {
          "name": "_spender",
          "type": "address"
        },
        {
          "name": "_subtractedValue",
          "type": "uint256"
        }
      ],
      "name": "decreaseApproval",
      "outputs": [
        {
          "name": "success",
          "type": "bool"
        }
      ],
      "payable": false,
      "stateMutability": "nonpayable",
      "type": "function"
    },
    {
      "constant": true,
      "inputs": [
        {
          "name": "_owner",
          "type": "address"
        }
      ],
      "name": "balanceOf",
      "outputs": [
        {
          "name": "balance",
          "type": "uint256"
        }
      ],
      "payable": false,
      "stateMutability": "view",
      "type": "function"
    },
    {
      "constant": false,
      "inputs": [],
      "name": "pause",
      "outputs": [],
      "payable": false,
      "stateMutability": "nonpayable",
      "type": "function"
    },
    {
      "constant": true,
      "inputs": [],
      "name": "owner",
      "outputs": [
        {
          "name": "",
          "type": "address"
        }
      ],
      "payable": false,
      "stateMutability": "view",
      "type": "function"
    },
    {
      "constant": false,
      "inputs": [
        {
          "name": "_to",
          "type": "address"
        },
        {
          "name": "_value",
          "type": "uint256"
        }
      ],
      "name": "transfer",
      "outputs": [
        {
          "name": "",
          "type": "bool"
        }
      ],
      "payable": false,
      "stateMutability": "nonpayable",
      "type": "function"
    },
    {
      "constant": false,
      "inputs": [
        {
          "name": "_spender",
          "type": "address"
        },
        {
          "name": "_addedValue",
          "type": "uint256"
        }
      ],
      "name": "increaseApproval",
      "outputs": [
        {
          "name": "success",
          "type": "bool"
        }
      ],
      "payable": false,
      "stateMutability": "nonpayable",
      "type": "function"
    },
    {
      "constant": true,
      "inputs": [
        {
          "name": "_owner",
          "type": "address"
        },
        {
          "name": "_spender",
          "type": "address"
        }
      ],
      "name": "allowance",
      "outputs": [
        {
          "name": "remaining",
          "type": "uint256"
        }
      ],
      "payable": false,
      "stateMutability": "view",
      "type": "function"
    },
    {
      "constant": false,
      "inputs": [
        {
          "name": "newOwner",
          "type": "address"
        }
      ],
      "name": "transferOwnership",
      "outputs": [],
      "payable": false,
      "stateMutability": "nonpayable",
      "type": "function"
    },
    {
      "inputs": [
        {
          "name": "trustee1",
          "type": "address"
        },
        {
          "name": "trustee2",
          "type": "address"
        },
        {
          "name": "trustee3",
          "type": "address"
        }
      ],
      "payable": false,
      "stateMutability": "nonpayable",
      "type": "constructor"
    },
    {
      "anonymous": false,
      "inputs": [],
      "name": "Pause",
      "type": "event"
    },
    {
      "anonymous": false,
      "inputs": [],
      "name": "Unpause",
      "type": "event"
    },
    {
      "anonymous": false,
      "inputs": [
        {
          "indexed": true,
          "name": "previousOwner",
          "type": "address"
        },
        {
          "indexed": true,
          "name": "newOwner",
          "type": "address"
        }
      ],
      "name": "OwnershipTransferred",
      "type": "event"
    },
    {
      "anonymous": false,
      "inputs": [
        {
          "indexed": true,
          "name": "owner",
          "type": "address"
        },
        {
          "indexed": true,
          "name": "spender",
          "type": "address"
        },
        {
          "indexed": false,
          "name": "value",
          "type": "uint256"
        }
      ],
      "name": "Approval",
      "type": "event"
    },
    {
      "anonymous": false,
      "inputs": [
        {
          "indexed": true,
          "name": "from",
          "type": "address"
        },
        {
          "indexed": true,
          "name": "to",
          "type": "address"
        },
        {
          "indexed": false,
          "name": "value",
          "type": "uint256"
        }
      ],
      "name": "Transfer",
      "type": "event"
    },
    {
      "anonymous": false,
      "inputs": [
        {
          "indexed": false,
          "name": "app",
          "type": "address"
        },
        {
          "indexed": false,
          "name": "approver",
          "type": "address"
        }
      ],
      "name": "StartRequest",
      "type": "event"
    },
    {
      "anonymous": false,
      "inputs": [
        {
          "indexed": false,
          "name": "app",
          "type": "address"
        }
      ],
      "name": "Installed",
      "type": "event"
    },
    {
      "anonymous": false,
      "inputs": [
        {
          "indexed": false,
          "name": "app",
          "type": "address"
        },
        {
          "indexed": false,
          "name": "stopper",
          "type": "address"
        }
      ],
      "name": "StopRequest",
      "type": "event"
    },
    {
      "anonymous": false,
      "inputs": [
        {
          "indexed": false,
          "name": "app",
          "type": "address"
        }
      ],
      "name": "Uninstalled",
      "type": "event"
    },
    {
      "anonymous": false,
      "inputs": [
        {
          "indexed": false,
          "name": "board",
          "type": "address"
        }
      ],
      "name": "Board",
      "type": "event"
    },
    {
      "anonymous": false,
      "inputs": [
        {
          "indexed": false,
          "name": "board",
          "type": "address"
        }
      ],
      "name": "Revoked",
      "type": "event"
    },
    {
      "anonymous": false,
      "inputs": [
        {
          "indexed": false,
          "name": "nominee",
          "type": "address"
        },
        {
          "indexed": false,
          "name": "nominator",
          "type": "address"
        }
      ],
      "name": "Nominated",
      "type": "event"
    },
    {
      "anonymous": false,
      "inputs": [
        {
          "indexed": false,
          "name": "denouncee",
          "type": "address"
        },
        {
          "indexed": false,
          "name": "denouncer",
          "type": "address"
        }
      ],
      "name": "Denounced",
      "type": "event"
    },
    {
      "constant": false,
      "inputs": [
        {
          "name": "_from",
          "type": "address"
        },
        {
          "name": "_to",
          "type": "address"
        },
        {
          "name": "_value",
          "type": "uint256"
        }
      ],
      "name": "appTransfer",
      "outputs": [],
      "payable": false,
      "stateMutability": "nonpayable",
      "type": "function"
    },
    {
      "constant": true,
      "inputs": [
        {
          "name": "_app",
          "type": "address"
        }
      ],
      "name": "installed",
      "outputs": [
        {
          "name": "",
          "type": "bool"
        }
      ],
      "payable": false,
      "stateMutability": "view",
      "type": "function"
    },
    {
      "constant": false,
      "inputs": [
        {
          "name": "_board",
          "type": "address"
        }
      ],
      "name": "nominate",
      "outputs": [],
      "payable": false,
      "stateMutability": "nonpayable",
      "type": "function"
    },
    {
      "constant": false,
      "inputs": [
        {
          "name": "_board",
          "type": "address"
        }
      ],
      "name": "revoke",
      "outputs": [],
      "payable": false,
      "stateMutability": "nonpayable",
      "type": "function"
    },
    {
      "constant": false,
      "inputs": [
        {
          "name": "_app",
          "type": "address"
        }
      ],
      "name": "install",
      "outputs": [],
      "payable": false,
      "stateMutability": "nonpayable",
      "type": "function"
    },
    {
      "constant": false,
      "inputs": [
        {
          "name": "_app",
          "type": "address"
        }
      ],
      "name": "uninstall",
      "outputs": [],
      "payable": false,
      "stateMutability": "nonpayable",
      "type": "function"
    }
  ],
  "bytecode": "0x60806040526003805460a060020a60ff021916905534801561002057600080fd5b5060405160608061132783398101604081815282516020808501519483015160038054600160a060020a03191633179055600160a060020a03808416600081815260048552868120805460ff199081166002908117909255848b168352888320805482168317905593851682529087902080549093161790915585529251919493600080516020611307833981519152929081900390910190a160408051600160a060020a038416815290516000805160206113078339815191529181900360200190a160408051600160a060020a038316815290516000805160206113078339815191529181900360200190a150506b033b2e3c9fd0803ce8000000600081815533815260016020526040902055506111c88061013f6000396000f3006080604052600436106101065763ffffffff7c0100000000000000000000000000000000000000000000000000000000600035041663095ea7b3811461010b57806318160ddd1461014357806323b872dd1461016a5780632a1b8f9b146101945780632aaa68cd146101b75780633f4ba83a146101e157806359bc2249146101f65780635c975abb14610217578063661884631461022c57806370a082311461025057806374a8f103146102715780638456cb59146102925780638da5cb5b146102a7578063a9059cbb146102d8578063b332180b146102fc578063d73dd6231461031d578063dd62ed3e14610341578063f02900bf14610368578063f2fde38b14610389575b600080fd5b34801561011757600080fd5b5061012f600160a060020a03600435166024356103aa565b604080519115158252519081900360200190f35b34801561014f57600080fd5b506101586103e6565b60408051918252519081900360200190f35b34801561017657600080fd5b5061012f600160a060020a03600435811690602435166044356103ec565b3480156101a057600080fd5b506101b5600160a060020a036004351661042a565b005b3480156101c357600080fd5b506101b5600160a060020a0360043581169060243516604435610588565b3480156101ed57600080fd5b506101b5610694565b34801561020257600080fd5b506101b5600160a060020a036004351661071d565b34801561022357600080fd5b5061012f61088b565b34801561023857600080fd5b5061012f600160a060020a03600435166024356108ac565b34801561025c57600080fd5b50610158600160a060020a03600435166108e1565b34801561027d57600080fd5b506101b5600160a060020a03600435166108fc565b34801561029e57600080fd5b506101b5610a69565b3480156102b357600080fd5b506102bc610b08565b60408051600160a060020a039092168252519081900360200190f35b3480156102e457600080fd5b5061012f600160a060020a0360043516602435610b17565b34801561030857600080fd5b506101b5600160a060020a0360043516610b4c565b34801561032957600080fd5b5061012f600160a060020a0360043516602435610c8e565b34801561034d57600080fd5b50610158600160a060020a0360043581169060243516610cc3565b34801561037457600080fd5b5061012f600160a060020a0360043516610cee565b34801561039557600080fd5b506101b5600160a060020a0360043516610d0e565b60035460009074010000000000000000000000000000000000000000900460ff16156103d557600080fd5b6103df8383610da3565b9392505050565b60005481565b60035460009074010000000000000000000000000000000000000000900460ff161561041757600080fd5b610422848484610e09565b949350505050565b336000908152600460205260408120548190600216151561044a57600080fd5b600160a060020a038316600090815260046020526040902080549092506001161561047457610583565b81546101009004600160a060020a031633141561049057610583565b60408051600160a060020a038516815233602082015281517f80ab95d1965a5efca6615e2000b9fe318d405ac21a211df480ff08d7290a4f07929181900390910190a181546101009004600160a060020a0316600090815260046020526040902054600216151561052257815474ffffffffffffffffffffffffffffffffffffffff0019163361010002178255610583565b50813b6000811161053257600080fd5b815460ff8082166001171660ff1990911617825560408051600160a060020a038516815290517f07fb6870e0f01ad7e4f2d6b1bcfc72edd0d1d8c4982569c8cb8bd79b9c0876749181900360200190a15b505050565b61059133610cee565b151561059c57600080fd5b60035474010000000000000000000000000000000000000000900460ff16156105c457600080fd5b68056bc75e2d631000008111156105da57600080fd5b600160a060020a038316600090815260016020526040902054610603908263ffffffff610f2b16565b600160a060020a038085166000908152600160205260408082209390935590841681522054610638908263ffffffff610f3d16565b600160a060020a0380841660008181526001602090815260409182902094909455805185815290519193928716927fddf252ad1be2c89b69c2b068fc378daa952ba7f163c4a11628f55a4df523b3ef92918290030190a3505050565b600354600160a060020a031633146106ab57600080fd5b60035474010000000000000000000000000000000000000000900460ff1615156106d457600080fd5b6003805474ff0000000000000000000000000000000000000000191690556040517f7805862f689e2f13df9f062ff482ad3ad112aca9e0847911ed832e158c525b3390600090a1565b33600090815260046020526040812054600216151561073b57600080fd5b50600160a060020a03808216600090815260046020526040902080549091610100909104161561078257805474ffffffffffffffffffffffffffffffffffffffff00191681555b8054600116151561079257610887565b6001810154600160a060020a03163314156107ac57610887565b60408051600160a060020a038416815233602082015281517f907c0e95d6f0f3011107f134bdbb16d2933db6d8708df09e79318ea9629429fe929181900390910190a16001810154600160a060020a0316600090815260046020526040902054600216151561083b5760018101805473ffffffffffffffffffffffffffffffffffffffff191633179055610887565b805460ff19811660fe90911617815560408051600160a060020a038416815290517f9cb86cc95d6eac716bbb27ee1a1d43a60e71c7965292b8da04a923e29ed93c629181900360200190a15b5050565b60035474010000000000000000000000000000000000000000900460ff1681565b60035460009074010000000000000000000000000000000000000000900460ff16156108d757600080fd5b6103df8383610f4c565b600160a060020a031660009081526001602052604090205490565b33600090815260046020526040812054600216151561091a57600080fd5b50600160a060020a0380821660009081526004602052604090206002810154909116156109615760028101805473ffffffffffffffffffffffffffffffffffffffff191690555b8054600216151561097157610887565b6003810154600160a060020a031633141561098b57610887565b60408051600160a060020a038416815233602082015281517f55faf8e51ab442f8d8510476317b2e313144c3db60adc284affef64140fe8552929181900390910190a16003810154600160a060020a03166000908152600460205260409020546002161515610a1a5760038101805473ffffffffffffffffffffffffffffffffffffffff191633179055610887565b805460ff19811660fd90911617815560408051600160a060020a038416815290517fb6fa8b8bd5eab60f292eca876e3ef90722275b785309d84b1de113ce0b8c4e749181900360200190a15050565b600354600160a060020a03163314610a8057600080fd5b60035474010000000000000000000000000000000000000000900460ff1615610aa857600080fd5b6003805474ff00000000000000000000000000000000000000001916740100000000000000000000000000000000000000001790556040517f6985a02210a168e66602d3235cb6db0e70f92b3ba4d376a33c0f3d9434bff62590600090a1565b600354600160a060020a031681565b60035460009074010000000000000000000000000000000000000000900460ff1615610b4257600080fd5b6103df838361103c565b336000908152600460205260408120546002161515610b6a57600080fd5b50600160a060020a0381166000908152600460205260409020805460021615610b9257610887565b6002810154600160a060020a0316331415610bac57610887565b60408051600160a060020a038416815233602082015281517f3ce7d0c04d2ef9adf7825b41aa982b376bd65267c91603077653811dcce94b74929181900390910190a1600281810154600160a060020a0316600090815260046020526040902054161515610c3a5760028101805473ffffffffffffffffffffffffffffffffffffffff191633179055610887565b805460ff8082166002171660ff1990911617815560408051600160a060020a038416815290517f178407cae5375558cd8030fb8b73bfce971b88244c1990eb3eee1cd7cb9441c69181900360200190a15050565b60035460009074010000000000000000000000000000000000000000900460ff1615610cb957600080fd5b6103df8383611103565b600160a060020a03918216600090815260026020908152604080832093909416825291909152205490565b600160a060020a0316600090815260046020526040902054600116151590565b600354600160a060020a03163314610d2557600080fd5b600160a060020a0381161515610d3a57600080fd5b600354604051600160a060020a038084169216907f8be0079c531659141344cd1fd0a4f28419497f9722a3daafe3b4186f6b6457e090600090a36003805473ffffffffffffffffffffffffffffffffffffffff1916600160a060020a0392909216919091179055565b336000818152600260209081526040808320600160a060020a038716808552908352818420869055815186815291519394909390927f8c5be1e5ebec7d5bd14f71427d1e84f3dd0314c0f7b2291e5b200ac8c7c3b925928290030190a350600192915050565b600080600160a060020a0384161515610e2157600080fd5b50600160a060020a03841660008181526002602090815260408083203384528252808320549383526001909152902054610e61908463ffffffff610f2b16565b600160a060020a038087166000908152600160205260408082209390935590861681522054610e96908463ffffffff610f3d16565b600160a060020a038516600090815260016020526040902055610ebf818463ffffffff610f2b16565b600160a060020a03808716600081815260026020908152604080832033845282529182902094909455805187815290519288169391927fddf252ad1be2c89b69c2b068fc378daa952ba7f163c4a11628f55a4df523b3ef929181900390910190a3506001949350505050565b600082821115610f3757fe5b50900390565b6000828201838110156103df57fe5b336000908152600260209081526040808320600160a060020a038616845290915281205480831115610fa157336000908152600260209081526040808320600160a060020a0388168452909152812055610fd6565b610fb1818463ffffffff610f2b16565b336000908152600260209081526040808320600160a060020a03891684529091529020555b336000818152600260209081526040808320600160a060020a0389168085529083529281902054815190815290519293927f8c5be1e5ebec7d5bd14f71427d1e84f3dd0314c0f7b2291e5b200ac8c7c3b925929181900390910190a35060019392505050565b6000600160a060020a038316151561105357600080fd5b33600090815260016020526040902054611073908363ffffffff610f2b16565b3360009081526001602052604080822092909255600160a060020a038516815220546110a5908363ffffffff610f3d16565b600160a060020a0384166000818152600160209081526040918290209390935580518581529051919233927fddf252ad1be2c89b69c2b068fc378daa952ba7f163c4a11628f55a4df523b3ef9281900390910190a350600192915050565b336000908152600260209081526040808320600160a060020a0386168452909152812054611137908363ffffffff610f3d16565b336000818152600260209081526040808320600160a060020a0389168085529083529281902085905580519485525191937f8c5be1e5ebec7d5bd14f71427d1e84f3dd0314c0f7b2291e5b200ac8c7c3b925929081900390910190a3506001929150505600a165627a7a7230582032cc14a143633dfebda1c716694217200f7233c12328b7472ee8e8561796e5850029178407cae5375558cd8030fb8b73bfce971b88244c1990eb3eee1cd7cb9441c6",
  "source": "/*\n  Copyright 2018 Menlo, Inc.\n\n  Licensed under the Apache License, Version 2.0 (the “License”);\n  you may not use this file except in compliance with the License.\n  You may obtain a copy of the License at\n\n  http://www.apache.org/licenses/LICENSE-2.0\n\n  Unless required by applicable law or agreed to in writing, software\n  distributed under the License is distributed on an “AS IS” BASIS,\n  WITHOUT WARRANTIES OR CONDITIONS OF ANY KIND, either express or implied.\n  See the License for the specific language governing permissions and\n  limitations under the License.\n*/\npragma solidity^0.4.18;\n\nimport 'zeppelin-solidity/contracts/token/PausableToken.sol';\n/*\n/ installed apps are cheaper on gas than approve/transferFrom because they require fewer SSTOREs\n/\n/ app installation works with a simple trustee system that assumes no two trustees would collude to rob token holders\n/ the trustee system relies on mutual distrust\n/ trustees should not:\n/ * nominate(0x0)\n/   - boarding 0x0 gives unilateral authority to all remaining board members\n/   - the second board member to nominate 0x0 is the first with unilateral authority, so colluding is uneconomic\n/   - if someone nominates 0x0, you must immediately revoke(0x0) and denounce the malicious party\n/ * let an individual control two trustee accounts\n/   - an individual with two accounts has unilateral power\n/   - if someone loses their key, revoke the initial account before issuing another\n/ * nominate an app before that app finishes third-party auditing\n/   - malicious applications can spam microtransactions to steal tokens\n/ * let the number of living trustees fall below 3\n/   - death is unpredictable\n/   - an individual trustee is powerless\n/ the trustee system is trustful and should be replaced\n/ to fully-replace the trustee system with a new governing contract:\n/ * a.nominate(replacement)\n/ * b.nominate(replacement)\n/ * a.nominate(0x0)\n/ * replacement.nominate(0x0)\n/ * replacement.denounce(a)\n/ * replacement.denounce(b)\n*/\ncontract AppTokenEvents {\n    event StartRequest(address app, address approver);\n    event Installed(address app);\n    event StopRequest(address app, address stopper);\n    event Uninstalled(address app);\n    event Board(address board);\n    event Revoked(address board);\n    event Nominated(address nominee, address nominator);\n    event Denounced(address denouncee, address denouncer);\n}\ncontract AppToken is AppTokenEvents,PausableToken {\n    // Permissions Bitmap:\n    uint8 constant INSTALLED = 1;\n    uint8 constant BOARD = 2;\n\n    mapping (address => Account) accounts;\n    struct Account {\n        uint8 permissions;\n        address installer;\n        address stopper;\n        address nominator;\n        address denouncer;\n    }\n\n    function appTransfer(address _from, address _to, uint256 _value) external onlyInstalled whenNotPaused {\n        // microtransactions only\n        require(_value <= 100 ether);\n\n        balances[_from] = balances[_from].sub(_value);\n        balances[_to] = balances[_to].add(_value);\n        Transfer(_from, _to, _value);\n    }\n\n    function AppToken(address trustee1, address trustee2, address trustee3) public {\n        accounts[trustee1].permissions = BOARD;\n        accounts[trustee2].permissions = BOARD;\n        accounts[trustee3].permissions = BOARD;\n        Board(trustee1);\n        Board(trustee2);\n        Board(trustee3);\n        totalSupply = 1000000000 ether;\n        balances[msg.sender] = totalSupply;\n    }\n\n    function installed(address _app) public view returns (bool) {\n        return accounts[_app].permissions & INSTALLED != 0;\n    }\n\n    modifier onlyInstalled {\n        require(installed(msg.sender));\n        _;\n    }\n\n    modifier onlyBoard {\n        require(accounts[msg.sender].permissions & BOARD != 0);\n        _;\n    }\n\n    function nominate(address _board) external onlyBoard {\n        Account storage nominee = accounts[_board];\n        if (nominee.permissions & BOARD != 0) {\n            return;\n        }\n        if (nominee.nominator == msg.sender) {\n            return;\n        }\n        Nominated(_board, msg.sender);\n        if (accounts[nominee.nominator].permissions & BOARD == 0) {\n            nominee.nominator = msg.sender;\n            return;\n        }\n        nominee.permissions |= BOARD;\n        Board(_board);\n    }\n\n    function revoke(address _board) external onlyBoard {\n        Account storage denounced = accounts[_board];\n        if (denounced.nominator != 0) {\n            denounced.nominator = 0;\n        }\n        if (denounced.permissions & BOARD == 0) {\n            return;\n        }\n        if (denounced.denouncer == msg.sender) {\n            return;\n        }\n        Denounced(_board, msg.sender);\n        if (accounts[denounced.denouncer].permissions & BOARD == 0) {\n            denounced.denouncer = msg.sender;\n            return;\n        }\n        denounced.permissions &= ~BOARD;\n        Revoked(_board);\n    }\n\n    function install(address _app) external onlyBoard {\n        Account storage application = accounts[_app];\n        if (application.permissions & INSTALLED != 0) {\n            return;\n        }\n        if (application.installer == msg.sender) {\n            return;\n        }\n        StartRequest(_app, msg.sender);\n        if (accounts[application.installer].permissions & BOARD == 0) {\n            application.installer = msg.sender;\n            return;\n        }\n        uint256 size;\n        assembly {\n            size := extcodesize(_app)\n        }\n        require(size > 0);\n        application.permissions |= INSTALLED;\n        Installed(_app);\n    }\n    function uninstall(address _app) external onlyBoard {\n        Account storage application = accounts[_app];\n        if (application.installer != 0) {\n            application.installer = 0;\n        }\n        if (application.permissions & INSTALLED == 0) {\n            return;\n        }\n        if (application.stopper == msg.sender) {\n            return;\n        }\n        StopRequest(_app, msg.sender);\n        if (accounts[application.stopper].permissions & BOARD == 0) {\n            application.stopper = msg.sender;\n            return;\n        }\n        application.permissions &= ~INSTALLED;\n        Uninstalled(_app);\n    }\n}\n",
  "sourcePath": "/Users/dave/Code/townhall-ui/contracts/AppToken.sol",
  "compiler": {
    "name": "solc",
    "version": "0.4.24+commit.e67f0147.Emscripten.clang"
  },
  "schemaVersion": "2.0.1",
  "updatedAt": "2018-06-30T07:53:20.475Z"
}