{
  "contractName": "DSStop",
  "abi": [
    {
      "constant": false,
      "inputs": [
        {
          "name": "owner_",
          "type": "address"
        }
      ],
      "name": "setOwner",
      "outputs": [],
      "payable": false,
      "stateMutability": "nonpayable",
      "type": "function"
    },
    {
      "constant": true,
      "inputs": [],
      "name": "stopped",
      "outputs": [
        {
          "name": "",
          "type": "bool"
        }
      ],
      "payable": false,
      "stateMutability": "view",
      "type": "function"
    },
    {
      "constant": false,
      "inputs": [
        {
          "name": "authority_",
          "type": "address"
        }
      ],
      "name": "setAuthority",
      "outputs": [],
      "payable": false,
      "stateMutability": "nonpayable",
      "type": "function"
    },
    {
      "constant": true,
      "inputs": [],
      "name": "owner",
      "outputs": [
        {
          "name": "",
          "type": "address"
        }
      ],
      "payable": false,
      "stateMutability": "view",
      "type": "function"
    },
    {
      "constant": true,
      "inputs": [],
      "name": "authority",
      "outputs": [
        {
          "name": "",
          "type": "address"
        }
      ],
      "payable": false,
      "stateMutability": "view",
      "type": "function"
    },
    {
      "anonymous": false,
      "inputs": [
        {
          "indexed": true,
          "name": "authority",
          "type": "address"
        }
      ],
      "name": "LogSetAuthority",
      "type": "event"
    },
    {
      "anonymous": false,
      "inputs": [
        {
          "indexed": true,
          "name": "owner",
          "type": "address"
        }
      ],
      "name": "LogSetOwner",
      "type": "event"
    },
    {
      "anonymous": true,
      "inputs": [
        {
          "indexed": true,
          "name": "sig",
          "type": "bytes4"
        },
        {
          "indexed": true,
          "name": "guy",
          "type": "address"
        },
        {
          "indexed": true,
          "name": "foo",
          "type": "bytes32"
        },
        {
          "indexed": true,
          "name": "bar",
          "type": "bytes32"
        },
        {
          "indexed": false,
          "name": "wad",
          "type": "uint256"
        },
        {
          "indexed": false,
          "name": "fax",
          "type": "bytes"
        }
      ],
      "name": "LogNote",
      "type": "event"
    },
    {
      "constant": false,
      "inputs": [],
      "name": "stop",
      "outputs": [],
      "payable": false,
      "stateMutability": "nonpayable",
      "type": "function"
    },
    {
      "constant": false,
      "inputs": [],
      "name": "start",
      "outputs": [],
      "payable": false,
      "stateMutability": "nonpayable",
      "type": "function"
    }
  ],
  "bytecode": "0x6060604090815260018054600160a060020a03191633600160a060020a0316908117909155907fce241d7ca1f669fee44b6fc00b8eba2df3bb514eed0f6f668f8f89096e81ed94905160405180910390a261065e8061005f6000396000f3006060604052600436106100825763ffffffff7c010000000000000000000000000000000000000000000000000000000060003504166307da68f5811461008757806313af40351461009c57806375f12b21146100c85780637a9e5e4b146100ef5780638da5cb5b1461011b578063be9a655514610157578063bf7e214f1461016a575b600080fd5b341561009257600080fd5b61009a61017d565b005b34156100a757600080fd5b61009a73ffffffffffffffffffffffffffffffffffffffff60043516610264565b34156100d357600080fd5b6100db610305565b604051901515815260200160405180910390f35b34156100fa57600080fd5b61009a73ffffffffffffffffffffffffffffffffffffffff60043516610326565b341561012657600080fd5b61012e6103c7565b60405173ffffffffffffffffffffffffffffffffffffffff909116815260200160405180910390f35b341561016257600080fd5b61009a6103e3565b341561017557600080fd5b61012e6104b3565b6101a8336000357bffffffffffffffffffffffffffffffffffffffffffffffffffffffff19166104cf565b15156101b357600080fd5b60043560243580823373ffffffffffffffffffffffffffffffffffffffff16600080357bffffffffffffffffffffffffffffffffffffffffffffffffffffffff19169034903660405183815260406020820181815290820183905260608201848480828437820191505094505050505060405180910390a450506001805474ff0000000000000000000000000000000000000000191674010000000000000000000000000000000000000000179055565b61028f336000357bffffffffffffffffffffffffffffffffffffffffffffffffffffffff19166104cf565b151561029a57600080fd5b6001805473ffffffffffffffffffffffffffffffffffffffff191673ffffffffffffffffffffffffffffffffffffffff8381169190911791829055167fce241d7ca1f669fee44b6fc00b8eba2df3bb514eed0f6f668f8f89096e81ed9460405160405180910390a250565b60015474010000000000000000000000000000000000000000900460ff1681565b610351336000357bffffffffffffffffffffffffffffffffffffffffffffffffffffffff19166104cf565b151561035c57600080fd5b6000805473ffffffffffffffffffffffffffffffffffffffff191673ffffffffffffffffffffffffffffffffffffffff8381169190911791829055167f1abebea81bfa2637f28358c371278fb15ede7ea8dd28d2e03b112ff6d936ada460405160405180910390a250565b60015473ffffffffffffffffffffffffffffffffffffffff1681565b61040e336000357bffffffffffffffffffffffffffffffffffffffffffffffffffffffff19166104cf565b151561041957600080fd5b60043560243580823373ffffffffffffffffffffffffffffffffffffffff16600080357bffffffffffffffffffffffffffffffffffffffffffffffffffffffff19169034903660405183815260406020820181815290820183905260608201848480828437820191505094505050505060405180910390a450506001805474ff000000000000000000000000000000000000000019169055565b60005473ffffffffffffffffffffffffffffffffffffffff1681565b60003073ffffffffffffffffffffffffffffffffffffffff168373ffffffffffffffffffffffffffffffffffffffff16141561050d5750600161062c565b60015473ffffffffffffffffffffffffffffffffffffffff848116911614156105385750600161062c565b60005473ffffffffffffffffffffffffffffffffffffffff16151561055f5750600061062c565b60005473ffffffffffffffffffffffffffffffffffffffff1663b70096138430856040517c010000000000000000000000000000000000000000000000000000000063ffffffff861602815273ffffffffffffffffffffffffffffffffffffffff93841660048201529190921660248201527bffffffffffffffffffffffffffffffffffffffffffffffffffffffff199091166044820152606401602060405180830381600087803b151561061357600080fd5b5af1151561062057600080fd5b50505060405180519150505b929150505600a165627a7a723058200bf6a6600c0e884fd1a1c110285057fdc79e4df97c793f71cc4757d01baaa2510029",
  "source": "/// stop.sol -- mixin for enable/disable functionality\n\n// Copyright (C) 2017  DappHub, LLC\n\n// This program is free software: you can redistribute it and/or modify\n// it under the terms of the GNU General Public License as published by\n// the Free Software Foundation, either version 3 of the License, or\n// (at your option) any later version.\n\n// This program is distributed in the hope that it will be useful,\n// but WITHOUT ANY WARRANTY; without even the implied warranty of\n// MERCHANTABILITY or FITNESS FOR A PARTICULAR PURPOSE.  See the\n// GNU General Public License for more details.\n\n// You should have received a copy of the GNU General Public License\n// along with this program.  If not, see <http://www.gnu.org/licenses/>.\n\npragma solidity ^0.4.13;\n\nimport \"ds-auth/auth.sol\";\nimport \"ds-note/note.sol\";\n\ncontract DSStop is DSNote, DSAuth {\n\n    bool public stopped;\n\n    modifier stoppable {\n        require(!stopped);\n        _;\n    }\n    function stop() public auth note {\n        stopped = true;\n    }\n    function start() public auth note {\n        stopped = false;\n    }\n\n}\n",
  "sourcePath": "ds-stop/stop.sol",
  "compiler": {
    "name": "solc",
    "version": "0.4.21+commit.dfe3193c.Emscripten.clang"
  },
  "schemaVersion": "2.0.0",
  "updatedAt": "2018-05-24T19:17:42.467Z"
}