{
  "contractName": "DSToken",
  "abi": [
    {
      "constant": true,
      "inputs": [],
      "name": "name",
      "outputs": [
        {
          "name": "",
          "type": "bytes32"
        }
      ],
      "payable": false,
      "stateMutability": "view",
      "type": "function"
    },
    {
      "constant": false,
      "inputs": [],
      "name": "stop",
      "outputs": [],
      "payable": false,
      "stateMutability": "nonpayable",
      "type": "function"
    },
    {
      "constant": false,
      "inputs": [
        {
          "name": "owner_",
          "type": "address"
        }
      ],
      "name": "setOwner",
      "outputs": [],
      "payable": false,
      "stateMutability": "nonpayable",
      "type": "function"
    },
    {
      "constant": true,
      "inputs": [],
      "name": "totalSupply",
      "outputs": [
        {
          "name": "",
          "type": "uint256"
        }
      ],
      "payable": false,
      "stateMutability": "view",
      "type": "function"
    },
    {
      "constant": true,
      "inputs": [],
      "name": "decimals",
      "outputs": [
        {
          "name": "",
          "type": "uint256"
        }
      ],
      "payable": false,
      "stateMutability": "view",
      "type": "function"
    },
    {
      "constant": true,
      "inputs": [
        {
          "name": "src",
          "type": "address"
        }
      ],
      "name": "balanceOf",
      "outputs": [
        {
          "name": "",
          "type": "uint256"
        }
      ],
      "payable": false,
      "stateMutability": "view",
      "type": "function"
    },
    {
      "constant": true,
      "inputs": [],
      "name": "stopped",
      "outputs": [
        {
          "name": "",
          "type": "bool"
        }
      ],
      "payable": false,
      "stateMutability": "view",
      "type": "function"
    },
    {
      "constant": false,
      "inputs": [
        {
          "name": "authority_",
          "type": "address"
        }
      ],
      "name": "setAuthority",
      "outputs": [],
      "payable": false,
      "stateMutability": "nonpayable",
      "type": "function"
    },
    {
      "constant": true,
      "inputs": [],
      "name": "owner",
      "outputs": [
        {
          "name": "",
          "type": "address"
        }
      ],
      "payable": false,
      "stateMutability": "view",
      "type": "function"
    },
    {
      "constant": true,
      "inputs": [],
      "name": "symbol",
      "outputs": [
        {
          "name": "",
          "type": "bytes32"
        }
      ],
      "payable": false,
      "stateMutability": "view",
      "type": "function"
    },
    {
      "constant": false,
      "inputs": [
        {
          "name": "dst",
          "type": "address"
        },
        {
          "name": "wad",
          "type": "uint256"
        }
      ],
      "name": "transfer",
      "outputs": [
        {
          "name": "",
          "type": "bool"
        }
      ],
      "payable": false,
      "stateMutability": "nonpayable",
      "type": "function"
    },
    {
      "constant": false,
      "inputs": [],
      "name": "start",
      "outputs": [],
      "payable": false,
      "stateMutability": "nonpayable",
      "type": "function"
    },
    {
      "constant": true,
      "inputs": [],
      "name": "authority",
      "outputs": [
        {
          "name": "",
          "type": "address"
        }
      ],
      "payable": false,
      "stateMutability": "view",
      "type": "function"
    },
    {
      "constant": true,
      "inputs": [
        {
          "name": "src",
          "type": "address"
        },
        {
          "name": "guy",
          "type": "address"
        }
      ],
      "name": "allowance",
      "outputs": [
        {
          "name": "",
          "type": "uint256"
        }
      ],
      "payable": false,
      "stateMutability": "view",
      "type": "function"
    },
    {
      "inputs": [
        {
          "name": "symbol_",
          "type": "bytes32"
        }
      ],
      "payable": false,
      "stateMutability": "nonpayable",
      "type": "constructor"
    },
    {
      "anonymous": false,
      "inputs": [
        {
          "indexed": true,
          "name": "guy",
          "type": "address"
        },
        {
          "indexed": false,
          "name": "wad",
          "type": "uint256"
        }
      ],
      "name": "Mint",
      "type": "event"
    },
    {
      "anonymous": false,
      "inputs": [
        {
          "indexed": true,
          "name": "guy",
          "type": "address"
        },
        {
          "indexed": false,
          "name": "wad",
          "type": "uint256"
        }
      ],
      "name": "Burn",
      "type": "event"
    },
    {
      "anonymous": false,
      "inputs": [
        {
          "indexed": true,
          "name": "authority",
          "type": "address"
        }
      ],
      "name": "LogSetAuthority",
      "type": "event"
    },
    {
      "anonymous": false,
      "inputs": [
        {
          "indexed": true,
          "name": "owner",
          "type": "address"
        }
      ],
      "name": "LogSetOwner",
      "type": "event"
    },
    {
      "anonymous": true,
      "inputs": [
        {
          "indexed": true,
          "name": "sig",
          "type": "bytes4"
        },
        {
          "indexed": true,
          "name": "guy",
          "type": "address"
        },
        {
          "indexed": true,
          "name": "foo",
          "type": "bytes32"
        },
        {
          "indexed": true,
          "name": "bar",
          "type": "bytes32"
        },
        {
          "indexed": false,
          "name": "wad",
          "type": "uint256"
        },
        {
          "indexed": false,
          "name": "fax",
          "type": "bytes"
        }
      ],
      "name": "LogNote",
      "type": "event"
    },
    {
      "anonymous": false,
      "inputs": [
        {
          "indexed": true,
          "name": "src",
          "type": "address"
        },
        {
          "indexed": true,
          "name": "guy",
          "type": "address"
        },
        {
          "indexed": false,
          "name": "wad",
          "type": "uint256"
        }
      ],
      "name": "Approval",
      "type": "event"
    },
    {
      "anonymous": false,
      "inputs": [
        {
          "indexed": true,
          "name": "src",
          "type": "address"
        },
        {
          "indexed": true,
          "name": "dst",
          "type": "address"
        },
        {
          "indexed": false,
          "name": "wad",
          "type": "uint256"
        }
      ],
      "name": "Transfer",
      "type": "event"
    },
    {
      "constant": false,
      "inputs": [
        {
          "name": "guy",
          "type": "address"
        },
        {
          "name": "wad",
          "type": "uint256"
        }
      ],
      "name": "approve",
      "outputs": [
        {
          "name": "",
          "type": "bool"
        }
      ],
      "payable": false,
      "stateMutability": "nonpayable",
      "type": "function"
    },
    {
      "constant": false,
      "inputs": [
        {
          "name": "guy",
          "type": "address"
        }
      ],
      "name": "approve",
      "outputs": [
        {
          "name": "",
          "type": "bool"
        }
      ],
      "payable": false,
      "stateMutability": "nonpayable",
      "type": "function"
    },
    {
      "constant": false,
      "inputs": [
        {
          "name": "src",
          "type": "address"
        },
        {
          "name": "dst",
          "type": "address"
        },
        {
          "name": "wad",
          "type": "uint256"
        }
      ],
      "name": "transferFrom",
      "outputs": [
        {
          "name": "",
          "type": "bool"
        }
      ],
      "payable": false,
      "stateMutability": "nonpayable",
      "type": "function"
    },
    {
      "constant": false,
      "inputs": [
        {
          "name": "dst",
          "type": "address"
        },
        {
          "name": "wad",
          "type": "uint256"
        }
      ],
      "name": "push",
      "outputs": [],
      "payable": false,
      "stateMutability": "nonpayable",
      "type": "function"
    },
    {
      "constant": false,
      "inputs": [
        {
          "name": "src",
          "type": "address"
        },
        {
          "name": "wad",
          "type": "uint256"
        }
      ],
      "name": "pull",
      "outputs": [],
      "payable": false,
      "stateMutability": "nonpayable",
      "type": "function"
    },
    {
      "constant": false,
      "inputs": [
        {
          "name": "src",
          "type": "address"
        },
        {
          "name": "dst",
          "type": "address"
        },
        {
          "name": "wad",
          "type": "uint256"
        }
      ],
      "name": "move",
      "outputs": [],
      "payable": false,
      "stateMutability": "nonpayable",
      "type": "function"
    },
    {
      "constant": false,
      "inputs": [
        {
          "name": "wad",
          "type": "uint256"
        }
      ],
      "name": "mint",
      "outputs": [],
      "payable": false,
      "stateMutability": "nonpayable",
      "type": "function"
    },
    {
      "constant": false,
      "inputs": [
        {
          "name": "guy",
          "type": "address"
        },
        {
          "name": "wad",
          "type": "uint256"
        }
      ],
      "name": "mint",
      "outputs": [],
      "payable": false,
      "stateMutability": "nonpayable",
      "type": "function"
    },
    {
      "constant": false,
      "inputs": [
        {
          "name": "wad",
          "type": "uint256"
        }
      ],
      "name": "burn",
      "outputs": [],
      "payable": false,
      "stateMutability": "nonpayable",
      "type": "function"
    },
    {
      "constant": false,
      "inputs": [
        {
          "name": "guy",
          "type": "address"
        },
        {
          "name": "wad",
          "type": "uint256"
        }
      ],
      "name": "burn",
      "outputs": [],
      "payable": false,
      "stateMutability": "nonpayable",
      "type": "function"
    },
    {
      "constant": false,
      "inputs": [
        {
          "name": "name_",
          "type": "bytes32"
        }
      ],
      "name": "setName",
      "outputs": [],
      "payable": false,
      "stateMutability": "nonpayable",
      "type": "function"
    }
  ],
  "bytecode": "0x606060405260126006556000600755341561001957600080fd5b604051602080610e9883398101604052808051600160a060020a03331660008181526001602052604080822082905590805560048054600160a060020a0319168317905591935091507fce241d7ca1f669fee44b6fc00b8eba2df3bb514eed0f6f668f8f89096e81ed94905160405180910390a2600555610df98061009f6000396000f3006060604052600436106101485763ffffffff7c010000000000000000000000000000000000000000000000000000000060003504166306fdde03811461014d57806307da68f514610172578063095ea7b31461018757806313af4035146101bd57806318160ddd146101dc57806323b872dd146101ef578063313ce5671461021757806340c10f191461022a57806342966c681461024c5780635ac801fe1461026257806370a082311461027857806375f12b21146102975780637a9e5e4b146102aa5780638da5cb5b146102c957806395d89b41146102f85780639dc29fac1461030b578063a0712d681461032d578063a9059cbb14610343578063b753a98c14610365578063bb35783b14610387578063be9a6555146103af578063bf7e214f146103c2578063daea85c5146103d5578063dd62ed3e146103f4578063f2d5d56b14610419575b600080fd5b341561015857600080fd5b61016061043b565b60405190815260200160405180910390f35b341561017d57600080fd5b610185610441565b005b341561019257600080fd5b6101a9600160a060020a03600435166024356104fd565b604051901515815260200160405180910390f35b34156101c857600080fd5b610185600160a060020a036004351661053b565b34156101e757600080fd5b6101606105c0565b34156101fa57600080fd5b6101a9600160a060020a03600435811690602435166044356105c6565b341561022257600080fd5b61016061074c565b341561023557600080fd5b610185600160a060020a0360043516602435610752565b341561025757600080fd5b61018560043561082f565b341561026d57600080fd5b61018560043561083c565b341561028357600080fd5b610160600160a060020a0360043516610868565b34156102a257600080fd5b6101a9610883565b34156102b557600080fd5b610185600160a060020a03600435166108a4565b34156102d457600080fd5b6102dc610929565b604051600160a060020a03909116815260200160405180910390f35b341561030357600080fd5b610160610938565b341561031657600080fd5b610185600160a060020a036004351660243561093e565b341561033857600080fd5b610185600435610ac3565b341561034e57600080fd5b6101a9600160a060020a0360043516602435610acd565b341561037057600080fd5b610185600160a060020a0360043516602435610ada565b341561039257600080fd5b610185600160a060020a0360043581169060243516604435610aea565b34156103ba57600080fd5b610185610afb565b34156103cd57600080fd5b6102dc610ba0565b34156103e057600080fd5b6101a9600160a060020a0360043516610baf565b34156103ff57600080fd5b610160600160a060020a0360043581169060243516610be6565b341561042457600080fd5b610185600160a060020a0360043516602435610c11565b60075481565b61045d33600035600080516020610dae83398151915216610c1c565b151561046857600080fd5b600435602435808233600160a060020a031660008035600080516020610dae833981519152169034903660405183815260406020820181815290820183905260608201848480828437820191505094505050505060405180910390a450506004805474ff0000000000000000000000000000000000000000191674010000000000000000000000000000000000000000179055565b60045460009074010000000000000000000000000000000000000000900460ff161561052857600080fd5b6105328383610d21565b90505b92915050565b61055733600035600080516020610dae83398151915216610c1c565b151561056257600080fd5b6004805473ffffffffffffffffffffffffffffffffffffffff1916600160a060020a038381169190911791829055167fce241d7ca1f669fee44b6fc00b8eba2df3bb514eed0f6f668f8f89096e81ed9460405160405180910390a250565b60005490565b60045460009074010000000000000000000000000000000000000000900460ff16156105f157600080fd5b33600160a060020a031684600160a060020a03161415801561063b5750600160a060020a038085166000908152600260209081526040808320339094168352929052205460001914155b1561069957600160a060020a03808516600090815260026020908152604080832033909416835292905220546106719083610d8d565b600160a060020a03808616600090815260026020908152604080832033909416835292905220555b600160a060020a0384166000908152600160205260409020546106bc9083610d8d565b600160a060020a0380861660009081526001602052604080822093909355908516815220546106eb9083610d9d565b600160a060020a03808516600081815260016020526040908190209390935591908616907fddf252ad1be2c89b69c2b068fc378daa952ba7f163c4a11628f55a4df523b3ef9085905190815260200160405180910390a35060019392505050565b60065481565b61076e33600035600080516020610dae83398151915216610c1c565b151561077957600080fd5b60045474010000000000000000000000000000000000000000900460ff16156107a157600080fd5b600160a060020a0382166000908152600160205260409020546107c49082610d9d565b600160a060020a038316600090815260016020526040812091909155546107eb9082610d9d565b600055600160a060020a0382167f0f6798a560793a54c3bcfe86a93cde1e73087d944c0ea20544137d41213968858260405190815260200160405180910390a25050565b610839338261093e565b50565b61085833600035600080516020610dae83398151915216610c1c565b151561086357600080fd5b600755565b600160a060020a031660009081526001602052604090205490565b60045474010000000000000000000000000000000000000000900460ff1681565b6108c033600035600080516020610dae83398151915216610c1c565b15156108cb57600080fd5b6003805473ffffffffffffffffffffffffffffffffffffffff1916600160a060020a038381169190911791829055167f1abebea81bfa2637f28358c371278fb15ede7ea8dd28d2e03b112ff6d936ada460405160405180910390a250565b600454600160a060020a031681565b60055481565b61095a33600035600080516020610dae83398151915216610c1c565b151561096557600080fd5b60045474010000000000000000000000000000000000000000900460ff161561098d57600080fd5b33600160a060020a031682600160a060020a0316141580156109d75750600160a060020a038083166000908152600260209081526040808320339094168352929052205460001914155b15610a3557600160a060020a0380831660009081526002602090815260408083203390941683529290522054610a0d9082610d8d565b600160a060020a03808416600090815260026020908152604080832033909416835292905220555b600160a060020a038216600090815260016020526040902054610a589082610d8d565b600160a060020a03831660009081526001602052604081209190915554610a7f9082610d8d565b600055600160a060020a0382167fcc16f5dbb4873280815c1ee09dbd06736cffcc184412cf7a71a0fdb75d397ca58260405190815260200160405180910390a25050565b6108393382610752565b60006105323384846105c6565b610ae53383836105c6565b505050565b610af58383836105c6565b50505050565b610b1733600035600080516020610dae83398151915216610c1c565b1515610b2257600080fd5b600435602435808233600160a060020a031660008035600080516020610dae833981519152169034903660405183815260406020820181815290820183905260608201848480828437820191505094505050505060405180910390a450506004805474ff000000000000000000000000000000000000000019169055565b600354600160a060020a031681565b60045460009074010000000000000000000000000000000000000000900460ff1615610bda57600080fd5b61053582600019610d21565b600160a060020a03918216600090815260026020908152604080832093909416825291909152205490565b610ae58233836105c6565b600030600160a060020a031683600160a060020a03161415610c4057506001610535565b600454600160a060020a0384811691161415610c5e57506001610535565b600354600160a060020a03161515610c7857506000610535565b600354600160a060020a031663b70096138430856040517c010000000000000000000000000000000000000000000000000000000063ffffffff8616028152600160a060020a039384166004820152919092166024820152600080516020610dae8339815191529091166044820152606401602060405180830381600087803b1515610d0357600080fd5b5af11515610d1057600080fd5b505050604051805190509050610535565b600160a060020a03338116600081815260026020908152604080832094871680845294909152808220859055909291907f8c5be1e5ebec7d5bd14f71427d1e84f3dd0314c0f7b2291e5b200ac8c7c3b9259085905190815260200160405180910390a350600192915050565b8082038281111561053557600080fd5b8082018281101561053557600080fd00ffffffff00000000000000000000000000000000000000000000000000000000a165627a7a72305820c3c8d7e1e5cf259daf0a7d25ddfb3c8c3e6c09865e1ec303f00322e04dc6ada50029",
  "source": "/// token.sol -- ERC20 implementation with minting and burning\n\n// Copyright (C) 2015, 2016, 2017  DappHub, LLC\n\n// This program is free software: you can redistribute it and/or modify\n// it under the terms of the GNU General Public License as published by\n// the Free Software Foundation, either version 3 of the License, or\n// (at your option) any later version.\n\n// This program is distributed in the hope that it will be useful,\n// but WITHOUT ANY WARRANTY; without even the implied warranty of\n// MERCHANTABILITY or FITNESS FOR A PARTICULAR PURPOSE.  See the\n// GNU General Public License for more details.\n\n// You should have received a copy of the GNU General Public License\n// along with this program.  If not, see <http://www.gnu.org/licenses/>.\n\npragma solidity ^0.4.13;\n\nimport \"ds-stop/stop.sol\";\n\nimport \"./base.sol\";\n\ncontract DSToken is DSTokenBase(0), DSStop {\n\n    bytes32  public  symbol;\n    uint256  public  decimals = 18; // standard token precision. override to customize\n\n    function DSToken(bytes32 symbol_) public {\n        symbol = symbol_;\n    }\n\n    event Mint(address indexed guy, uint wad);\n    event Burn(address indexed guy, uint wad);\n\n    function approve(address guy) public stoppable returns (bool) {\n        return super.approve(guy, uint(-1));\n    }\n\n    function approve(address guy, uint wad) public stoppable returns (bool) {\n        return super.approve(guy, wad);\n    }\n\n    function transferFrom(address src, address dst, uint wad)\n        public\n        stoppable\n        returns (bool)\n    {\n        if (src != msg.sender && _approvals[src][msg.sender] != uint(-1)) {\n            _approvals[src][msg.sender] = sub(_approvals[src][msg.sender], wad);\n        }\n\n        _balances[src] = sub(_balances[src], wad);\n        _balances[dst] = add(_balances[dst], wad);\n\n        Transfer(src, dst, wad);\n\n        return true;\n    }\n\n    function push(address dst, uint wad) public {\n        transferFrom(msg.sender, dst, wad);\n    }\n    function pull(address src, uint wad) public {\n        transferFrom(src, msg.sender, wad);\n    }\n    function move(address src, address dst, uint wad) public {\n        transferFrom(src, dst, wad);\n    }\n\n    function mint(uint wad) public {\n        mint(msg.sender, wad);\n    }\n    function burn(uint wad) public {\n        burn(msg.sender, wad);\n    }\n    function mint(address guy, uint wad) public auth stoppable {\n        _balances[guy] = add(_balances[guy], wad);\n        _supply = add(_supply, wad);\n        Mint(guy, wad);\n    }\n    function burn(address guy, uint wad) public auth stoppable {\n        if (guy != msg.sender && _approvals[guy][msg.sender] != uint(-1)) {\n            _approvals[guy][msg.sender] = sub(_approvals[guy][msg.sender], wad);\n        }\n\n        _balances[guy] = sub(_balances[guy], wad);\n        _supply = sub(_supply, wad);\n        Burn(guy, wad);\n    }\n\n    // Optional token name\n    bytes32   public  name = \"\";\n\n    function setName(bytes32 name_) public auth {\n        name = name_;\n    }\n}\n",
  "sourcePath": "ds-token/token.sol",
  "compiler": {
    "name": "solc",
    "version": "0.4.21+commit.dfe3193c.Emscripten.clang"
  },
  "schemaVersion": "2.0.0",
  "updatedAt": "2018-05-24T19:17:42.468Z"
}