{
  "contractName": "Forum",
  "abi": [
    {
      "constant": true,
      "inputs": [],
      "name": "beneficiary",
      "outputs": [
        {
          "name": "",
          "type": "address"
        }
      ],
      "payable": false,
      "stateMutability": "view",
      "type": "function"
    },
    {
      "constant": true,
      "inputs": [],
      "name": "owner",
      "outputs": [
        {
          "name": "",
          "type": "address"
        }
      ],
      "payable": false,
      "stateMutability": "view",
      "type": "function"
    },
    {
      "inputs": [],
      "payable": false,
      "stateMutability": "nonpayable",
      "type": "constructor"
    },
    {
      "anonymous": false,
      "inputs": [
        {
          "indexed": false,
          "name": "_parentHash",
          "type": "bytes32"
        },
        {
          "indexed": false,
          "name": "contentHash",
          "type": "bytes32"
        }
      ],
      "name": "Topic",
      "type": "event"
    },
    {
      "constant": false,
      "inputs": [
        {
          "name": "_owner",
          "type": "address"
        }
      ],
      "name": "setOwner",
      "outputs": [],
      "payable": false,
      "stateMutability": "nonpayable",
      "type": "function"
    },
    {
      "constant": false,
      "inputs": [
        {
          "name": "_beneficiary",
          "type": "address"
        }
      ],
      "name": "setBeneficiary",
      "outputs": [],
      "payable": false,
      "stateMutability": "nonpayable",
      "type": "function"
    },
    {
      "constant": false,
      "inputs": [
        {
          "name": "_parentHash",
          "type": "bytes32"
        },
        {
          "name": "_contentHash",
          "type": "bytes32"
        }
      ],
      "name": "post",
      "outputs": [],
      "payable": false,
      "stateMutability": "nonpayable",
      "type": "function"
    },
    {
      "constant": false,
      "inputs": [
        {
          "name": "_parentHash",
          "type": "bytes32"
        },
        {
          "name": "_contentHash",
          "type": "bytes32"
        }
      ],
      "name": "postAndUpvote",
      "outputs": [],
      "payable": false,
      "stateMutability": "nonpayable",
      "type": "function"
    }
  ],
  "bytecode": "0x608060405234801561001057600080fd5b5060018054600160a060020a03191633179055604080516000808252602082015281517f6ca7f02e1c92a13401683b5a9053ab19071d978753e93b29190d58e018ff3821929181900390910190a16103018061006d6000396000f30060806040526004361061005e5763ffffffff60e060020a60003504166313af403581146100635780631c31f7101461008657806338af3eed146100a75780634b944b9b146100d85780635b5772a4146100f35780638da5cb5b1461010e575b600080fd5b34801561006f57600080fd5b50610084600160a060020a0360043516610123565b005b34801561009257600080fd5b50610084600160a060020a036004351661015c565b3480156100b357600080fd5b506100bc610195565b60408051600160a060020a039092168252519081900360200190f35b3480156100e457600080fd5b506100846004356024356101a4565b3480156100ff57600080fd5b50610084600435602435610233565b34801561011a57600080fd5b506100bc6102a6565b600154600160a060020a0316331461013a57600080fd5b60018054600160a060020a031916600160a060020a0392909216919091179055565b600154600160a060020a0316331461017357600080fd5b60008054600160a060020a031916600160a060020a0392909216919091179055565b600054600160a060020a031681565b604080518381526020810183905281516000805160206102b6833981519152929181900390910190a1600080546040805160e060020a6320f585ad0281523360048201529051600160a060020a03909216926320f585ad9260248084019382900301818387803b15801561021757600080fd5b505af115801561022b573d6000803e3d6000fd5b505050505050565b604080518381526020810183905281516000805160206102b6833981519152929181900390910190a1600080546040805160e060020a63c840747f0281523360048201529051600160a060020a039092169263c840747f9260248084019382900301818387803b15801561021757600080fd5b600154600160a060020a03168156006ca7f02e1c92a13401683b5a9053ab19071d978753e93b29190d58e018ff3821a165627a7a723058207e142d8ee120e9afc30d8b2067cd2f70c93044ae852ec47f4240704aabb395e40029",
  "source": "/*\n  Copyright 2018 Menlo, Inc.\n\n  Licensed under the Apache License, Version 2.0 (the “License”);\n  you may not use this file except in compliance with the License.\n  You may obtain a copy of the License at\n\n  http://www.apache.org/licenses/LICENSE-2.0\n\n  Unless required by applicable law or agreed to in writing, software\n  distributed under the License is distributed on an “AS IS” BASIS,\n  WITHOUT WARRANTIES OR CONDITIONS OF ANY KIND, either express or implied.\n  See the License for the specific language governing permissions and\n  limitations under the License.\n*/\npragma solidity^0.4.19;\n\nimport \"./Sponsored.sol\";\n\ninterface Beneficiary {\n    function onPost(address _poster) external;\n    function onPostUpvote(address _poster) external;\n}\n\ncontract ForumEvents {\n    // the total ordering of all events on a smart contract is defined\n    // a parent of 0x0 indicates root topic\n    // by convention, the bytes32 is a keccak-256 content hash\n    // the multihash prefix for this is 1b,20\n    event Topic(bytes32 _parentHash, bytes32 contentHash);\n}\n\ncontract Forum is ForumEvents {\n    // receives all the post tokens\n    Beneficiary public beneficiary;\n    address public owner;\n\n  constructor() public {\n        owner = msg.sender;\n        emit Topic(0, 0);\n    }\n\n    modifier onlyOwner {\n        require(msg.sender == owner);\n        _;\n    }\n\n    function setOwner(address _owner) external onlyOwner {\n        owner = _owner;\n    }\n\n    function setBeneficiary(Beneficiary _beneficiary) external onlyOwner {\n        beneficiary = _beneficiary;\n    }\n\n    function post(bytes32 _parentHash, bytes32 _contentHash) external {\n        emit Topic(_parentHash, _contentHash);\n        beneficiary.onPost(msg.sender);\n    }\n\n    function postAndUpvote(bytes32 _parentHash, bytes32 _contentHash) external {\n        emit Topic(_parentHash, _contentHash);\n        beneficiary.onPostUpvote(msg.sender);\n    }\n}\n",
  "sourcePath": "/Users/dave/Code/expo-demo/contracts/Forum.sol",
  "compiler": {
    "name": "solc",
    "version": "0.4.24+commit.e67f0147.Emscripten.clang"
  },
  "schemaVersion": "2.0.1",
  "updatedAt": "2018-08-16T21:11:18.435Z"
}