{
  "contractName": "Lottery",
  "abi": [
    {
      "constant": true,
      "inputs": [
        {
          "name": "",
          "type": "uint256"
        }
      ],
      "name": "payouts",
      "outputs": [
        {
          "name": "",
          "type": "address"
        }
      ],
      "payable": false,
      "stateMutability": "view",
      "type": "function"
    },
    {
      "constant": true,
      "inputs": [
        {
          "name": "",
          "type": "uint256"
        }
      ],
      "name": "posters",
      "outputs": [
        {
          "name": "",
          "type": "address"
        }
      ],
      "payable": false,
      "stateMutability": "view",
      "type": "function"
    },
    {
      "constant": true,
      "inputs": [],
      "name": "epochPrior",
      "outputs": [
        {
          "name": "",
          "type": "uint256"
        }
      ],
      "payable": false,
      "stateMutability": "view",
      "type": "function"
    },
    {
      "constant": true,
      "inputs": [],
      "name": "epochCurrent",
      "outputs": [
        {
          "name": "",
          "type": "uint256"
        }
      ],
      "payable": false,
      "stateMutability": "view",
      "type": "function"
    },
    {
      "constant": true,
      "inputs": [
        {
          "name": "",
          "type": "uint256"
        }
      ],
      "name": "votes",
      "outputs": [
        {
          "name": "",
          "type": "int256"
        }
      ],
      "payable": false,
      "stateMutability": "view",
      "type": "function"
    },
    {
      "constant": true,
      "inputs": [],
      "name": "epochTimestamp",
      "outputs": [
        {
          "name": "",
          "type": "uint256"
        }
      ],
      "payable": false,
      "stateMutability": "view",
      "type": "function"
    },
    {
      "constant": true,
      "inputs": [],
      "name": "rewardPool",
      "outputs": [
        {
          "name": "",
          "type": "uint256"
        }
      ],
      "payable": false,
      "stateMutability": "view",
      "type": "function"
    },
    {
      "constant": true,
      "inputs": [],
      "name": "forum",
      "outputs": [
        {
          "name": "",
          "type": "address"
        }
      ],
      "payable": false,
      "stateMutability": "view",
      "type": "function"
    },
    {
      "constant": false,
      "inputs": [],
      "name": "sponsor",
      "outputs": [],
      "payable": false,
      "stateMutability": "nonpayable",
      "type": "function"
    },
    {
      "constant": true,
      "inputs": [],
      "name": "owner",
      "outputs": [
        {
          "name": "",
          "type": "address"
        }
      ],
      "payable": false,
      "stateMutability": "view",
      "type": "function"
    },
    {
      "constant": true,
      "inputs": [],
      "name": "nextPostCost",
      "outputs": [
        {
          "name": "",
          "type": "uint256"
        }
      ],
      "payable": false,
      "stateMutability": "view",
      "type": "function"
    },
    {
      "constant": true,
      "inputs": [],
      "name": "postCost",
      "outputs": [
        {
          "name": "",
          "type": "uint256"
        }
      ],
      "payable": false,
      "stateMutability": "view",
      "type": "function"
    },
    {
      "constant": true,
      "inputs": [],
      "name": "token",
      "outputs": [
        {
          "name": "",
          "type": "address"
        }
      ],
      "payable": false,
      "stateMutability": "view",
      "type": "function"
    },
    {
      "inputs": [
        {
          "name": "_token",
          "type": "address"
        },
        {
          "name": "_forum",
          "type": "address"
        }
      ],
      "payable": false,
      "stateMutability": "nonpayable",
      "type": "constructor"
    },
    {
      "constant": true,
      "inputs": [],
      "name": "postCount",
      "outputs": [
        {
          "name": "",
          "type": "uint256"
        }
      ],
      "payable": false,
      "stateMutability": "view",
      "type": "function"
    },
    {
      "constant": false,
      "inputs": [
        {
          "name": "_offset",
          "type": "uint256"
        }
      ],
      "name": "upvote",
      "outputs": [],
      "payable": false,
      "stateMutability": "nonpayable",
      "type": "function"
    },
    {
      "constant": false,
      "inputs": [
        {
          "name": "_offset",
          "type": "uint256"
        }
      ],
      "name": "downvote",
      "outputs": [],
      "payable": false,
      "stateMutability": "nonpayable",
      "type": "function"
    },
    {
      "constant": false,
      "inputs": [
        {
          "name": "_offset",
          "type": "uint256"
        }
      ],
      "name": "unvote",
      "outputs": [],
      "payable": false,
      "stateMutability": "nonpayable",
      "type": "function"
    },
    {
      "constant": false,
      "inputs": [],
      "name": "endEpoch",
      "outputs": [],
      "payable": false,
      "stateMutability": "nonpayable",
      "type": "function"
    },
    {
      "constant": true,
      "inputs": [
        {
          "name": "_payout",
          "type": "uint8"
        }
      ],
      "name": "reward",
      "outputs": [
        {
          "name": "",
          "type": "uint256"
        }
      ],
      "payable": false,
      "stateMutability": "view",
      "type": "function"
    },
    {
      "constant": false,
      "inputs": [
        {
          "name": "_payout",
          "type": "uint8"
        }
      ],
      "name": "claim",
      "outputs": [],
      "payable": false,
      "stateMutability": "nonpayable",
      "type": "function"
    },
    {
      "constant": false,
      "inputs": [
        {
          "name": "_owner",
          "type": "address"
        }
      ],
      "name": "setOwner",
      "outputs": [],
      "payable": false,
      "stateMutability": "nonpayable",
      "type": "function"
    },
    {
      "constant": false,
      "inputs": [
        {
          "name": "_nextPostCost",
          "type": "uint256"
        }
      ],
      "name": "setNextPostCost",
      "outputs": [],
      "payable": false,
      "stateMutability": "nonpayable",
      "type": "function"
    },
    {
      "constant": false,
      "inputs": [
        {
          "name": "_redeemer",
          "type": "address"
        }
      ],
      "name": "redeem",
      "outputs": [
        {
          "name": "",
          "type": "address"
        }
      ],
      "payable": false,
      "stateMutability": "nonpayable",
      "type": "function"
    },
    {
      "constant": false,
      "inputs": [
        {
          "name": "_redeemer",
          "type": "address"
        }
      ],
      "name": "undo",
      "outputs": [
        {
          "name": "",
          "type": "address"
        }
      ],
      "payable": false,
      "stateMutability": "nonpayable",
      "type": "function"
    },
    {
      "constant": false,
      "inputs": [
        {
          "name": "_poster",
          "type": "address"
        }
      ],
      "name": "onPostUpvote",
      "outputs": [],
      "payable": false,
      "stateMutability": "nonpayable",
      "type": "function"
    },
    {
      "constant": false,
      "inputs": [
        {
          "name": "_poster",
          "type": "address"
        }
      ],
      "name": "onPost",
      "outputs": [],
      "payable": false,
      "stateMutability": "nonpayable",
      "type": "function"
    }
  ],
  "bytecode": "0x6060604052341561000f57600080fd5b604051604080611410833981016040528080519190602001805160018054600160a060020a03808716600160a060020a031992831617835560028054828616908416179055600380543390921691909216179055600980549294509250810161007883826100a9565b5060009182526020909120018054600160a060020a0319169055505066470de4df820000600a819055600b556100f3565b8154818355818115116100cd576000838152602090206100cd9181019083016100d2565b505050565b6100f091905b808211156100ec57600081556001016100d8565b5090565b90565b61130e806101026000396000f30060606040526004361061013a5763ffffffff60e060020a60003504166301ddf070811461013f5780630b9663db1461015757806313af40351461016a57806317906c2e1461018957806320f585ad146101ae57806329652e86146101cd57806334d1892c146101ff57806351ec42851461021557806351ee6d931461022b57806354ded8ec1461023e5780635df81330146102515780635fdb3e67146102675780636103ed2e146102865780636214bc0a1461029957806366666aa9146102b25780636741d1b1146102c557806377c93662146102d857806386903783146102eb5780638da5cb5b1461030157806395a2251f1461031457806395d4063f14610333578063a2b0e62c1461034c578063acb315851461035f578063c840747f14610372578063f31fdad414610391578063fc0c546a146103a7575b600080fd5b341561014a57600080fd5b6101556004356103ba565b005b341561016257600080fd5b610155610517565b341561017557600080fd5b610155600160a060020a03600435166107a1565b341561019457600080fd5b61019c6107eb565b60405190815260200160405180910390f35b34156101b957600080fd5b610155600160a060020a03600435166107f2565b34156101d857600080fd5b6101e36004356108d7565b604051600160a060020a03909116815260200160405180910390f35b341561020a57600080fd5b6101e36004356108f4565b341561022057600080fd5b61015560043561091c565b341561023657600080fd5b61019c6109ef565b341561024957600080fd5b61019c6109f5565b341561025c57600080fd5b61019c6004356109fb565b341561027257600080fd5b6101e3600160a060020a0360043516610a0d565b341561029157600080fd5b61019c610c34565b34156102a457600080fd5b61019c60ff60043516610c3a565b34156102bd57600080fd5b61019c610cbd565b34156102d057600080fd5b6101e3610cc3565b34156102e357600080fd5b610155610cd2565b34156102f657600080fd5b610155600435610d4d565b341561030c57600080fd5b6101e3610d6d565b341561031f57600080fd5b6101e3600160a060020a0360043516610d7c565b341561033e57600080fd5b61015560ff60043516610f5e565b341561035757600080fd5b61019c611037565b341561036a57600080fd5b61019c61103d565b341561037d57600080fd5b610155600160a060020a0360043516611043565b341561039c57600080fd5b6101556004356111a5565b34156103b257600080fd5b6101e3611266565b6000818152600860209081526040808320600160a060020a03338181168087528386528487208054898952600788528689208054918a0b60018181038c0b9390930190915592895294909652855460ff191684179095558254600a549195889590938793921691632aaa68cd91849130915160e060020a63ffffffff8616028152600160a060020a0393841660048201529190921660248201526044810191909152606401600060405180830381600087803b151561047857600080fd5b5af1151561048557600080fd5b50506000549650508515945061051393505050505760008054600019909201918190839081106104b157fe5b60009182526020822001919091558054600019909201918190839081106104d457fe5b60009182526020822001919091558054600019909201918190839081106104f757fe5b600091825260208220019190915581906105119082611279565b505b5050565b61051f61129d565b61052761129d565b600080600454620151800161053a611275565b101561054557600080fd5b61054d611275565b60045560065491505b600554600019830192111561068f57600082815260076020526040902054151561057f5761068a565b50600081815260076020526040902054608083015181131561067a57604083015181131561063d5760608301516080840152604083015160608085019190915284015160808501526040840151606085015260208301518113156106265760208301516040840152602084015160408501528251811315610613578251602084015280835283516020850152818452610621565b602080840182905284018290525b610638565b60408301819052818460025b60200201525b61067a565b606083015181131561066c57606083015160808401526060808401829052840151608085015281846003610632565b608080840182905284018290525b6000828152600760205260408120555b610556565b600091505b60058210156107145760098483600581106106ab57fe5b6020020151815481106106ba57fe5b600091825260209091200154600160a060020a0316600d83600581106106dc57fe5b01805473ffffffffffffffffffffffffffffffffffffffff1916600160a060020a039290921691909117905560019190910190610694565b600154600160a060020a03166370a082313060405160e060020a63ffffffff8416028152600160a060020a039091166004820152602401602060405180830381600087803b151561076457600080fd5b5af1151561077157600080fd5b5050506040518051600c5550600680546005556009549055600a54600b541461079b57600b54600a555b50505050565b60035433600160a060020a039081169116146107bc57600080fd5b6003805473ffffffffffffffffffffffffffffffffffffffff1916600160a060020a0392909216919091179055565b6009545b90565b60025433600160a060020a0390811691161461080d57600080fd5b600154600a548291600160a060020a031690632aaa68cd908390309060405160e060020a63ffffffff8616028152600160a060020a0393841660048201529190921660248201526044810191909152606401600060405180830381600087803b151561087857600080fd5b5af1151561088557600080fd5b5050600980548492506001810161089c8382611279565b506000918252602090912001805473ffffffffffffffffffffffffffffffffffffffff1916600160a060020a03929092169190911790555050565b600d81600581106108e457fe5b0154600160a060020a0316905081565b600980548290811061090257fe5b600091825260209091200154600160a060020a0316905081565b600081815260086020908152604080832033600160a060020a038181168087528386528487208054898952600788528689208054918a0b808b038b0b909201905591885293909552825460ff1916909255600154600a5491958795909490938793921691632aaa68cd91849130915160e060020a63ffffffff8616028152600160a060020a0393841660048201529190921660248201526044810191909152606401600060405180830381600087803b15156109d757600080fd5b5af115156109e457600080fd5b505050505050505050565b60055481565b60065481565b60076020526000908152604090205481565b600354600090819033600160a060020a03908116911614610a2d57600080fd5b600154600160a060020a0390811690841663131519816040518163ffffffff1660e060020a028152600401602060405180830381600087803b1515610a7157600080fd5b5af11515610a7e57600080fd5b50505060405180519050600160a060020a0316141515610a9d57600080fd5b600154600160a060020a031663095ea7b384826370a082313060405160e060020a63ffffffff8416028152600160a060020a039091166004820152602401602060405180830381600087803b1515610af457600080fd5b5af11515610b0157600080fd5b5050506040518051905060405160e060020a63ffffffff8516028152600160a060020a0390921660048301526024820152604401602060405180830381600087803b1515610b4e57600080fd5b5af11515610b5b57600080fd5b50505060405180515050600160a060020a03831663881be8f76040518163ffffffff1660e060020a028152600401600060405180830381600087803b1515610ba257600080fd5b5af11515610baf57600080fd5b50505082600160a060020a031663d5ce33896040518163ffffffff1660e060020a028152600401602060405180830381600087803b1515610bef57600080fd5b5af11515610bfc57600080fd5b50505060405180516001805473ffffffffffffffffffffffffffffffffffffffff1916600160a060020a038316179055949350505050565b60045481565b600060ff82161515610c5857600c546005906002025b049050610cb8565b8160ff1660011415610c6f57600c54600490610c50565b8160ff1660021415610c8657600c54600590610c50565b8160ff1660031415610c9d57600c54600a90610c50565b8160ff1660041415610cb457600c54601490610c50565b5060005b919050565b600c5481565b600254600160a060020a031681565b60008054906003820190610ce69082611279565b506001600082815481101515610cf857fe5b9060005260206000209001819055506001600082600101815481101515610d1b57fe5b9060005260206000209001819055506001600082600201815481101515610d3e57fe5b60009182526020909120015550565b60035433600160a060020a03908116911614610d6857600080fd5b600b55565b600354600160a060020a031681565b600354600090819033600160a060020a03908116911614610d9c57600080fd5b600154600160a060020a0390811690841663d5ce33896040518163ffffffff1660e060020a028152600401602060405180830381600087803b1515610de057600080fd5b5af11515610ded57600080fd5b50505060405180519050600160a060020a0316141515610e0c57600080fd5b600154600160a060020a031663095ea7b384826370a082313060405160e060020a63ffffffff8416028152600160a060020a039091166004820152602401602060405180830381600087803b1515610e6357600080fd5b5af11515610e7057600080fd5b5050506040518051905060405160e060020a63ffffffff8516028152600160a060020a0390921660048301526024820152604401602060405180830381600087803b1515610ebd57600080fd5b5af11515610eca57600080fd5b50505060405180515050600160a060020a03831663be040fb06040518163ffffffff1660e060020a028152600401600060405180830381600087803b1515610f1157600080fd5b5af11515610f1e57600080fd5b50505082600160a060020a031663131519816040518163ffffffff1660e060020a028152600401602060405180830381600087803b1515610bef57600080fd5b600160a060020a033316600d60ff831660058110610f7857fe5b0154600160a060020a031614610f8d57600080fd5b6000600d60ff831660058110610f9f57fe5b01805473ffffffffffffffffffffffffffffffffffffffff1916600160a060020a039283161790556001541663a9059cbb33610fda84610c3a565b60405160e060020a63ffffffff8516028152600160a060020a0390921660048301526024820152604401602060405180830381600087803b151561101d57600080fd5b5af1151561102a57600080fd5b5050506040518051505050565b600b5481565b600a5481565b60025460009033600160a060020a0390811691161461106157600080fd5b6009546000818152600860209081526040808320600160a060020a03878116808652828552838620805488885260078752858820805491890b60018181038b0b9093019091559290975292909452815460ff191685179091558354600a54889695949387939290921691632aaa68cd9184913091905160e060020a63ffffffff8616028152600160a060020a0393841660048201529190921660248201526044810191909152606401600060405180830381600087803b151561112357600080fd5b5af1151561113057600080fd5b505060098054899250600181016111478382611279565b5060009182526020822001805473ffffffffffffffffffffffffffffffffffffffff1916600160a060020a0393909316929092179091555495505084159350610513925050505760008054600019909201918190839081106104b157fe5b6000818152600860209081526040808320600160a060020a03338181168087528386528487208054898952600788528689208054918a0b6000198181038c0b9390930190915592895294909652855460ff191660ff17909555600154600a549195889590938793921691632aaa68cd91849130915160e060020a63ffffffff8616028152600160a060020a0393841660048201529190921660248201526044810191909152606401600060405180830381600087803b151561047857600080fd5b600154600160a060020a031681565b4290565b815481835581811511610511576000838152602090206105119181019083016112c4565b60a06040519081016040526005815b60008152602001906001900390816112ac5790505090565b6107ef91905b808211156112de57600081556001016112ca565b50905600a165627a7a72305820f418a3be5239102fdab43a7d17610f33fcf6e001c88b44b34c3d8dbf53f4c0020029",
  "source": "/*\n  Copyright 2018 Menlo One, Inc.\n\n  Licensed under the Apache License, Version 2.0 (the “License”);\n  you may not use this file except in compliance with the License.\n  You may obtain a copy of the License at\n\n  http://www.apache.org/licenses/LICENSE-2.0\n\n  Unless required by applicable law or agreed to in writing, software\n  distributed under the License is distributed on an “AS IS” BASIS,\n  WITHOUT WARRANTIES OR CONDITIONS OF ANY KIND, either express or implied.\n  See the License for the specific language governing permissions and\n  limitations under the License.\n*/\npragma solidity^0.4.19;\n\nimport \"./AppToken.sol\";\nimport \"./Forum.sol\";\nimport \"./Redeemer.sol\";\n\ncontract Lottery is Beneficiary, Sponsored {\n    // though ERC20 says tokens *should* revert in transferFrom without allowance\n    // this token *must* revert\n    AppToken public token;\n    Forum public forum;\n    address public owner;\n    uint256 public epochTimestamp;\n    uint256 public epochPrior;\n    uint256 public epochCurrent;\n    mapping (uint256 => int256) public votes;\n    mapping (uint256 => mapping (address => int8)) voters;\n    address[] public posters;\n\n    uint256 public postCost;\n    uint256 public nextPostCost;\n\n    function postCount() public view returns (uint256) {\n        return posters.length;\n    }\n\n    uint256 public rewardPool;\n    address[5] public payouts;\n\n    function Lottery(AppToken _token, Forum _forum) public {\n        token = _token;\n        forum = _forum;\n        owner = msg.sender;\n        posters.push(0); // no author for root post 0\n        postCost = 20 finney;\n        nextPostCost = 20 finney;\n    }\n\n    modifier vote(address _voter, uint256 _offset, int8 _direction) {\n        int8 priorVote = voters[_offset][_voter];\n        votes[_offset] += _direction - priorVote;\n        voters[_offset][_voter] = _direction;\n        _;\n    }\n    modifier transfersToken(address _voter) {\n        token.appTransfer(_voter, this, postCost);\n        _;\n    }\n    function upvote(uint256 _offset) external sponsored vote(msg.sender, _offset, 1) transfersToken(msg.sender) {\n    }\n    function downvote(uint256 _offset) external sponsored vote(msg.sender, _offset, -1) transfersToken(msg.sender) {\n    }\n    function unvote(uint256 _offset) external vote(msg.sender, _offset, 0) transfersToken(msg.sender) {\n    }\n    function endEpoch() external {\n        require(era() >= epochTimestamp + 1 days);\n        epochTimestamp = era();\n\n        uint256[5] memory winners;\n        int256[5] memory topVotes;\n        // get top 5 posts\n        for (uint256 i = epochCurrent; i --> epochPrior;) {\n            if (votes[i] == 0) {\n                continue;\n            }\n\n            int256 current = votes[i];\n            if (current > topVotes[4]) {\n                // insert it\n\n                /*\n                uint8 j = 4;\n                while (topVotes[j-1] < current) {\n                    topVotes[j] = topVotes[j-1];\n                    winners[j] = winners[j-1];\n                    j--;\n                    if (j == 0) {\n                        break;\n                    }\n                }\n                topVotes[j] = current;\n                winners[j] = i;\n                */\n                // the code below is equivalent to the commented code above\n                if (current > topVotes[2]) {\n                    topVotes[4] = topVotes[3];\n                    topVotes[3] = topVotes[2];\n                    winners[4] = winners[3];\n                    winners[3] = winners[2];\n                    if (current > topVotes[1]) {\n                        topVotes[2] = topVotes[1];\n                        winners[2] = winners[1];\n                        if (current > topVotes[0]) {\n                            topVotes[1] = topVotes[0];\n                            topVotes[0] = current;\n                            winners[1] = winners[0];\n                            winners[0] = i;\n                        } else {\n                            topVotes[1] = current;\n                            winners[1] = i;\n                        }\n                    } else {\n                        topVotes[2] = current;\n                        winners[2] = i;\n                    }\n                } else {\n                    if (current > topVotes[3]) {\n                        topVotes[4] = topVotes[3];\n                        topVotes[3] = current;\n                        winners[4] = winners[3];\n                        winners[3] = i;\n                    } else {\n                        topVotes[4] = current;\n                        winners[4] = i;\n                    }\n                }\n            }\n            votes[i] = 0;\n        }\n\n        // write the new winners\n        for (i = 0; i < 5; i++) {\n            payouts[i] = posters[winners[i]];\n        }\n        // refresh the pool\n        rewardPool = token.balanceOf(this);\n        epochPrior = epochCurrent;\n        epochCurrent = posters.length;\n        if (nextPostCost != postCost) {\n            postCost = nextPostCost;\n        }\n    }\n    function reward(uint8 _payout) public view returns (uint256) {\n        // I wish we had switch()\n        if (_payout == 0) {\n            return rewardPool * 2 / 5;\n        } else if (_payout == 1) {\n            return rewardPool / 4;\n        } else if (_payout == 2) {\n            return rewardPool / 5;\n        } else if (_payout == 3) {\n            return rewardPool / 10;\n        } else if (_payout == 4) {\n            return rewardPool / 20;\n        }\n        return 0;\n    }\n    function claim(uint8 _payout) external {\n        require(payouts[_payout] == msg.sender);\n        payouts[_payout] = 0;\n        token.transfer(msg.sender, reward(_payout));\n    }\n    modifier onlyOwner {\n        require (msg.sender == owner);\n        _;\n    }\n    function setOwner(address _owner) external onlyOwner {\n        owner = _owner;\n    }\n    function setNextPostCost(uint256 _nextPostCost) external onlyOwner {\n        nextPostCost = _nextPostCost;\n    }\n    function redeem(Redeemer _redeemer) external onlyOwner returns (AppToken) {\n        require(_redeemer.from() == token);\n\n        token.approve(_redeemer, token.balanceOf(this));\n        _redeemer.redeem();\n        AppToken to = _redeemer.to();\n        token = to;\n        return to;\n    }\n    function undo(Redeemer _redeemer) external onlyOwner returns (AppToken) {\n        require(_redeemer.to() == token);\n\n        token.approve(_redeemer, token.balanceOf(this));\n        _redeemer.undo();\n        AppToken from = _redeemer.from();\n        token = from;\n        return from;\n    }\n    function era() internal view returns (uint256) {\n        return now;\n    }\n    modifier pushPoster(address _poster) {\n        posters.push(_poster);\n        _;\n    }\n    modifier onlyForum {\n        require(msg.sender == address(forum));\n        _;\n    }\n    function onPostUpvote(address _poster) sponsored external onlyForum vote(_poster, posters.length, 1) transfersToken(_poster) pushPoster(_poster) {}\n    function onPost(address _poster) external onlyForum transfersToken(_poster) pushPoster(_poster) {}\n}\n",
  "sourcePath": "/Users/dave/Code/townhall/contracts/Lottery.sol",
  "compiler": {
    "name": "solc",
    "version": "0.4.21+commit.dfe3193c.Emscripten.clang"
  },
  "schemaVersion": "2.0.0",
  "updatedAt": "2018-05-24T19:17:44.026Z"
}