{
  "contractName": "Lottery",
  "abi": [
    {
      "constant": true,
      "inputs": [
        {
          "name": "",
          "type": "uint256"
        }
      ],
      "name": "payouts",
      "outputs": [
        {
          "name": "",
          "type": "address"
        }
      ],
      "payable": false,
      "stateMutability": "view",
      "type": "function"
    },
    {
      "constant": true,
      "inputs": [
        {
          "name": "",
          "type": "uint256"
        }
      ],
      "name": "posters",
      "outputs": [
        {
          "name": "",
          "type": "address"
        }
      ],
      "payable": false,
      "stateMutability": "view",
      "type": "function"
    },
    {
      "constant": true,
      "inputs": [],
      "name": "epochPrior",
      "outputs": [
        {
          "name": "",
          "type": "uint256"
        }
      ],
      "payable": false,
      "stateMutability": "view",
      "type": "function"
    },
    {
      "constant": true,
      "inputs": [],
      "name": "epochCurrent",
      "outputs": [
        {
          "name": "",
          "type": "uint256"
        }
      ],
      "payable": false,
      "stateMutability": "view",
      "type": "function"
    },
    {
      "constant": true,
      "inputs": [
        {
          "name": "",
          "type": "uint256"
        }
      ],
      "name": "votes",
      "outputs": [
        {
          "name": "",
          "type": "int256"
        }
      ],
      "payable": false,
      "stateMutability": "view",
      "type": "function"
    },
    {
      "constant": true,
      "inputs": [],
      "name": "epochTimestamp",
      "outputs": [
        {
          "name": "",
          "type": "uint256"
        }
      ],
      "payable": false,
      "stateMutability": "view",
      "type": "function"
    },
    {
      "constant": true,
      "inputs": [],
      "name": "rewardPool",
      "outputs": [
        {
          "name": "",
          "type": "uint256"
        }
      ],
      "payable": false,
      "stateMutability": "view",
      "type": "function"
    },
    {
      "constant": true,
      "inputs": [],
      "name": "forum",
      "outputs": [
        {
          "name": "",
          "type": "address"
        }
      ],
      "payable": false,
      "stateMutability": "view",
      "type": "function"
    },
    {
      "constant": false,
      "inputs": [],
      "name": "sponsor",
      "outputs": [],
      "payable": false,
      "stateMutability": "nonpayable",
      "type": "function"
    },
    {
      "constant": true,
      "inputs": [],
      "name": "owner",
      "outputs": [
        {
          "name": "",
          "type": "address"
        }
      ],
      "payable": false,
      "stateMutability": "view",
      "type": "function"
    },
    {
      "constant": true,
      "inputs": [],
      "name": "nextPostCost",
      "outputs": [
        {
          "name": "",
          "type": "uint256"
        }
      ],
      "payable": false,
      "stateMutability": "view",
      "type": "function"
    },
    {
      "constant": true,
      "inputs": [],
      "name": "postCost",
      "outputs": [
        {
          "name": "",
          "type": "uint256"
        }
      ],
      "payable": false,
      "stateMutability": "view",
      "type": "function"
    },
    {
      "constant": true,
      "inputs": [],
      "name": "token",
      "outputs": [
        {
          "name": "",
          "type": "address"
        }
      ],
      "payable": false,
      "stateMutability": "view",
      "type": "function"
    },
    {
      "inputs": [
        {
          "name": "_token",
          "type": "address"
        },
        {
          "name": "_forum",
          "type": "address"
        }
      ],
      "payable": false,
      "stateMutability": "nonpayable",
      "type": "constructor"
    },
    {
      "constant": true,
      "inputs": [],
      "name": "postCount",
      "outputs": [
        {
          "name": "",
          "type": "uint256"
        }
      ],
      "payable": false,
      "stateMutability": "view",
      "type": "function"
    },
    {
      "constant": false,
      "inputs": [
        {
          "name": "_offset",
          "type": "uint256"
        }
      ],
      "name": "upvote",
      "outputs": [],
      "payable": false,
      "stateMutability": "nonpayable",
      "type": "function"
    },
    {
      "constant": false,
      "inputs": [
        {
          "name": "_offset",
          "type": "uint256"
        }
      ],
      "name": "downvote",
      "outputs": [],
      "payable": false,
      "stateMutability": "nonpayable",
      "type": "function"
    },
    {
      "constant": false,
      "inputs": [
        {
          "name": "_offset",
          "type": "uint256"
        }
      ],
      "name": "unvote",
      "outputs": [],
      "payable": false,
      "stateMutability": "nonpayable",
      "type": "function"
    },
    {
      "constant": false,
      "inputs": [],
      "name": "endEpoch",
      "outputs": [],
      "payable": false,
      "stateMutability": "nonpayable",
      "type": "function"
    },
    {
      "constant": true,
      "inputs": [
        {
          "name": "_payout",
          "type": "uint8"
        }
      ],
      "name": "reward",
      "outputs": [
        {
          "name": "",
          "type": "uint256"
        }
      ],
      "payable": false,
      "stateMutability": "view",
      "type": "function"
    },
    {
      "constant": false,
      "inputs": [
        {
          "name": "_payout",
          "type": "uint8"
        }
      ],
      "name": "claim",
      "outputs": [],
      "payable": false,
      "stateMutability": "nonpayable",
      "type": "function"
    },
    {
      "constant": false,
      "inputs": [
        {
          "name": "_owner",
          "type": "address"
        }
      ],
      "name": "setOwner",
      "outputs": [],
      "payable": false,
      "stateMutability": "nonpayable",
      "type": "function"
    },
    {
      "constant": false,
      "inputs": [
        {
          "name": "_nextPostCost",
          "type": "uint256"
        }
      ],
      "name": "setNextPostCost",
      "outputs": [],
      "payable": false,
      "stateMutability": "nonpayable",
      "type": "function"
    },
    {
      "constant": false,
      "inputs": [
        {
          "name": "_redeemer",
          "type": "address"
        }
      ],
      "name": "redeem",
      "outputs": [
        {
          "name": "",
          "type": "address"
        }
      ],
      "payable": false,
      "stateMutability": "nonpayable",
      "type": "function"
    },
    {
      "constant": false,
      "inputs": [
        {
          "name": "_redeemer",
          "type": "address"
        }
      ],
      "name": "undo",
      "outputs": [
        {
          "name": "",
          "type": "address"
        }
      ],
      "payable": false,
      "stateMutability": "nonpayable",
      "type": "function"
    },
    {
      "constant": false,
      "inputs": [
        {
          "name": "_poster",
          "type": "address"
        }
      ],
      "name": "onPostUpvote",
      "outputs": [],
      "payable": false,
      "stateMutability": "nonpayable",
      "type": "function"
    },
    {
      "constant": false,
      "inputs": [
        {
          "name": "_poster",
          "type": "address"
        }
      ],
      "name": "onPost",
      "outputs": [],
      "payable": false,
      "stateMutability": "nonpayable",
      "type": "function"
    }
  ],
  "bytecode": "0x608060405234801561001057600080fd5b5060405160408061147d83398101604052805160209091015160018054600160a060020a03938416600160a060020a0319918216178255600280549490931693811693909317909155600380548316331790556009805491820181556000527f6e1540171b6c0c960b71a7020d9f60077f6af931a8bbf590da0223dacf75c7af01805490911690556014600a819055600b556113cc806100b16000396000f30060806040526004361061013a5763ffffffff60e060020a60003504166301ddf070811461013f5780630b9663db1461015957806313af40351461016e57806317906c2e1461018f57806320f585ad146101b657806329652e86146101d757806334d1892c1461020b57806351ec42851461022357806351ee6d931461023b57806354ded8ec146102505780635df81330146102655780635fdb3e671461027d5780636103ed2e1461029e5780636214bc0a146102b357806366666aa9146102ce5780636741d1b1146102e357806377c93662146102f8578063869037831461030d5780638da5cb5b1461032557806395a2251f1461033a57806395d4063f1461035b578063a2b0e62c14610376578063acb315851461038b578063c840747f146103a0578063f31fdad4146103c1578063fc0c546a146103d9575b600080fd5b34801561014b57600080fd5b506101576004356103ee565b005b34801561016557600080fd5b50610157610544565b34801561017a57600080fd5b50610157600160a060020a03600435166107df565b34801561019b57600080fd5b506101a4610818565b60408051918252519081900360200190f35b3480156101c257600080fd5b50610157600160a060020a036004351661081f565b3480156101e357600080fd5b506101ef6004356108f5565b60408051600160a060020a039092168252519081900360200190f35b34801561021757600080fd5b506101ef600435610912565b34801561022f57600080fd5b5061015760043561093a565b34801561024757600080fd5b506101a4610a04565b34801561025c57600080fd5b506101a4610a0a565b34801561027157600080fd5b506101a4600435610a10565b34801561028957600080fd5b506101ef600160a060020a0360043516610a22565b3480156102aa57600080fd5b506101a4610caf565b3480156102bf57600080fd5b506101a460ff60043516610cb5565b3480156102da57600080fd5b506101a4610d38565b3480156102ef57600080fd5b506101ef610d3e565b34801561030457600080fd5b50610157610d4d565b34801561031957600080fd5b50610157600435610dc6565b34801561033157600080fd5b506101ef610de2565b34801561034657600080fd5b506101ef600160a060020a0360043516610df1565b34801561036757600080fd5b5061015760ff60043516611030565b34801561038257600080fd5b506101a4611112565b34801561039757600080fd5b506101a4611118565b3480156103ac57600080fd5b50610157600160a060020a036004351661111e565b3480156103cd57600080fd5b5061015760043561125b565b3480156103e557600080fd5b506101ef61130c565b600081815260086020908152604080832033808552818452828520805487875260078652848720805491880b60018181038a0b90930190915583885293909552805460ff1916851790558354600a54845160e060020a632aaa68cd0281526004810184905230602482015260448101919091529351919487949093928692600160a060020a031691632aaa68cd916064808301928b92919082900301818387803b15801561049b57600080fd5b505af11580156104af573d6000803e3d6000fd5b5050600054975050861595506105409450505050505760008054600019909201918190839081106104dc57fe5b60009182526020822001919091558054600019909201918190839081106104ff57fe5b600091825260208220019190915580546000199092019181908390811061052257fe5b90600052602060002001819055508060008161053e919061131f565b505b5050565b61054c611343565b610554611343565b600080600454620151800161056761131b565b101561057257600080fd5b61057a61131b565b60045560065491505b60055460001983019211156106c45760008281526007602052604090205415156105ac576106bf565b5060008181526007602052604090205460808301518113156106af5760408301518113156106705760608084018051608080870191909152604080870151909252918601805192870192909252850151905260208301518113156106595760208084015160408086019190915290850151908501528251811315610646578251602080850191909152818452845190850152818452610654565b602080840182905284018290525b61066b565b60408301819052818460025b60200201525b6106af565b60608301518113156106a1576060808401805160808087019190915290839052908501519085015281846003610665565b608080840182905284018290525b6000828152600760205260408120555b610583565b600091505b600582101561073c5760098483600581106106e057fe5b6020020151815481106106ef57fe5b600091825260209091200154600160a060020a0316600d836005811061071157fe5b018054600160a060020a031916600160a060020a0392909216919091179055600191909101906106c9565b6001546040805160e060020a6370a082310281523060048201529051600160a060020a03909216916370a08231916024808201926020929091908290030181600087803b15801561078c57600080fd5b505af11580156107a0573d6000803e3d6000fd5b505050506040513d60208110156107b657600080fd5b5051600c55600680546005556009549055600a54600b54146107d957600b54600a555b50505050565b600354600160a060020a031633146107f657600080fd5b60038054600160a060020a031916600160a060020a0392909216919091179055565b6009545b90565b600254600160a060020a0316331461083657600080fd5b600154600a546040805160e060020a632aaa68cd028152600160a060020a0380861660048301523060248301526044820193909352905184939290921691632aaa68cd9160648082019260009290919082900301818387803b15801561089b57600080fd5b505af11580156108af573d6000803e3d6000fd5b505060098054600181018255600091909152600080516020611381833981519152018054600160a060020a031916600160a060020a039590951694909417909355505050565b600d816005811061090257fe5b0154600160a060020a0316905081565b600980548290811061092057fe5b600091825260209091200154600160a060020a0316905081565b600081815260086020908152604080832033808552818452828520805487875260078652848720805491880b808903890b909201905582875292909452835460ff1916909355600154600a54835160e060020a632aaa68cd02815260048101869052306024820152604481019190915292519394869490938692600160a060020a031691632aaa68cd91606480820192889290919082900301818387803b1580156109e457600080fd5b505af11580156109f8573d6000803e3d6000fd5b50505050505050505050565b60055481565b60065481565b60076020526000908152604090205481565b6003546000908190600160a060020a03163314610a3e57600080fd5b6001546040805160e060020a63131519810281529051600160a060020a039283169286169163131519819160048083019260209291908290030181600087803b158015610a8a57600080fd5b505af1158015610a9e573d6000803e3d6000fd5b505050506040513d6020811015610ab457600080fd5b5051600160a060020a031614610ac957600080fd5b6001546040805160e060020a6370a082310281523060048201529051600160a060020a039092169163095ea7b391869184916370a082319160248083019260209291908290030181600087803b158015610b2257600080fd5b505af1158015610b36573d6000803e3d6000fd5b505050506040513d6020811015610b4c57600080fd5b50516040805160e060020a63ffffffff8616028152600160a060020a03909316600484015260248301919091525160448083019260209291908290030181600087803b158015610b9b57600080fd5b505af1158015610baf573d6000803e3d6000fd5b505050506040513d6020811015610bc557600080fd5b50506040805160e060020a63881be8f70281529051600160a060020a0385169163881be8f791600480830192600092919082900301818387803b158015610c0b57600080fd5b505af1158015610c1f573d6000803e3d6000fd5b5050505082600160a060020a031663d5ce33896040518163ffffffff1660e060020a028152600401602060405180830381600087803b158015610c6157600080fd5b505af1158015610c75573d6000803e3d6000fd5b505050506040513d6020811015610c8b57600080fd5b505160018054600160a060020a031916600160a060020a0383161790559392505050565b60045481565b600060ff82161515610cd357600c546005906002025b049050610d33565b8160ff1660011415610cea57600c54600490610ccb565b8160ff1660021415610d0157600c54600590610ccb565b8160ff1660031415610d1857600c54600a90610ccb565b8160ff1660041415610d2f57600c54601490610ccb565b5060005b919050565b600c5481565b600254600160a060020a031681565b60008054906003820190610d61908261131f565b506001600082815481101515610d7357fe5b90600052602060002001819055506001600082600101815481101515610d9557fe5b90600052602060002001819055506001600082600201815481101515610db757fe5b60009182526020909120015550565b600354600160a060020a03163314610ddd57600080fd5b600b55565b600354600160a060020a031681565b6003546000908190600160a060020a03163314610e0d57600080fd5b6001546040805160e060020a63d5ce33890281529051600160a060020a039283169286169163d5ce33899160048083019260209291908290030181600087803b158015610e5957600080fd5b505af1158015610e6d573d6000803e3d6000fd5b505050506040513d6020811015610e8357600080fd5b5051600160a060020a031614610e9857600080fd5b6001546040805160e060020a6370a082310281523060048201529051600160a060020a039092169163095ea7b391869184916370a082319160248083019260209291908290030181600087803b158015610ef157600080fd5b505af1158015610f05573d6000803e3d6000fd5b505050506040513d6020811015610f1b57600080fd5b50516040805160e060020a63ffffffff8616028152600160a060020a03909316600484015260248301919091525160448083019260209291908290030181600087803b158015610f6a57600080fd5b505af1158015610f7e573d6000803e3d6000fd5b505050506040513d6020811015610f9457600080fd5b50506040805160e460020a630be040fb0281529051600160a060020a0385169163be040fb091600480830192600092919082900301818387803b158015610fda57600080fd5b505af1158015610fee573d6000803e3d6000fd5b5050505082600160a060020a031663131519816040518163ffffffff1660e060020a028152600401602060405180830381600087803b158015610c6157600080fd5b33600d60ff83166005811061104157fe5b0154600160a060020a03161461105657600080fd5b6000600d60ff83166005811061106857fe5b018054600160a060020a031916600160a060020a039283161790556001541663a9059cbb3361109684610cb5565b6040518363ffffffff1660e060020a0281526004018083600160a060020a0316600160a060020a0316815260200182815260200192505050602060405180830381600087803b1580156110e857600080fd5b505af11580156110fc573d6000803e3d6000fd5b505050506040513d602081101561053e57600080fd5b600b5481565b600a5481565b600254600090600160a060020a0316331461113857600080fd5b6009546000818152600860209081526040808320600160a060020a03878116808652828552838620805488885260078752858820805491890b60018181038b0b90930190915583895294909652805460ff1916861790558454600a54855160e060020a632aaa68cd02815260048101939093523060248401526044830152935189979693948894931692632aaa68cd926064808201939182900301818387803b1580156111e457600080fd5b505af11580156111f8573d6000803e3d6000fd5b5050600980546001810182556000918252600080516020611381833981519152018054600160a060020a031916600160a060020a038c1617905554975050861595506105409450505050505760008054600019909201918190839081106104dc57fe5b600081815260086020908152604080832033808552818452828520805487875260078652848720805491880b6000198181038a0b9390930190915583885293909552805460ff191660ff179055600154600a54845160e060020a632aaa68cd0281526004810184905230602482015260448101919091529351919487949093928692600160a060020a031691632aaa68cd916064808301928b92919082900301818387803b15801561049b57600080fd5b600154600160a060020a031681565b4290565b81548183558181111561053e5760008381526020902061053e918101908301611362565b60a0604051908101604052806005906020820280388339509192915050565b61081c91905b8082111561137c5760008155600101611368565b509056006e1540171b6c0c960b71a7020d9f60077f6af931a8bbf590da0223dacf75c7afa165627a7a7230582010e10845b10953cdc7a99d8f409f23c2ad8809182ae017692e90a3f79b01bc7b0029",
  "source": "/*\n  Copyright 2018 Menlo, Inc.\n\n  Licensed under the Apache License, Version 2.0 (the “License”);\n  you may not use this file except in compliance with the License.\n  You may obtain a copy of the License at\n\n  http://www.apache.org/licenses/LICENSE-2.0\n\n  Unless required by applicable law or agreed to in writing, software\n  distributed under the License is distributed on an “AS IS” BASIS,\n  WITHOUT WARRANTIES OR CONDITIONS OF ANY KIND, either express or implied.\n  See the License for the specific language governing permissions and\n  limitations under the License.\n*/\npragma solidity^0.4.19;\n\nimport \"./AppToken.sol\";\nimport \"./Forum.sol\";\nimport \"./Redeemer.sol\";\n\ncontract Lottery is Beneficiary, Sponsored {\n    // though ERC20 says tokens *should* revert in transferFrom without allowance\n    // this token *must* revert\n    AppToken public token;\n    Forum public forum;\n    address public owner;\n    uint256 public epochTimestamp;\n    uint256 public epochPrior;\n    uint256 public epochCurrent;\n    mapping (uint256 => int256) public votes;\n    mapping (uint256 => mapping (address => int8)) voters;\n    address[] public posters;\n\n    uint256 public postCost;\n    uint256 public nextPostCost;\n\n    function postCount() public view returns (uint256) {\n        return posters.length;\n    }\n\n    uint256 public rewardPool;\n    address[5] public payouts;\n\n  constructor(AppToken _token, Forum _forum) public {\n        token = _token;\n        forum = _forum;\n        owner = msg.sender;\n        posters.push(0); // no author for root post 0\n        postCost = 20;\n        nextPostCost = 20;\n    }\n\n    modifier vote(address _voter, uint256 _offset, int8 _direction) {\n        int8 priorVote = voters[_offset][_voter];\n        votes[_offset] += _direction - priorVote;\n        voters[_offset][_voter] = _direction;\n        _;\n    }\n    modifier transfersToken(address _voter) {\n        token.appTransfer(_voter, this, postCost);\n        _;\n    }\n    function upvote(uint256 _offset) external sponsored vote(msg.sender, _offset, 1) transfersToken(msg.sender) {\n    }\n    function downvote(uint256 _offset) external sponsored vote(msg.sender, _offset, -1) transfersToken(msg.sender) {\n    }\n    function unvote(uint256 _offset) external vote(msg.sender, _offset, 0) transfersToken(msg.sender) {\n    }\n    function endEpoch() external {\n        require(era() >= epochTimestamp + 1 days);\n        epochTimestamp = era();\n\n        uint256[5] memory winners;\n        int256[5] memory topVotes;\n        // get top 5 posts\n        for (uint256 i = epochCurrent; i --> epochPrior;) {\n            if (votes[i] == 0) {\n                continue;\n            }\n\n            int256 current = votes[i];\n            if (current > topVotes[4]) {\n                // insert it\n\n                /*\n                uint8 j = 4;\n                while (topVotes[j-1] < current) {\n                    topVotes[j] = topVotes[j-1];\n                    winners[j] = winners[j-1];\n                    j--;\n                    if (j == 0) {\n                        break;\n                    }\n                }\n                topVotes[j] = current;\n                winners[j] = i;\n                */\n                // the code below is equivalent to the commented code above\n                if (current > topVotes[2]) {\n                    topVotes[4] = topVotes[3];\n                    topVotes[3] = topVotes[2];\n                    winners[4] = winners[3];\n                    winners[3] = winners[2];\n                    if (current > topVotes[1]) {\n                        topVotes[2] = topVotes[1];\n                        winners[2] = winners[1];\n                        if (current > topVotes[0]) {\n                            topVotes[1] = topVotes[0];\n                            topVotes[0] = current;\n                            winners[1] = winners[0];\n                            winners[0] = i;\n                        } else {\n                            topVotes[1] = current;\n                            winners[1] = i;\n                        }\n                    } else {\n                        topVotes[2] = current;\n                        winners[2] = i;\n                    }\n                } else {\n                    if (current > topVotes[3]) {\n                        topVotes[4] = topVotes[3];\n                        topVotes[3] = current;\n                        winners[4] = winners[3];\n                        winners[3] = i;\n                    } else {\n                        topVotes[4] = current;\n                        winners[4] = i;\n                    }\n                }\n            }\n            votes[i] = 0;\n        }\n\n        // write the new winners\n        for (i = 0; i < 5; i++) {\n            payouts[i] = posters[winners[i]];\n        }\n        // refresh the pool\n        rewardPool = token.balanceOf(this);\n        epochPrior = epochCurrent;\n        epochCurrent = posters.length;\n        if (nextPostCost != postCost) {\n            postCost = nextPostCost;\n        }\n    }\n    function reward(uint8 _payout) public view returns (uint256) {\n        // I wish we had switch()\n        if (_payout == 0) {\n            return rewardPool * 2 / 5;\n        } else if (_payout == 1) {\n            return rewardPool / 4;\n        } else if (_payout == 2) {\n            return rewardPool / 5;\n        } else if (_payout == 3) {\n            return rewardPool / 10;\n        } else if (_payout == 4) {\n            return rewardPool / 20;\n        }\n        return 0;\n    }\n    function claim(uint8 _payout) external {\n        require(payouts[_payout] == msg.sender);\n        payouts[_payout] = 0;\n        token.transfer(msg.sender, reward(_payout));\n    }\n    modifier onlyOwner {\n        require (msg.sender == owner);\n        _;\n    }\n    function setOwner(address _owner) external onlyOwner {\n        owner = _owner;\n    }\n    function setNextPostCost(uint256 _nextPostCost) external onlyOwner {\n        nextPostCost = _nextPostCost;\n    }\n    function redeem(Redeemer _redeemer) external onlyOwner returns (AppToken) {\n        require(_redeemer.from() == token);\n\n        token.approve(_redeemer, token.balanceOf(this));\n        _redeemer.redeem();\n        AppToken to = _redeemer.to();\n        token = to;\n        return to;\n    }\n    function undo(Redeemer _redeemer) external onlyOwner returns (AppToken) {\n        require(_redeemer.to() == token);\n\n        token.approve(_redeemer, token.balanceOf(this));\n        _redeemer.undo();\n        AppToken from = _redeemer.from();\n        token = from;\n        return from;\n    }\n    function era() internal view returns (uint256) {\n        return now;\n    }\n    modifier pushPoster(address _poster) {\n        posters.push(_poster);\n        _;\n    }\n    modifier onlyForum {\n        require(msg.sender == address(forum));\n        _;\n    }\n    function onPostUpvote(address _poster) sponsored external onlyForum vote(_poster, posters.length, 1) transfersToken(_poster) pushPoster(_poster) {}\n    function onPost(address _poster) external onlyForum transfersToken(_poster) pushPoster(_poster) {}\n}\n",
  "sourcePath": "/Users/dave/Code/expo-demo/contracts/Lottery.sol",
  "compiler": {
    "name": "solc",
    "version": "0.4.24+commit.e67f0147.Emscripten.clang"
  },
  "schemaVersion": "2.0.1",
  "updatedAt": "2018-08-17T21:49:45.094Z"
}