{
  "contractName": "MenloReputation",
  "abi": [
    {
      "constant": false,
      "inputs": [],
      "name": "renounceOwnership",
      "outputs": [],
      "payable": false,
      "stateMutability": "nonpayable",
      "type": "function"
    },
    {
      "constant": true,
      "inputs": [
        {
          "name": "",
          "type": "address"
        }
      ],
      "name": "forums",
      "outputs": [
        {
          "name": "",
          "type": "bool"
        }
      ],
      "payable": false,
      "stateMutability": "view",
      "type": "function"
    },
    {
      "constant": true,
      "inputs": [],
      "name": "owner",
      "outputs": [
        {
          "name": "",
          "type": "address"
        }
      ],
      "payable": false,
      "stateMutability": "view",
      "type": "function"
    },
    {
      "constant": true,
      "inputs": [
        {
          "name": "",
          "type": "address"
        }
      ],
      "name": "alias",
      "outputs": [
        {
          "name": "",
          "type": "string"
        }
      ],
      "payable": false,
      "stateMutability": "view",
      "type": "function"
    },
    {
      "constant": true,
      "inputs": [
        {
          "name": "",
          "type": "address"
        }
      ],
      "name": "reputation",
      "outputs": [
        {
          "name": "",
          "type": "uint256"
        }
      ],
      "payable": false,
      "stateMutability": "view",
      "type": "function"
    },
    {
      "constant": false,
      "inputs": [
        {
          "name": "_newOwner",
          "type": "address"
        }
      ],
      "name": "transferOwnership",
      "outputs": [],
      "payable": false,
      "stateMutability": "nonpayable",
      "type": "function"
    },
    {
      "inputs": [
        {
          "name": "_forum",
          "type": "address"
        }
      ],
      "payable": false,
      "stateMutability": "nonpayable",
      "type": "constructor"
    },
    {
      "anonymous": false,
      "inputs": [
        {
          "indexed": true,
          "name": "previousOwner",
          "type": "address"
        }
      ],
      "name": "OwnershipRenounced",
      "type": "event"
    },
    {
      "anonymous": false,
      "inputs": [
        {
          "indexed": true,
          "name": "previousOwner",
          "type": "address"
        },
        {
          "indexed": true,
          "name": "newOwner",
          "type": "address"
        }
      ],
      "name": "OwnershipTransferred",
      "type": "event"
    },
    {
      "constant": false,
      "inputs": [
        {
          "name": "_alias",
          "type": "string"
        }
      ],
      "name": "setAlias",
      "outputs": [],
      "payable": false,
      "stateMutability": "nonpayable",
      "type": "function"
    },
    {
      "constant": false,
      "inputs": [
        {
          "name": "_user",
          "type": "address"
        },
        {
          "name": "_rep",
          "type": "uint256"
        }
      ],
      "name": "addReputation",
      "outputs": [],
      "payable": false,
      "stateMutability": "nonpayable",
      "type": "function"
    }
  ],
  "bytecode": "0x608060405234801561001057600080fd5b506040516020806105f7833981016040525160008054600160a060020a03191633179055600160a060020a0381161561006757600160a060020a0381166000908152600360205260409020805460ff191660011790555b50610580806100776000396000f30060806040526004361061008d5763ffffffff7c01000000000000000000000000000000000000000000000000000000006000350416636a293d048114610092578063715018a6146100ed5780637963382e146101025780638da5cb5b14610137578063a64140d414610168578063b9f79451146101fe578063e24f831314610231578063f2fde38b14610255575b600080fd5b34801561009e57600080fd5b506040805160206004803580820135601f81018490048402850184019095528484526100eb9436949293602493928401919081908401838280828437509497506102769650505050505050565b005b3480156100f957600080fd5b506100eb61029a565b34801561010e57600080fd5b50610123600160a060020a0360043516610306565b604080519115158252519081900360200190f35b34801561014357600080fd5b5061014c61031b565b60408051600160a060020a039092168252519081900360200190f35b34801561017457600080fd5b50610189600160a060020a036004351661032a565b6040805160208082528351818301528351919283929083019185019080838360005b838110156101c35781810151838201526020016101ab565b50505050905090810190601f1680156101f05780820380516001836020036101000a031916815260200191505b509250505060405180910390f35b34801561020a57600080fd5b5061021f600160a060020a03600435166103c4565b60408051918252519081900360200190f35b34801561023d57600080fd5b506100eb600160a060020a03600435166024356103d6565b34801561026157600080fd5b506100eb600160a060020a0360043516610419565b3360009081526001602090815260409091208251610296928401906104b9565b5050565b600054600160a060020a031633146102b157600080fd5b60008054604051600160a060020a03909116917ff8df31144d9c2f0f6b59d69b8b98abd5459d07f2742c4df920b25aae33c6482091a26000805473ffffffffffffffffffffffffffffffffffffffff19169055565b60036020526000908152604090205460ff1681565b600054600160a060020a031681565b60016020818152600092835260409283902080548451600294821615610100026000190190911693909304601f81018390048302840183019094528383529192908301828280156103bc5780601f10610391576101008083540402835291602001916103bc565b820191906000526020600020905b81548152906001019060200180831161039f57829003601f168201915b505050505081565b60026020526000908152604090205481565b3360009081526003602052604090205460ff1615156001146103f757600080fd5b600160a060020a03909116600090815260026020526040902080549091019055565b600054600160a060020a0316331461043057600080fd5b6104398161043c565b50565b600160a060020a038116151561045157600080fd5b60008054604051600160a060020a03808516939216917f8be0079c531659141344cd1fd0a4f28419497f9722a3daafe3b4186f6b6457e091a36000805473ffffffffffffffffffffffffffffffffffffffff1916600160a060020a0392909216919091179055565b828054600181600116156101000203166002900490600052602060002090601f016020900481019282601f106104fa57805160ff1916838001178555610527565b82800160010185558215610527579182015b8281111561052757825182559160200191906001019061050c565b50610533929150610537565b5090565b61055191905b80821115610533576000815560010161053d565b905600a165627a7a723058208a09a6802b6d17ae84bc75cf12c0808fd8e47184fa1f5bb91374982e9ec457660029",
  "source": "pragma solidity ^0.4.13;\n\nlibrary SafeMath {\n\n  /**\n  * @dev Multiplies two numbers, throws on overflow.\n  */\n  function mul(uint256 _a, uint256 _b) internal pure returns (uint256 c) {\n    // Gas optimization: this is cheaper than asserting 'a' not being zero, but the\n    // benefit is lost if 'b' is also tested.\n    // See: https://github.com/OpenZeppelin/openzeppelin-solidity/pull/522\n    if (_a == 0) {\n      return 0;\n    }\n\n    c = _a * _b;\n    assert(c / _a == _b);\n    return c;\n  }\n\n  /**\n  * @dev Integer division of two numbers, truncating the quotient.\n  */\n  function div(uint256 _a, uint256 _b) internal pure returns (uint256) {\n    // assert(_b > 0); // Solidity automatically throws when dividing by 0\n    // uint256 c = _a / _b;\n    // assert(_a == _b * c + _a % _b); // There is no case in which this doesn't hold\n    return _a / _b;\n  }\n\n  /**\n  * @dev Subtracts two numbers, throws on overflow (i.e. if subtrahend is greater than minuend).\n  */\n  function sub(uint256 _a, uint256 _b) internal pure returns (uint256) {\n    assert(_b <= _a);\n    return _a - _b;\n  }\n\n  /**\n  * @dev Adds two numbers, throws on overflow.\n  */\n  function add(uint256 _a, uint256 _b) internal pure returns (uint256 c) {\n    c = _a + _b;\n    assert(c >= _a);\n    return c;\n  }\n}\n\ncontract Ownable {\n  address public owner;\n\n\n  event OwnershipRenounced(address indexed previousOwner);\n  event OwnershipTransferred(\n    address indexed previousOwner,\n    address indexed newOwner\n  );\n\n\n  /**\n   * @dev The Ownable constructor sets the original `owner` of the contract to the sender\n   * account.\n   */\n  constructor() public {\n    owner = msg.sender;\n  }\n\n  /**\n   * @dev Throws if called by any account other than the owner.\n   */\n  modifier onlyOwner() {\n    require(msg.sender == owner);\n    _;\n  }\n\n  /**\n   * @dev Allows the current owner to relinquish control of the contract.\n   * @notice Renouncing to ownership will leave the contract without an owner.\n   * It will not be possible to call the functions with the `onlyOwner`\n   * modifier anymore.\n   */\n  function renounceOwnership() public onlyOwner {\n    emit OwnershipRenounced(owner);\n    owner = address(0);\n  }\n\n  /**\n   * @dev Allows the current owner to transfer control of the contract to a newOwner.\n   * @param _newOwner The address to transfer ownership to.\n   */\n  function transferOwnership(address _newOwner) public onlyOwner {\n    _transferOwnership(_newOwner);\n  }\n\n  /**\n   * @dev Transfers control of the contract to a newOwner.\n   * @param _newOwner The address to transfer ownership to.\n   */\n  function _transferOwnership(address _newOwner) internal {\n    require(_newOwner != address(0));\n    emit OwnershipTransferred(owner, _newOwner);\n    owner = _newOwner;\n  }\n}\n\ncontract Pausable is Ownable {\n  event Pause();\n  event Unpause();\n\n  bool public paused = false;\n\n\n  /**\n   * @dev Modifier to make a function callable only when the contract is not paused.\n   */\n  modifier whenNotPaused() {\n    require(!paused);\n    _;\n  }\n\n  /**\n   * @dev Modifier to make a function callable only when the contract is paused.\n   */\n  modifier whenPaused() {\n    require(paused);\n    _;\n  }\n\n  /**\n   * @dev called by the owner to pause, triggers stopped state\n   */\n  function pause() public onlyOwner whenNotPaused {\n    paused = true;\n    emit Pause();\n  }\n\n  /**\n   * @dev called by the owner to unpause, returns to normal state\n   */\n  function unpause() public onlyOwner whenPaused {\n    paused = false;\n    emit Unpause();\n  }\n}\n\ncontract CanReclaimToken is Ownable {\n  using SafeERC20 for ERC20Basic;\n\n  /**\n   * @dev Reclaim all ERC20Basic compatible tokens\n   * @param _token ERC20Basic The address of the token contract\n   */\n  function reclaimToken(ERC20Basic _token) external onlyOwner {\n    uint256 balance = _token.balanceOf(this);\n    _token.safeTransfer(owner, balance);\n  }\n\n}\n\ncontract ERC20Basic {\n  function totalSupply() public view returns (uint256);\n  function balanceOf(address _who) public view returns (uint256);\n  function transfer(address _to, uint256 _value) public returns (bool);\n  event Transfer(address indexed from, address indexed to, uint256 value);\n}\n\ncontract BasicToken is ERC20Basic {\n  using SafeMath for uint256;\n\n  mapping(address => uint256) internal balances;\n\n  uint256 internal totalSupply_;\n\n  /**\n  * @dev Total number of tokens in existence\n  */\n  function totalSupply() public view returns (uint256) {\n    return totalSupply_;\n  }\n\n  /**\n  * @dev Transfer token for a specified address\n  * @param _to The address to transfer to.\n  * @param _value The amount to be transferred.\n  */\n  function transfer(address _to, uint256 _value) public returns (bool) {\n    require(_value <= balances[msg.sender]);\n    require(_to != address(0));\n\n    balances[msg.sender] = balances[msg.sender].sub(_value);\n    balances[_to] = balances[_to].add(_value);\n    emit Transfer(msg.sender, _to, _value);\n    return true;\n  }\n\n  /**\n  * @dev Gets the balance of the specified address.\n  * @param _owner The address to query the the balance of.\n  * @return An uint256 representing the amount owned by the passed address.\n  */\n  function balanceOf(address _owner) public view returns (uint256) {\n    return balances[_owner];\n  }\n\n}\n\ncontract BurnableToken is BasicToken {\n\n  event Burn(address indexed burner, uint256 value);\n\n  /**\n   * @dev Burns a specific amount of tokens.\n   * @param _value The amount of token to be burned.\n   */\n  function burn(uint256 _value) public {\n    _burn(msg.sender, _value);\n  }\n\n  function _burn(address _who, uint256 _value) internal {\n    require(_value <= balances[_who]);\n    // no need to require value <= totalSupply, since that would imply the\n    // sender's balance is greater than the totalSupply, which *should* be an assertion failure\n\n    balances[_who] = balances[_who].sub(_value);\n    totalSupply_ = totalSupply_.sub(_value);\n    emit Burn(_who, _value);\n    emit Transfer(_who, address(0), _value);\n  }\n}\n\ncontract ERC20 is ERC20Basic {\n  function allowance(address _owner, address _spender)\n    public view returns (uint256);\n\n  function transferFrom(address _from, address _to, uint256 _value)\n    public returns (bool);\n\n  function approve(address _spender, uint256 _value) public returns (bool);\n  event Approval(\n    address indexed owner,\n    address indexed spender,\n    uint256 value\n  );\n}\n\nlibrary SafeERC20 {\n  function safeTransfer(\n    ERC20Basic _token,\n    address _to,\n    uint256 _value\n  )\n    internal\n  {\n    require(_token.transfer(_to, _value));\n  }\n\n  function safeTransferFrom(\n    ERC20 _token,\n    address _from,\n    address _to,\n    uint256 _value\n  )\n    internal\n  {\n    require(_token.transferFrom(_from, _to, _value));\n  }\n\n  function safeApprove(\n    ERC20 _token,\n    address _spender,\n    uint256 _value\n  )\n    internal\n  {\n    require(_token.approve(_spender, _value));\n  }\n}\n\ncontract StandardToken is ERC20, BasicToken {\n\n  mapping (address => mapping (address => uint256)) internal allowed;\n\n\n  /**\n   * @dev Transfer tokens from one address to another\n   * @param _from address The address which you want to send tokens from\n   * @param _to address The address which you want to transfer to\n   * @param _value uint256 the amount of tokens to be transferred\n   */\n  function transferFrom(\n    address _from,\n    address _to,\n    uint256 _value\n  )\n    public\n    returns (bool)\n  {\n    require(_value <= balances[_from]);\n    require(_value <= allowed[_from][msg.sender]);\n    require(_to != address(0));\n\n    balances[_from] = balances[_from].sub(_value);\n    balances[_to] = balances[_to].add(_value);\n    allowed[_from][msg.sender] = allowed[_from][msg.sender].sub(_value);\n    emit Transfer(_from, _to, _value);\n    return true;\n  }\n\n  /**\n   * @dev Approve the passed address to spend the specified amount of tokens on behalf of msg.sender.\n   * Beware that changing an allowance with this method brings the risk that someone may use both the old\n   * and the new allowance by unfortunate transaction ordering. One possible solution to mitigate this\n   * race condition is to first reduce the spender's allowance to 0 and set the desired value afterwards:\n   * https://github.com/ethereum/EIPs/issues/20#issuecomment-263524729\n   * @param _spender The address which will spend the funds.\n   * @param _value The amount of tokens to be spent.\n   */\n  function approve(address _spender, uint256 _value) public returns (bool) {\n    allowed[msg.sender][_spender] = _value;\n    emit Approval(msg.sender, _spender, _value);\n    return true;\n  }\n\n  /**\n   * @dev Function to check the amount of tokens that an owner allowed to a spender.\n   * @param _owner address The address which owns the funds.\n   * @param _spender address The address which will spend the funds.\n   * @return A uint256 specifying the amount of tokens still available for the spender.\n   */\n  function allowance(\n    address _owner,\n    address _spender\n   )\n    public\n    view\n    returns (uint256)\n  {\n    return allowed[_owner][_spender];\n  }\n\n  /**\n   * @dev Increase the amount of tokens that an owner allowed to a spender.\n   * approve should be called when allowed[_spender] == 0. To increment\n   * allowed value is better to use this function to avoid 2 calls (and wait until\n   * the first transaction is mined)\n   * From MonolithDAO Token.sol\n   * @param _spender The address which will spend the funds.\n   * @param _addedValue The amount of tokens to increase the allowance by.\n   */\n  function increaseApproval(\n    address _spender,\n    uint256 _addedValue\n  )\n    public\n    returns (bool)\n  {\n    allowed[msg.sender][_spender] = (\n      allowed[msg.sender][_spender].add(_addedValue));\n    emit Approval(msg.sender, _spender, allowed[msg.sender][_spender]);\n    return true;\n  }\n\n  /**\n   * @dev Decrease the amount of tokens that an owner allowed to a spender.\n   * approve should be called when allowed[_spender] == 0. To decrement\n   * allowed value is better to use this function to avoid 2 calls (and wait until\n   * the first transaction is mined)\n   * From MonolithDAO Token.sol\n   * @param _spender The address which will spend the funds.\n   * @param _subtractedValue The amount of tokens to decrease the allowance by.\n   */\n  function decreaseApproval(\n    address _spender,\n    uint256 _subtractedValue\n  )\n    public\n    returns (bool)\n  {\n    uint256 oldValue = allowed[msg.sender][_spender];\n    if (_subtractedValue >= oldValue) {\n      allowed[msg.sender][_spender] = 0;\n    } else {\n      allowed[msg.sender][_spender] = oldValue.sub(_subtractedValue);\n    }\n    emit Approval(msg.sender, _spender, allowed[msg.sender][_spender]);\n    return true;\n  }\n\n}\n\ncontract PausableToken is StandardToken, Pausable {\n\n  function transfer(\n    address _to,\n    uint256 _value\n  )\n    public\n    whenNotPaused\n    returns (bool)\n  {\n    return super.transfer(_to, _value);\n  }\n\n  function transferFrom(\n    address _from,\n    address _to,\n    uint256 _value\n  )\n    public\n    whenNotPaused\n    returns (bool)\n  {\n    return super.transferFrom(_from, _to, _value);\n  }\n\n  function approve(\n    address _spender,\n    uint256 _value\n  )\n    public\n    whenNotPaused\n    returns (bool)\n  {\n    return super.approve(_spender, _value);\n  }\n\n  function increaseApproval(\n    address _spender,\n    uint _addedValue\n  )\n    public\n    whenNotPaused\n    returns (bool success)\n  {\n    return super.increaseApproval(_spender, _addedValue);\n  }\n\n  function decreaseApproval(\n    address _spender,\n    uint _subtractedValue\n  )\n    public\n    whenNotPaused\n    returns (bool success)\n  {\n    return super.decreaseApproval(_spender, _subtractedValue);\n  }\n}\n\ncontract MenloToken is PausableToken, BurnableToken, CanReclaimToken {\n\n  // Token properties\n  string public constant name = 'Menlo One';\n  string public constant symbol = 'ONE';\n\n  uint8 public constant decimals = 18;\n  uint256 private constant token_factor = 10**uint256(decimals);\n\n  // 1 billion ONE tokens in units divisible up to 18 decimals\n  uint256 public constant INITIAL_SUPPLY    = 1000000000 * token_factor;\n\n  uint256 public constant PUBLICSALE_SUPPLY = 354000000 * token_factor;\n  uint256 public constant GROWTH_SUPPLY     = 246000000 * token_factor;\n  uint256 public constant TEAM_SUPPLY       = 200000000 * token_factor;\n  uint256 public constant ADVISOR_SUPPLY    = 100000000 * token_factor;\n  uint256 public constant PARTNER_SUPPLY    = 100000000 * token_factor;\n\n  /**\n   * @dev Magic value to be returned upon successful reception of Menlo Tokens\n   */\n  bytes4 internal constant ONE_RECEIVED = 0x150b7a03;\n\n  address public crowdsale;\n  address public teamTimelock;\n  address public advisorTimelock;\n\n  modifier notInitialized(address saleAddress) {\n    require(address(saleAddress) == address(0), \"Expected address to be null\");\n    _;\n  }\n\n  constructor(address _growth, address _teamTimelock, address _advisorTimelock, address _partner) public {\n    assert(INITIAL_SUPPLY > 0);\n    assert((PUBLICSALE_SUPPLY + GROWTH_SUPPLY + TEAM_SUPPLY + ADVISOR_SUPPLY + PARTNER_SUPPLY) == INITIAL_SUPPLY);\n\n    uint256 _poolTotal = GROWTH_SUPPLY + TEAM_SUPPLY + ADVISOR_SUPPLY + PARTNER_SUPPLY;\n    uint256 _availableForSales = INITIAL_SUPPLY - _poolTotal;\n\n    assert(_availableForSales == PUBLICSALE_SUPPLY);\n\n    teamTimelock = _teamTimelock;\n    advisorTimelock = _advisorTimelock;\n\n    mint(msg.sender, _availableForSales);\n    mint(_growth, GROWTH_SUPPLY);\n    mint(_teamTimelock, TEAM_SUPPLY);\n    mint(_advisorTimelock, ADVISOR_SUPPLY);\n    mint(_partner, PARTNER_SUPPLY);\n\n    assert(totalSupply_ == INITIAL_SUPPLY);\n    pause();\n  }\n\n  function initializeCrowdsale(address _crowdsale) public onlyOwner notInitialized(crowdsale) {\n    unpause();\n    transfer(_crowdsale, balances[msg.sender]);  // Transfer left over balance after private presale allocations\n    crowdsale = _crowdsale;\n    pause();\n    transferOwnership(_crowdsale);\n  }\n\n  function mint(address _to, uint256 _amount) internal {\n    balances[_to] = _amount;\n    totalSupply_ = totalSupply_.add(_amount);\n    emit Transfer(address(0), _to, _amount);\n  }\n\n  /**\n   * @dev Safely transfers the ownership of a given token ID to another address\n   * If the target address is a contract, it must implement `onERC721Received`,\n   * which is called upon a safe transfer, and return the magic value `bytes4(0x150b7a03)`;\n   * otherwise, the transfer is reverted.\n   * Requires the msg sender to be the owner, approved, or operator\n   * @param _to address to receive the tokens.  Must be a MenloTokenReceiver based contract\n   * @param _value uint256 number of tokens to transfer\n   * @param _action uint256 action to perform in target _to contract\n   * @param _data bytes data to send along with a safe transfer check\n   **/\n  function transferAndCall(address _to, uint256 _value, uint256 _action, bytes _data) public returns (bool) {\n    if (transfer(_to, _value)) {\n      require (MenloTokenReceiver(_to).onTokenReceived(msg.sender, _value, _action, _data) == ONE_RECEIVED, \"Target contract onTokenReceived failed\");\n      return true;\n    }\n\n    return false;\n  }\n}\n\ncontract MenloTokenReceiver {\n\n    /*\n     * @dev Address of the MenloToken contract\n     */\n    MenloToken token;\n\n    constructor(MenloToken _tokenContract) public {\n        token = _tokenContract;\n    }\n\n    /**\n     * @dev Magic value to be returned upon successful reception of Menlo Tokens\n     */\n    bytes4 internal constant ONE_RECEIVED = 0x150b7a03;\n\n    /**\n     * @dev Throws if called by any account other than the Menlo Token contract.\n     */\n    modifier onlyTokenContract() {\n        require(msg.sender == address(token));\n        _;\n    }\n\n    /**\n     * @notice Handle the receipt of Menlo Tokens\n     * @dev The MenloToken contract calls this function on the recipient\n     * after a `transferAndCall`. This function MAY throw to revert and reject the\n     * transfer. Return of other than the magic value MUST result in the\n     * transaction being reverted.\n     * Warning: this function must call the onlyTokenContract modifier to trust\n     * the transfer took place\n     * @param _from The address which previously owned the token\n     * @param _value Number of tokens that were transfered\n     * @param _action Used to define enumeration of possible functions to call\n     * @param _data Additional data with no specified format\n     * @return `bytes4(0x150b7a03)`\n     */\n    function onTokenReceived(\n        address _from,\n        uint256 _value,\n        uint256 _action,\n        bytes _data\n    ) public /* onlyTokenContract */ returns(bytes4);\n}\n\ncontract BytesDecode {\n\n    function decodeUint(bytes b, uint index) internal pure returns (uint256 result, uint i) {\n        uint c = 0;\n\n        require(uint(b[index++]) == 34, \"Expected \\\" for var\"); // \"\n\n        for (i = index; i < b.length && uint(b[i]) != 34; i++) {\n            c = uint(b[i]);\n            if (c >= 48 && c <= 57) {\n                result = result * 10 + (c - 48);\n            }\n        }\n        i += 2;\n    }\n\n    function decodeAddress(bytes b, uint index) internal pure returns (address result, uint i) {\n        uint c = 0;\n        uint256 r = 0;\n\n        require(b.length - index > 3, \"Expected \\\"0x for var\");\n        require(uint(b[index++]) == 34, \"Expected \\\" for var\");  // \"\n        require(uint(b[index++]) == 48, \"Expected 0 for var\");  // 0\n        require(uint(b[index++]) == 120, \"Expected x for var\"); // x\n\n        for (i = index; i < b.length && uint(b[i]) != 34; i++) {\n            c = uint(b[i]);\n\n            if (c >= 48 && c <= 57) {\n                r = r * 16 + (c - 48);\n            } else\n                if (c >= 65 && c <= 70) {\n                    r = r * 16 + (c - 65 + 10);\n                } else\n                    if (c >= 97 && c <= 102) {\n                        r = r * 16 + (c - 97 + 10);\n                    }\n        }\n        i += 2;\n\n        result = address(r);\n    }\n\n    function decodeBytes32(bytes b, uint index) internal pure returns (bytes32 result, uint i) {\n        uint r = 0;\n        uint c = 0;\n        bytes32 b32;\n\n        require(b.length - index > 3, \"Expected \\\"0x for var\");\n        require(uint(b[index++]) == 34, \"Expected \\\" for var\");  // \"\n        require(uint(b[index++]) == 48, \"Expected 0 for var\");  // 0\n        require(uint(b[index++]) == 120, \"Expected x for var\"); // x\n\n        for (i = index; i < b.length && uint(b[i]) != 34; i++) {\n            c = uint(b[i]);\n\n            if (c >= 48 && c <= 57) {\n                c = c - 48;\n            } else\n                if (c >= 65 && c <= 70) {\n                    c = c - 65 + 10;\n                } else\n                    if (c >= 97 && c <= 102) {\n                        c = c - 97 + 10;\n                    }\n\n            require (r <= 63, \"byte32 can't be longer than 32 bytes\");\n            b32 |= bytes32(c & 0xF) << ((63-r++) * 4);\n        }\n        i += 2;\n\n        result = b32;\n    }\n}\n\ncontract MenloForumEvents {\n    // the total ordering of all events on a smart contract is defined\n    // a parent of 0x0 indicates root topic\n    // by convention, the bytes32 is a keccak-256 content hash\n    // the multihash prefix for this is 1b,20\n    event Topic(bytes32 _parentHash, bytes32 contentHash);\n    event Payout(uint256 _lottery, address _user, uint256 _tokens);\n    event Vote(uint256 _offset);\n}\n\ncontract MenloForum is MenloTokenReceiver, MenloForumEvents, BytesDecode, Ownable, CanReclaimToken {\n\n    uint public constant ACTION_POST     = 1;\n    uint public constant ACTION_UPVOTE   = 2;\n    uint public constant ACTION_DOWNVOTE = 3;\n\n\n    uint256 public currentLottery;\n    uint256 public endTimestamp;\n    uint256 public rewardPool;\n\n    uint256 public epochLength;\n    uint256 public epochPrior;\n    uint256 public epochCurrent;\n\n    mapping(uint256 => int256) public votes;\n    mapping(uint256 => mapping(address => int8)) public voters;\n    address[] public posters;\n\n    uint256 public voteCost;\n    uint256 public postCost;\n    uint256 public nextPostCost;\n\n    address[5] public payouts;\n\n    constructor(MenloToken _token, uint256 _postCost, uint256 _voteCost, uint256 _epochLength) public MenloTokenReceiver(_token) {\n        // Push 0 so empty memory (0) doesn't overlap with a voter\n        posters.push(0);\n        emit Topic(0, 0);\n\n        // no author for root post 0\n        voteCost = _voteCost;\n        postCost = _postCost;\n        nextPostCost = _postCost;\n        epochLength = _epochLength;\n        endTimestamp = now + epochLength;\n    }\n\n    function getVoters(uint256 i, address user) public view returns (int8) {\n        return voters[i][user];\n    }\n\n    function postCount() public view returns (uint256) {\n        return posters.length;\n    }\n\n    function votesCount() public view returns (uint256) {\n        return posters.length;\n    }\n\n    function endEpoch(uint256 _tokensForNextEpoch) public returns (bool) {\n        if (now < endTimestamp) {\n            return false;\n        }\n\n        uint256[5] memory winners;\n        int256[5]  memory topVotes;\n        bool hasVotes = false;\n\n        // get top 5 posts\n        for(uint256 i = posters.length; i-- > epochCurrent; ) {\n            if (votes[i] == 0) {\n                continue;\n            }\n            hasVotes = true;\n\n            int256 current = votes[i];\n            if (current > topVotes[4]) {\n                // insert it\n\n                /*\n                uint8 j = 4;\n                while (topVotes[j-1] < current) {\n                    topVotes[j] = topVotes[j-1];\n                    winners[j] = winners[j-1];\n                    j--;\n                    if (j == 0) {\n                        break;\n                    }\n                }\n                topVotes[j] = current;\n                winners[j] = i;\n                */\n\n                // the code below is equivalent to the commented code above\n                if (current > topVotes[2]) {\n                    topVotes[4] = topVotes[3];\n                    topVotes[3] = topVotes[2];\n                    winners[4] = winners[3];\n                    winners[3] = winners[2];\n                    if (current > topVotes[1]) {\n                        topVotes[2] = topVotes[1];\n                        winners[2] = winners[1];\n                        if (current > topVotes[0]) {\n                            topVotes[1] = topVotes[0];\n                            topVotes[0] = current;\n                            winners[1] = winners[0];\n                            winners[0] = i;\n                        } else {\n                            topVotes[1] = current;\n                            winners[1] = i;\n                        }\n                    } else {\n                        topVotes[2] = current;\n                        winners[2] = i;\n                    }\n                } else {\n                    if (current > topVotes[3]) {\n                        topVotes[4] = topVotes[3];\n                        topVotes[3] = current;\n                        winners[4] = winners[3];\n                        winners[3] = i;\n                    } else {\n                        topVotes[4] = current;\n                        winners[4] = i;\n                    }\n                }\n            }\n\n            // votes[i] = 0 Should clean up memory?\n        }\n\n        endTimestamp = now + epochLength;\n\n        if (!hasVotes) {\n            return false;\n        }\n\n        // write the new winners\n        for (i = 0; i < 5; i++) {\n            payouts[i] = posters[winners[i]];\n        }\n\n        // refresh the pool\n        rewardPool = token.balanceOf(this) - _tokensForNextEpoch;\n\n        epochPrior = epochCurrent;\n        epochCurrent = posters.length;\n        currentLottery++;\n        if (nextPostCost != postCost) {\n            postCost = nextPostCost;\n        }\n\n        return true;\n    }\n\n    function nextRewardPool() public view returns (uint256) {\n        return token.balanceOf(this);\n    }\n\n    function reward(uint8 _payout) public view returns (uint256) {\n        if (_payout == 0) {\n            return rewardPool * 2 / 5;\n        } else if (_payout == 1) {\n            return rewardPool / 4;\n        } else if (_payout == 2) {\n            return rewardPool / 5;\n        } else if (_payout == 3) {\n            return rewardPool / 10;\n        } else if (_payout == 4) {\n            return rewardPool / 20;\n        }\n        return 0;\n    }\n\n    function claim() external {\n        endEpoch(0);\n\n        if (rewardPool == 0) {\n            return;\n        }\n\n        uint256 total = 0;\n        for (uint8 i = 0; i < 5; i++) {\n            if (payouts[i] == msg.sender) {\n                uint256 rewardi = reward(i);\n                total += rewardi;\n                payouts[i] = 0;\n            }\n        }\n\n        require(total > 0, \"No tokens left to claim\");\n\n        emit Payout(currentLottery-1, msg.sender, total);\n        token.transfer(msg.sender, total);\n    }\n\n    function setNextPostCost(uint256 _nextPostCost) external onlyOwner {\n        nextPostCost = _nextPostCost;\n    }\n\n    function vote(address _voter, uint256 _offset, int8 _direction) internal {\n        int8 priorVote = voters[_offset][_voter];\n\n        require (priorVote != _direction, \"Can't vote for same comment more than 1 time\");\n\n        votes[_offset] += _direction;\n        voters[_offset][_voter] = priorVote + _direction;\n        endTimestamp = now + epochLength;\n\n        emit Vote(_offset);\n    }\n\n    function pushPoster(address _poster) internal {\n        posters.push(_poster);\n    }\n\n    function upvote(address _voter, uint256 _offset) internal {\n        vote(_voter, _offset, 1);\n    }\n\n    function downvote(address _voter, uint256 _offset) internal {\n        vote(_voter, _offset, -1);\n    }\n\n    function post(address _poster, bytes32 _parentHash, bytes32 _contentHash) internal {\n        emit Topic(_parentHash, _contentHash);\n        voters[posters.length][_poster] = 1;\n        pushPoster(_poster);\n        endTimestamp = now + epochLength;\n    }\n\n    modifier forumOpen() {\n        // require(now < endTimestamp);\n        _;\n    }\n\n    function usesONE(uint256 _value, uint256 _cost) internal pure returns (bool) {\n        return (_cost == _value);\n    }\n\n    function onTokenReceived(\n        address _from,\n        uint256 _value,\n        uint256 _action,\n        bytes _data\n    ) public onlyTokenContract forumOpen returns(bytes4) {\n\n        uint offset;\n        uint i;\n\n        endEpoch(_value);\n\n        if (_action == ACTION_UPVOTE) {\n            require(usesONE(_value, voteCost), \"Voting tokens sent != cost\");\n\n            (offset, i) = decodeUint(_data, 1);\n            upvote(_from, offset);\n            return ONE_RECEIVED;\n        }\n\n        if (_action == ACTION_DOWNVOTE) {\n            require(usesONE(_value, voteCost), \"Voting tokens sent != cost\");\n\n            (offset, i) = decodeUint(_data, 1);\n            downvote(_from, offset);\n            return ONE_RECEIVED;\n        }\n\n        if (_action == ACTION_POST) {\n            require(usesONE(_value, postCost), \"Posting tokens sent != cost\");\n\n            bytes32 parentHash;\n            bytes32 contentHash;\n\n            (parentHash, i)  = decodeBytes32(_data, 1);\n            (contentHash, i) = decodeBytes32(_data, i);\n\n            post(_from, parentHash, contentHash);\n            return ONE_RECEIVED;\n        }\n\n        return 0;\n    }\n\n    //\n    // This exists purely for the case where Menlo ONE tokens need upgrading\n    //\n\n    function redeem(Redeemer _redeemer) external onlyOwner returns (MenloToken) {\n        require(_redeemer.from() == token);\n\n        token.approve(_redeemer, token.balanceOf(this));\n        _redeemer.redeem();\n        MenloToken to = _redeemer.to();\n        token = to;\n        return to;\n    }\n\n    function undo(Redeemer _redeemer) external onlyOwner returns (MenloToken) {\n        require(_redeemer.to() == token);\n\n        token.approve(_redeemer, token.balanceOf(this));\n        _redeemer.undo();\n        MenloToken from = _redeemer.from();\n        token = from;\n        return from;\n    }\n}\n\ncontract MenloReputation is Ownable {\n\n    mapping(address => string) public alias;\n    mapping(address => uint256) public reputation;\n    mapping(address => bool) public forums;\n\n    constructor(MenloForum _forum) public {\n        if (_forum != address(0)) {\n            forums[_forum] = true;\n        }\n    }\n\n    function setAlias(string _alias) public {\n        alias[msg.sender] = _alias;\n    }\n\n    modifier isForum() {\n        require(forums[msg.sender] == true);\n        _;\n    }\n\n    function addReputation(address _user, uint _rep) public isForum {\n        reputation[_user] += _rep;\n    }\n}\n\ninterface Redeemer {\n    function redeem() external;\n    function undo() external;\n    function to() external view returns (MenloToken);\n    function from() external view returns (MenloToken);\n}\n\n",
  "sourcePath": "/Users/dave/Code/expo/contracts/MenloReputation.sol",
  "compiler": {
    "name": "solc",
    "version": "0.4.24+commit.e67f0147.Emscripten.clang"
  },
  "schemaVersion": "2.0.1",
  "updatedAt": "2018-09-25T23:01:36.748Z"
}