{
  "contractName": "PausableToken",
  "abi": [
    {
      "constant": true,
      "inputs": [],
      "name": "totalSupply",
      "outputs": [
        {
          "name": "",
          "type": "uint256"
        }
      ],
      "payable": false,
      "stateMutability": "view",
      "type": "function"
    },
    {
      "constant": false,
      "inputs": [],
      "name": "unpause",
      "outputs": [],
      "payable": false,
      "stateMutability": "nonpayable",
      "type": "function"
    },
    {
      "constant": true,
      "inputs": [],
      "name": "paused",
      "outputs": [
        {
          "name": "",
          "type": "bool"
        }
      ],
      "payable": false,
      "stateMutability": "view",
      "type": "function"
    },
    {
      "constant": true,
      "inputs": [
        {
          "name": "_owner",
          "type": "address"
        }
      ],
      "name": "balanceOf",
      "outputs": [
        {
          "name": "",
          "type": "uint256"
        }
      ],
      "payable": false,
      "stateMutability": "view",
      "type": "function"
    },
    {
      "constant": false,
      "inputs": [],
      "name": "renounceOwnership",
      "outputs": [],
      "payable": false,
      "stateMutability": "nonpayable",
      "type": "function"
    },
    {
      "constant": false,
      "inputs": [],
      "name": "pause",
      "outputs": [],
      "payable": false,
      "stateMutability": "nonpayable",
      "type": "function"
    },
    {
      "constant": true,
      "inputs": [],
      "name": "owner",
      "outputs": [
        {
          "name": "",
          "type": "address"
        }
      ],
      "payable": false,
      "stateMutability": "view",
      "type": "function"
    },
    {
      "constant": true,
      "inputs": [
        {
          "name": "_owner",
          "type": "address"
        },
        {
          "name": "_spender",
          "type": "address"
        }
      ],
      "name": "allowance",
      "outputs": [
        {
          "name": "",
          "type": "uint256"
        }
      ],
      "payable": false,
      "stateMutability": "view",
      "type": "function"
    },
    {
      "constant": false,
      "inputs": [
        {
          "name": "_newOwner",
          "type": "address"
        }
      ],
      "name": "transferOwnership",
      "outputs": [],
      "payable": false,
      "stateMutability": "nonpayable",
      "type": "function"
    },
    {
      "anonymous": false,
      "inputs": [],
      "name": "Pause",
      "type": "event"
    },
    {
      "anonymous": false,
      "inputs": [],
      "name": "Unpause",
      "type": "event"
    },
    {
      "anonymous": false,
      "inputs": [
        {
          "indexed": true,
          "name": "previousOwner",
          "type": "address"
        }
      ],
      "name": "OwnershipRenounced",
      "type": "event"
    },
    {
      "anonymous": false,
      "inputs": [
        {
          "indexed": true,
          "name": "previousOwner",
          "type": "address"
        },
        {
          "indexed": true,
          "name": "newOwner",
          "type": "address"
        }
      ],
      "name": "OwnershipTransferred",
      "type": "event"
    },
    {
      "anonymous": false,
      "inputs": [
        {
          "indexed": true,
          "name": "owner",
          "type": "address"
        },
        {
          "indexed": true,
          "name": "spender",
          "type": "address"
        },
        {
          "indexed": false,
          "name": "value",
          "type": "uint256"
        }
      ],
      "name": "Approval",
      "type": "event"
    },
    {
      "anonymous": false,
      "inputs": [
        {
          "indexed": true,
          "name": "from",
          "type": "address"
        },
        {
          "indexed": true,
          "name": "to",
          "type": "address"
        },
        {
          "indexed": false,
          "name": "value",
          "type": "uint256"
        }
      ],
      "name": "Transfer",
      "type": "event"
    },
    {
      "constant": false,
      "inputs": [
        {
          "name": "_to",
          "type": "address"
        },
        {
          "name": "_value",
          "type": "uint256"
        }
      ],
      "name": "transfer",
      "outputs": [
        {
          "name": "",
          "type": "bool"
        }
      ],
      "payable": false,
      "stateMutability": "nonpayable",
      "type": "function"
    },
    {
      "constant": false,
      "inputs": [
        {
          "name": "_from",
          "type": "address"
        },
        {
          "name": "_to",
          "type": "address"
        },
        {
          "name": "_value",
          "type": "uint256"
        }
      ],
      "name": "transferFrom",
      "outputs": [
        {
          "name": "",
          "type": "bool"
        }
      ],
      "payable": false,
      "stateMutability": "nonpayable",
      "type": "function"
    },
    {
      "constant": false,
      "inputs": [
        {
          "name": "_spender",
          "type": "address"
        },
        {
          "name": "_value",
          "type": "uint256"
        }
      ],
      "name": "approve",
      "outputs": [
        {
          "name": "",
          "type": "bool"
        }
      ],
      "payable": false,
      "stateMutability": "nonpayable",
      "type": "function"
    },
    {
      "constant": false,
      "inputs": [
        {
          "name": "_spender",
          "type": "address"
        },
        {
          "name": "_addedValue",
          "type": "uint256"
        }
      ],
      "name": "increaseApproval",
      "outputs": [
        {
          "name": "success",
          "type": "bool"
        }
      ],
      "payable": false,
      "stateMutability": "nonpayable",
      "type": "function"
    },
    {
      "constant": false,
      "inputs": [
        {
          "name": "_spender",
          "type": "address"
        },
        {
          "name": "_subtractedValue",
          "type": "uint256"
        }
      ],
      "name": "decreaseApproval",
      "outputs": [
        {
          "name": "success",
          "type": "bool"
        }
      ],
      "payable": false,
      "stateMutability": "nonpayable",
      "type": "function"
    }
  ],
  "bytecode": "0x608060405260038054600160a860020a03191633179055610a16806100256000396000f3006080604052600436106100b65763ffffffff60e060020a600035041663095ea7b381146100bb57806318160ddd146100f357806323b872dd1461011a5780633f4ba83a146101445780635c975abb1461015b578063661884631461017057806370a0823114610194578063715018a6146101b55780638456cb59146101ca5780638da5cb5b146101df578063a9059cbb14610210578063d73dd62314610234578063dd62ed3e14610258578063f2fde38b1461027f575b600080fd5b3480156100c757600080fd5b506100df600160a060020a03600435166024356102a0565b604080519115158252519081900360200190f35b3480156100ff57600080fd5b506101086102cb565b60408051918252519081900360200190f35b34801561012657600080fd5b506100df600160a060020a03600435811690602435166044356102d1565b34801561015057600080fd5b506101596102fe565b005b34801561016757600080fd5b506100df610368565b34801561017c57600080fd5b506100df600160a060020a0360043516602435610378565b3480156101a057600080fd5b50610108600160a060020a036004351661039c565b3480156101c157600080fd5b506101596103b7565b3480156101d657600080fd5b50610159610418565b3480156101eb57600080fd5b506101f4610487565b60408051600160a060020a039092168252519081900360200190f35b34801561021c57600080fd5b506100df600160a060020a0360043516602435610496565b34801561024057600080fd5b506100df600160a060020a03600435166024356104ba565b34801561026457600080fd5b50610108600160a060020a03600435811690602435166104de565b34801561028b57600080fd5b50610159600160a060020a0360043516610509565b60035460009060a060020a900460ff16156102ba57600080fd5b6102c4838361052c565b9392505050565b60015490565b60035460009060a060020a900460ff16156102eb57600080fd5b6102f6848484610580565b949350505050565b600354600160a060020a0316331461031557600080fd5b60035460a060020a900460ff16151561032d57600080fd5b6003805460a060020a60ff02191690556040517f7805862f689e2f13df9f062ff482ad3ad112aca9e0847911ed832e158c525b3390600090a1565b60035460a060020a900460ff1681565b60035460009060a060020a900460ff161561039257600080fd5b6102c483836106e3565b600160a060020a031660009081526020819052604090205490565b600354600160a060020a031633146103ce57600080fd5b600354604051600160a060020a03909116907ff8df31144d9c2f0f6b59d69b8b98abd5459d07f2742c4df920b25aae33c6482090600090a260038054600160a060020a0319169055565b600354600160a060020a0316331461042f57600080fd5b60035460a060020a900460ff161561044657600080fd5b6003805460a060020a60ff02191660a060020a1790556040517f6985a02210a168e66602d3235cb6db0e70f92b3ba4d376a33c0f3d9434bff62590600090a1565b600354600160a060020a031681565b60035460009060a060020a900460ff16156104b057600080fd5b6102c483836107c0565b60035460009060a060020a900460ff16156104d457600080fd5b6102c4838361088d565b600160a060020a03918216600090815260026020908152604080832093909416825291909152205490565b600354600160a060020a0316331461052057600080fd5b61052981610914565b50565b336000818152600260209081526040808320600160a060020a038716808552908352818420869055815186815291519394909390926000805160206109cb833981519152928290030190a350600192915050565b600160a060020a0383166000908152602081905260408120548211156105a557600080fd5b600160a060020a03841660009081526002602090815260408083203384529091529020548211156105d557600080fd5b600160a060020a03831615156105ea57600080fd5b600160a060020a038416600090815260208190526040902054610613908363ffffffff61098516565b600160a060020a038086166000908152602081905260408082209390935590851681522054610648908363ffffffff61099716565b600160a060020a0380851660009081526020818152604080832094909455918716815260028252828120338252909152205461068a908363ffffffff61098516565b600160a060020a03808616600081815260026020908152604080832033845282529182902094909455805186815290519287169391926000805160206109ab833981519152929181900390910190a35060019392505050565b336000908152600260209081526040808320600160a060020a038616845290915281205480831061073757336000908152600260209081526040808320600160a060020a038816845290915281205561076c565b610747818463ffffffff61098516565b336000908152600260209081526040808320600160a060020a03891684529091529020555b336000818152600260209081526040808320600160a060020a0389168085529083529281902054815190815290519293926000805160206109cb833981519152929181900390910190a35060019392505050565b336000908152602081905260408120548211156107dc57600080fd5b600160a060020a03831615156107f157600080fd5b33600090815260208190526040902054610811908363ffffffff61098516565b3360009081526020819052604080822092909255600160a060020a03851681522054610843908363ffffffff61099716565b600160a060020a038416600081815260208181526040918290209390935580518581529051919233926000805160206109ab8339815191529281900390910190a350600192915050565b336000908152600260209081526040808320600160a060020a03861684529091528120546108c1908363ffffffff61099716565b336000818152600260209081526040808320600160a060020a0389168085529083529281902085905580519485525191936000805160206109cb833981519152929081900390910190a350600192915050565b600160a060020a038116151561092957600080fd5b600354604051600160a060020a038084169216907f8be0079c531659141344cd1fd0a4f28419497f9722a3daafe3b4186f6b6457e090600090a360038054600160a060020a031916600160a060020a0392909216919091179055565b60008282111561099157fe5b50900390565b818101828110156109a457fe5b929150505600ddf252ad1be2c89b69c2b068fc378daa952ba7f163c4a11628f55a4df523b3ef8c5be1e5ebec7d5bd14f71427d1e84f3dd0314c0f7b2291e5b200ac8c7c3b925a165627a7a72305820ff356a2a84a75cfe3774c947f1a1bc6a6fb03e8667cec2dac48717bb4ad0b7720029",
  "source": "pragma solidity ^0.4.24;\n\nimport \"./StandardToken.sol\";\nimport \"../../lifecycle/Pausable.sol\";\n\n\n/**\n * @title Pausable token\n * @dev StandardToken modified with pausable transfers.\n **/\ncontract PausableToken is StandardToken, Pausable {\n\n  function transfer(\n    address _to,\n    uint256 _value\n  )\n    public\n    whenNotPaused\n    returns (bool)\n  {\n    return super.transfer(_to, _value);\n  }\n\n  function transferFrom(\n    address _from,\n    address _to,\n    uint256 _value\n  )\n    public\n    whenNotPaused\n    returns (bool)\n  {\n    return super.transferFrom(_from, _to, _value);\n  }\n\n  function approve(\n    address _spender,\n    uint256 _value\n  )\n    public\n    whenNotPaused\n    returns (bool)\n  {\n    return super.approve(_spender, _value);\n  }\n\n  function increaseApproval(\n    address _spender,\n    uint _addedValue\n  )\n    public\n    whenNotPaused\n    returns (bool success)\n  {\n    return super.increaseApproval(_spender, _addedValue);\n  }\n\n  function decreaseApproval(\n    address _spender,\n    uint _subtractedValue\n  )\n    public\n    whenNotPaused\n    returns (bool success)\n  {\n    return super.decreaseApproval(_spender, _subtractedValue);\n  }\n}\n",
  "sourcePath": "openzeppelin-solidity/contracts/token/ERC20/PausableToken.sol",
  "compiler": {
    "name": "solc",
    "version": "0.4.24+commit.e67f0147.Emscripten.clang"
  },
  "schemaVersion": "2.0.1",
  "updatedAt": "2018-08-16T16:50:30.670Z"
}