{
  "contractName": "PausableToken",
  "abi": [
    {
      "constant": true,
      "inputs": [],
      "name": "totalSupply",
      "outputs": [
        {
          "name": "",
          "type": "uint256"
        }
      ],
      "payable": false,
      "stateMutability": "view",
      "type": "function"
    },
    {
      "constant": false,
      "inputs": [],
      "name": "unpause",
      "outputs": [],
      "payable": false,
      "stateMutability": "nonpayable",
      "type": "function"
    },
    {
      "constant": true,
      "inputs": [],
      "name": "paused",
      "outputs": [
        {
          "name": "",
          "type": "bool"
        }
      ],
      "payable": false,
      "stateMutability": "view",
      "type": "function"
    },
    {
      "constant": true,
      "inputs": [
        {
          "name": "_owner",
          "type": "address"
        }
      ],
      "name": "balanceOf",
      "outputs": [
        {
          "name": "",
          "type": "uint256"
        }
      ],
      "payable": false,
      "stateMutability": "view",
      "type": "function"
    },
    {
      "constant": false,
      "inputs": [],
      "name": "renounceOwnership",
      "outputs": [],
      "payable": false,
      "stateMutability": "nonpayable",
      "type": "function"
    },
    {
      "constant": false,
      "inputs": [],
      "name": "pause",
      "outputs": [],
      "payable": false,
      "stateMutability": "nonpayable",
      "type": "function"
    },
    {
      "constant": true,
      "inputs": [],
      "name": "owner",
      "outputs": [
        {
          "name": "",
          "type": "address"
        }
      ],
      "payable": false,
      "stateMutability": "view",
      "type": "function"
    },
    {
      "constant": true,
      "inputs": [
        {
          "name": "_owner",
          "type": "address"
        },
        {
          "name": "_spender",
          "type": "address"
        }
      ],
      "name": "allowance",
      "outputs": [
        {
          "name": "",
          "type": "uint256"
        }
      ],
      "payable": false,
      "stateMutability": "view",
      "type": "function"
    },
    {
      "constant": false,
      "inputs": [
        {
          "name": "_newOwner",
          "type": "address"
        }
      ],
      "name": "transferOwnership",
      "outputs": [],
      "payable": false,
      "stateMutability": "nonpayable",
      "type": "function"
    },
    {
      "anonymous": false,
      "inputs": [],
      "name": "Pause",
      "type": "event"
    },
    {
      "anonymous": false,
      "inputs": [],
      "name": "Unpause",
      "type": "event"
    },
    {
      "anonymous": false,
      "inputs": [
        {
          "indexed": true,
          "name": "previousOwner",
          "type": "address"
        }
      ],
      "name": "OwnershipRenounced",
      "type": "event"
    },
    {
      "anonymous": false,
      "inputs": [
        {
          "indexed": true,
          "name": "previousOwner",
          "type": "address"
        },
        {
          "indexed": true,
          "name": "newOwner",
          "type": "address"
        }
      ],
      "name": "OwnershipTransferred",
      "type": "event"
    },
    {
      "anonymous": false,
      "inputs": [
        {
          "indexed": true,
          "name": "owner",
          "type": "address"
        },
        {
          "indexed": true,
          "name": "spender",
          "type": "address"
        },
        {
          "indexed": false,
          "name": "value",
          "type": "uint256"
        }
      ],
      "name": "Approval",
      "type": "event"
    },
    {
      "anonymous": false,
      "inputs": [
        {
          "indexed": true,
          "name": "from",
          "type": "address"
        },
        {
          "indexed": true,
          "name": "to",
          "type": "address"
        },
        {
          "indexed": false,
          "name": "value",
          "type": "uint256"
        }
      ],
      "name": "Transfer",
      "type": "event"
    },
    {
      "constant": false,
      "inputs": [
        {
          "name": "_to",
          "type": "address"
        },
        {
          "name": "_value",
          "type": "uint256"
        }
      ],
      "name": "transfer",
      "outputs": [
        {
          "name": "",
          "type": "bool"
        }
      ],
      "payable": false,
      "stateMutability": "nonpayable",
      "type": "function"
    },
    {
      "constant": false,
      "inputs": [
        {
          "name": "_from",
          "type": "address"
        },
        {
          "name": "_to",
          "type": "address"
        },
        {
          "name": "_value",
          "type": "uint256"
        }
      ],
      "name": "transferFrom",
      "outputs": [
        {
          "name": "",
          "type": "bool"
        }
      ],
      "payable": false,
      "stateMutability": "nonpayable",
      "type": "function"
    },
    {
      "constant": false,
      "inputs": [
        {
          "name": "_spender",
          "type": "address"
        },
        {
          "name": "_value",
          "type": "uint256"
        }
      ],
      "name": "approve",
      "outputs": [
        {
          "name": "",
          "type": "bool"
        }
      ],
      "payable": false,
      "stateMutability": "nonpayable",
      "type": "function"
    },
    {
      "constant": false,
      "inputs": [
        {
          "name": "_spender",
          "type": "address"
        },
        {
          "name": "_addedValue",
          "type": "uint256"
        }
      ],
      "name": "increaseApproval",
      "outputs": [
        {
          "name": "success",
          "type": "bool"
        }
      ],
      "payable": false,
      "stateMutability": "nonpayable",
      "type": "function"
    },
    {
      "constant": false,
      "inputs": [
        {
          "name": "_spender",
          "type": "address"
        },
        {
          "name": "_subtractedValue",
          "type": "uint256"
        }
      ],
      "name": "decreaseApproval",
      "outputs": [
        {
          "name": "success",
          "type": "bool"
        }
      ],
      "payable": false,
      "stateMutability": "nonpayable",
      "type": "function"
    }
  ],
  "bytecode": "0x608060405260038054600160a860020a03191633179055610a16806100256000396000f3006080604052600436106100b65763ffffffff60e060020a600035041663095ea7b381146100bb57806318160ddd146100f357806323b872dd1461011a5780633f4ba83a146101445780635c975abb1461015b578063661884631461017057806370a0823114610194578063715018a6146101b55780638456cb59146101ca5780638da5cb5b146101df578063a9059cbb14610210578063d73dd62314610234578063dd62ed3e14610258578063f2fde38b1461027f575b600080fd5b3480156100c757600080fd5b506100df600160a060020a03600435166024356102a0565b604080519115158252519081900360200190f35b3480156100ff57600080fd5b506101086102cb565b60408051918252519081900360200190f35b34801561012657600080fd5b506100df600160a060020a03600435811690602435166044356102d1565b34801561015057600080fd5b506101596102fe565b005b34801561016757600080fd5b506100df610368565b34801561017c57600080fd5b506100df600160a060020a0360043516602435610378565b3480156101a057600080fd5b50610108600160a060020a036004351661039c565b3480156101c157600080fd5b506101596103b7565b3480156101d657600080fd5b50610159610418565b3480156101eb57600080fd5b506101f4610487565b60408051600160a060020a039092168252519081900360200190f35b34801561021c57600080fd5b506100df600160a060020a0360043516602435610496565b34801561024057600080fd5b506100df600160a060020a03600435166024356104ba565b34801561026457600080fd5b50610108600160a060020a03600435811690602435166104de565b34801561028b57600080fd5b50610159600160a060020a0360043516610509565b60035460009060a060020a900460ff16156102ba57600080fd5b6102c4838361052c565b9392505050565b60015490565b60035460009060a060020a900460ff16156102eb57600080fd5b6102f6848484610580565b949350505050565b600354600160a060020a0316331461031557600080fd5b60035460a060020a900460ff16151561032d57600080fd5b6003805460a060020a60ff02191690556040517f7805862f689e2f13df9f062ff482ad3ad112aca9e0847911ed832e158c525b3390600090a1565b60035460a060020a900460ff1681565b60035460009060a060020a900460ff161561039257600080fd5b6102c483836106e3565b600160a060020a031660009081526020819052604090205490565b600354600160a060020a031633146103ce57600080fd5b600354604051600160a060020a03909116907ff8df31144d9c2f0f6b59d69b8b98abd5459d07f2742c4df920b25aae33c6482090600090a260038054600160a060020a0319169055565b600354600160a060020a0316331461042f57600080fd5b60035460a060020a900460ff161561044657600080fd5b6003805460a060020a60ff02191660a060020a1790556040517f6985a02210a168e66602d3235cb6db0e70f92b3ba4d376a33c0f3d9434bff62590600090a1565b600354600160a060020a031681565b60035460009060a060020a900460ff16156104b057600080fd5b6102c483836107c0565b60035460009060a060020a900460ff16156104d457600080fd5b6102c4838361088d565b600160a060020a03918216600090815260026020908152604080832093909416825291909152205490565b600354600160a060020a0316331461052057600080fd5b61052981610914565b50565b336000818152600260209081526040808320600160a060020a038716808552908352818420869055815186815291519394909390926000805160206109cb833981519152928290030190a350600192915050565b600160a060020a0383166000908152602081905260408120548211156105a557600080fd5b600160a060020a03841660009081526002602090815260408083203384529091529020548211156105d557600080fd5b600160a060020a03831615156105ea57600080fd5b600160a060020a038416600090815260208190526040902054610613908363ffffffff61098516565b600160a060020a038086166000908152602081905260408082209390935590851681522054610648908363ffffffff61099716565b600160a060020a0380851660009081526020818152604080832094909455918716815260028252828120338252909152205461068a908363ffffffff61098516565b600160a060020a03808616600081815260026020908152604080832033845282529182902094909455805186815290519287169391926000805160206109ab833981519152929181900390910190a35060019392505050565b336000908152600260209081526040808320600160a060020a038616845290915281205480831061073757336000908152600260209081526040808320600160a060020a038816845290915281205561076c565b610747818463ffffffff61098516565b336000908152600260209081526040808320600160a060020a03891684529091529020555b336000818152600260209081526040808320600160a060020a0389168085529083529281902054815190815290519293926000805160206109cb833981519152929181900390910190a35060019392505050565b336000908152602081905260408120548211156107dc57600080fd5b600160a060020a03831615156107f157600080fd5b33600090815260208190526040902054610811908363ffffffff61098516565b3360009081526020819052604080822092909255600160a060020a03851681522054610843908363ffffffff61099716565b600160a060020a038416600081815260208181526040918290209390935580518581529051919233926000805160206109ab8339815191529281900390910190a350600192915050565b336000908152600260209081526040808320600160a060020a03861684529091528120546108c1908363ffffffff61099716565b336000818152600260209081526040808320600160a060020a0389168085529083529281902085905580519485525191936000805160206109cb833981519152929081900390910190a350600192915050565b600160a060020a038116151561092957600080fd5b600354604051600160a060020a038084169216907f8be0079c531659141344cd1fd0a4f28419497f9722a3daafe3b4186f6b6457e090600090a360038054600160a060020a031916600160a060020a0392909216919091179055565b60008282111561099157fe5b50900390565b818101828110156109a457fe5b929150505600ddf252ad1be2c89b69c2b068fc378daa952ba7f163c4a11628f55a4df523b3ef8c5be1e5ebec7d5bd14f71427d1e84f3dd0314c0f7b2291e5b200ac8c7c3b925a165627a7a72305820c0e253a06c19ab414099a28cc1267e7245ae3e385806b52aa15ebefd47c4603a0029",
  "source": "pragma solidity ^0.4.13;\n\nlibrary SafeMath {\n\n  /**\n  * @dev Multiplies two numbers, throws on overflow.\n  */\n  function mul(uint256 _a, uint256 _b) internal pure returns (uint256 c) {\n    // Gas optimization: this is cheaper than asserting 'a' not being zero, but the\n    // benefit is lost if 'b' is also tested.\n    // See: https://github.com/OpenZeppelin/openzeppelin-solidity/pull/522\n    if (_a == 0) {\n      return 0;\n    }\n\n    c = _a * _b;\n    assert(c / _a == _b);\n    return c;\n  }\n\n  /**\n  * @dev Integer division of two numbers, truncating the quotient.\n  */\n  function div(uint256 _a, uint256 _b) internal pure returns (uint256) {\n    // assert(_b > 0); // Solidity automatically throws when dividing by 0\n    // uint256 c = _a / _b;\n    // assert(_a == _b * c + _a % _b); // There is no case in which this doesn't hold\n    return _a / _b;\n  }\n\n  /**\n  * @dev Subtracts two numbers, throws on overflow (i.e. if subtrahend is greater than minuend).\n  */\n  function sub(uint256 _a, uint256 _b) internal pure returns (uint256) {\n    assert(_b <= _a);\n    return _a - _b;\n  }\n\n  /**\n  * @dev Adds two numbers, throws on overflow.\n  */\n  function add(uint256 _a, uint256 _b) internal pure returns (uint256 c) {\n    c = _a + _b;\n    assert(c >= _a);\n    return c;\n  }\n}\n\ncontract Ownable {\n  address public owner;\n\n\n  event OwnershipRenounced(address indexed previousOwner);\n  event OwnershipTransferred(\n    address indexed previousOwner,\n    address indexed newOwner\n  );\n\n\n  /**\n   * @dev The Ownable constructor sets the original `owner` of the contract to the sender\n   * account.\n   */\n  constructor() public {\n    owner = msg.sender;\n  }\n\n  /**\n   * @dev Throws if called by any account other than the owner.\n   */\n  modifier onlyOwner() {\n    require(msg.sender == owner);\n    _;\n  }\n\n  /**\n   * @dev Allows the current owner to relinquish control of the contract.\n   * @notice Renouncing to ownership will leave the contract without an owner.\n   * It will not be possible to call the functions with the `onlyOwner`\n   * modifier anymore.\n   */\n  function renounceOwnership() public onlyOwner {\n    emit OwnershipRenounced(owner);\n    owner = address(0);\n  }\n\n  /**\n   * @dev Allows the current owner to transfer control of the contract to a newOwner.\n   * @param _newOwner The address to transfer ownership to.\n   */\n  function transferOwnership(address _newOwner) public onlyOwner {\n    _transferOwnership(_newOwner);\n  }\n\n  /**\n   * @dev Transfers control of the contract to a newOwner.\n   * @param _newOwner The address to transfer ownership to.\n   */\n  function _transferOwnership(address _newOwner) internal {\n    require(_newOwner != address(0));\n    emit OwnershipTransferred(owner, _newOwner);\n    owner = _newOwner;\n  }\n}\n\ncontract Pausable is Ownable {\n  event Pause();\n  event Unpause();\n\n  bool public paused = false;\n\n\n  /**\n   * @dev Modifier to make a function callable only when the contract is not paused.\n   */\n  modifier whenNotPaused() {\n    require(!paused);\n    _;\n  }\n\n  /**\n   * @dev Modifier to make a function callable only when the contract is paused.\n   */\n  modifier whenPaused() {\n    require(paused);\n    _;\n  }\n\n  /**\n   * @dev called by the owner to pause, triggers stopped state\n   */\n  function pause() public onlyOwner whenNotPaused {\n    paused = true;\n    emit Pause();\n  }\n\n  /**\n   * @dev called by the owner to unpause, returns to normal state\n   */\n  function unpause() public onlyOwner whenPaused {\n    paused = false;\n    emit Unpause();\n  }\n}\n\ncontract CanReclaimToken is Ownable {\n  using SafeERC20 for ERC20Basic;\n\n  /**\n   * @dev Reclaim all ERC20Basic compatible tokens\n   * @param _token ERC20Basic The address of the token contract\n   */\n  function reclaimToken(ERC20Basic _token) external onlyOwner {\n    uint256 balance = _token.balanceOf(this);\n    _token.safeTransfer(owner, balance);\n  }\n\n}\n\ncontract ERC20Basic {\n  function totalSupply() public view returns (uint256);\n  function balanceOf(address _who) public view returns (uint256);\n  function transfer(address _to, uint256 _value) public returns (bool);\n  event Transfer(address indexed from, address indexed to, uint256 value);\n}\n\ncontract BasicToken is ERC20Basic {\n  using SafeMath for uint256;\n\n  mapping(address => uint256) internal balances;\n\n  uint256 internal totalSupply_;\n\n  /**\n  * @dev Total number of tokens in existence\n  */\n  function totalSupply() public view returns (uint256) {\n    return totalSupply_;\n  }\n\n  /**\n  * @dev Transfer token for a specified address\n  * @param _to The address to transfer to.\n  * @param _value The amount to be transferred.\n  */\n  function transfer(address _to, uint256 _value) public returns (bool) {\n    require(_value <= balances[msg.sender]);\n    require(_to != address(0));\n\n    balances[msg.sender] = balances[msg.sender].sub(_value);\n    balances[_to] = balances[_to].add(_value);\n    emit Transfer(msg.sender, _to, _value);\n    return true;\n  }\n\n  /**\n  * @dev Gets the balance of the specified address.\n  * @param _owner The address to query the the balance of.\n  * @return An uint256 representing the amount owned by the passed address.\n  */\n  function balanceOf(address _owner) public view returns (uint256) {\n    return balances[_owner];\n  }\n\n}\n\ncontract BurnableToken is BasicToken {\n\n  event Burn(address indexed burner, uint256 value);\n\n  /**\n   * @dev Burns a specific amount of tokens.\n   * @param _value The amount of token to be burned.\n   */\n  function burn(uint256 _value) public {\n    _burn(msg.sender, _value);\n  }\n\n  function _burn(address _who, uint256 _value) internal {\n    require(_value <= balances[_who]);\n    // no need to require value <= totalSupply, since that would imply the\n    // sender's balance is greater than the totalSupply, which *should* be an assertion failure\n\n    balances[_who] = balances[_who].sub(_value);\n    totalSupply_ = totalSupply_.sub(_value);\n    emit Burn(_who, _value);\n    emit Transfer(_who, address(0), _value);\n  }\n}\n\ncontract ERC20 is ERC20Basic {\n  function allowance(address _owner, address _spender)\n    public view returns (uint256);\n\n  function transferFrom(address _from, address _to, uint256 _value)\n    public returns (bool);\n\n  function approve(address _spender, uint256 _value) public returns (bool);\n  event Approval(\n    address indexed owner,\n    address indexed spender,\n    uint256 value\n  );\n}\n\nlibrary SafeERC20 {\n  function safeTransfer(\n    ERC20Basic _token,\n    address _to,\n    uint256 _value\n  )\n    internal\n  {\n    require(_token.transfer(_to, _value));\n  }\n\n  function safeTransferFrom(\n    ERC20 _token,\n    address _from,\n    address _to,\n    uint256 _value\n  )\n    internal\n  {\n    require(_token.transferFrom(_from, _to, _value));\n  }\n\n  function safeApprove(\n    ERC20 _token,\n    address _spender,\n    uint256 _value\n  )\n    internal\n  {\n    require(_token.approve(_spender, _value));\n  }\n}\n\ncontract StandardToken is ERC20, BasicToken {\n\n  mapping (address => mapping (address => uint256)) internal allowed;\n\n\n  /**\n   * @dev Transfer tokens from one address to another\n   * @param _from address The address which you want to send tokens from\n   * @param _to address The address which you want to transfer to\n   * @param _value uint256 the amount of tokens to be transferred\n   */\n  function transferFrom(\n    address _from,\n    address _to,\n    uint256 _value\n  )\n    public\n    returns (bool)\n  {\n    require(_value <= balances[_from]);\n    require(_value <= allowed[_from][msg.sender]);\n    require(_to != address(0));\n\n    balances[_from] = balances[_from].sub(_value);\n    balances[_to] = balances[_to].add(_value);\n    allowed[_from][msg.sender] = allowed[_from][msg.sender].sub(_value);\n    emit Transfer(_from, _to, _value);\n    return true;\n  }\n\n  /**\n   * @dev Approve the passed address to spend the specified amount of tokens on behalf of msg.sender.\n   * Beware that changing an allowance with this method brings the risk that someone may use both the old\n   * and the new allowance by unfortunate transaction ordering. One possible solution to mitigate this\n   * race condition is to first reduce the spender's allowance to 0 and set the desired value afterwards:\n   * https://github.com/ethereum/EIPs/issues/20#issuecomment-263524729\n   * @param _spender The address which will spend the funds.\n   * @param _value The amount of tokens to be spent.\n   */\n  function approve(address _spender, uint256 _value) public returns (bool) {\n    allowed[msg.sender][_spender] = _value;\n    emit Approval(msg.sender, _spender, _value);\n    return true;\n  }\n\n  /**\n   * @dev Function to check the amount of tokens that an owner allowed to a spender.\n   * @param _owner address The address which owns the funds.\n   * @param _spender address The address which will spend the funds.\n   * @return A uint256 specifying the amount of tokens still available for the spender.\n   */\n  function allowance(\n    address _owner,\n    address _spender\n   )\n    public\n    view\n    returns (uint256)\n  {\n    return allowed[_owner][_spender];\n  }\n\n  /**\n   * @dev Increase the amount of tokens that an owner allowed to a spender.\n   * approve should be called when allowed[_spender] == 0. To increment\n   * allowed value is better to use this function to avoid 2 calls (and wait until\n   * the first transaction is mined)\n   * From MonolithDAO Token.sol\n   * @param _spender The address which will spend the funds.\n   * @param _addedValue The amount of tokens to increase the allowance by.\n   */\n  function increaseApproval(\n    address _spender,\n    uint256 _addedValue\n  )\n    public\n    returns (bool)\n  {\n    allowed[msg.sender][_spender] = (\n      allowed[msg.sender][_spender].add(_addedValue));\n    emit Approval(msg.sender, _spender, allowed[msg.sender][_spender]);\n    return true;\n  }\n\n  /**\n   * @dev Decrease the amount of tokens that an owner allowed to a spender.\n   * approve should be called when allowed[_spender] == 0. To decrement\n   * allowed value is better to use this function to avoid 2 calls (and wait until\n   * the first transaction is mined)\n   * From MonolithDAO Token.sol\n   * @param _spender The address which will spend the funds.\n   * @param _subtractedValue The amount of tokens to decrease the allowance by.\n   */\n  function decreaseApproval(\n    address _spender,\n    uint256 _subtractedValue\n  )\n    public\n    returns (bool)\n  {\n    uint256 oldValue = allowed[msg.sender][_spender];\n    if (_subtractedValue >= oldValue) {\n      allowed[msg.sender][_spender] = 0;\n    } else {\n      allowed[msg.sender][_spender] = oldValue.sub(_subtractedValue);\n    }\n    emit Approval(msg.sender, _spender, allowed[msg.sender][_spender]);\n    return true;\n  }\n\n}\n\ncontract PausableToken is StandardToken, Pausable {\n\n  function transfer(\n    address _to,\n    uint256 _value\n  )\n    public\n    whenNotPaused\n    returns (bool)\n  {\n    return super.transfer(_to, _value);\n  }\n\n  function transferFrom(\n    address _from,\n    address _to,\n    uint256 _value\n  )\n    public\n    whenNotPaused\n    returns (bool)\n  {\n    return super.transferFrom(_from, _to, _value);\n  }\n\n  function approve(\n    address _spender,\n    uint256 _value\n  )\n    public\n    whenNotPaused\n    returns (bool)\n  {\n    return super.approve(_spender, _value);\n  }\n\n  function increaseApproval(\n    address _spender,\n    uint _addedValue\n  )\n    public\n    whenNotPaused\n    returns (bool success)\n  {\n    return super.increaseApproval(_spender, _addedValue);\n  }\n\n  function decreaseApproval(\n    address _spender,\n    uint _subtractedValue\n  )\n    public\n    whenNotPaused\n    returns (bool success)\n  {\n    return super.decreaseApproval(_spender, _subtractedValue);\n  }\n}\n\ncontract MenloToken is PausableToken, BurnableToken, CanReclaimToken {\n\n  // Token properties\n  string public constant name = 'Menlo One';\n  string public constant symbol = 'ONE';\n\n  uint8 public constant decimals = 18;\n  uint256 private constant token_factor = 10**uint256(decimals);\n\n  // 1 billion ONE tokens in units divisible up to 18 decimals\n  uint256 public constant INITIAL_SUPPLY    = 1000000000 * token_factor;\n\n  uint256 public constant PUBLICSALE_SUPPLY = 354000000 * token_factor;\n  uint256 public constant GROWTH_SUPPLY     = 246000000 * token_factor;\n  uint256 public constant TEAM_SUPPLY       = 200000000 * token_factor;\n  uint256 public constant ADVISOR_SUPPLY    = 100000000 * token_factor;\n  uint256 public constant PARTNER_SUPPLY    = 100000000 * token_factor;\n\n  /**\n   * @dev Magic value to be returned upon successful reception of Menlo Tokens\n   */\n  bytes4 internal constant ONE_RECEIVED = 0x150b7a03;\n\n  address public crowdsale;\n  address public teamTimelock;\n  address public advisorTimelock;\n\n  modifier notInitialized(address saleAddress) {\n    require(address(saleAddress) == address(0), \"Expected address to be null\");\n    _;\n  }\n\n  constructor(address _growth, address _teamTimelock, address _advisorTimelock, address _partner) public {\n    assert(INITIAL_SUPPLY > 0);\n    assert((PUBLICSALE_SUPPLY + GROWTH_SUPPLY + TEAM_SUPPLY + ADVISOR_SUPPLY + PARTNER_SUPPLY) == INITIAL_SUPPLY);\n\n    uint256 _poolTotal = GROWTH_SUPPLY + TEAM_SUPPLY + ADVISOR_SUPPLY + PARTNER_SUPPLY;\n    uint256 _availableForSales = INITIAL_SUPPLY - _poolTotal;\n\n    assert(_availableForSales == PUBLICSALE_SUPPLY);\n\n    teamTimelock = _teamTimelock;\n    advisorTimelock = _advisorTimelock;\n\n    mint(msg.sender, _availableForSales);\n    mint(_growth, GROWTH_SUPPLY);\n    mint(_teamTimelock, TEAM_SUPPLY);\n    mint(_advisorTimelock, ADVISOR_SUPPLY);\n    mint(_partner, PARTNER_SUPPLY);\n\n    assert(totalSupply_ == INITIAL_SUPPLY);\n    pause();\n  }\n\n  function initializeCrowdsale(address _crowdsale) public onlyOwner notInitialized(crowdsale) {\n    unpause();\n    transfer(_crowdsale, balances[msg.sender]);  // Transfer left over balance after private presale allocations\n    crowdsale = _crowdsale;\n    pause();\n    transferOwnership(_crowdsale);\n  }\n\n  function mint(address _to, uint256 _amount) internal {\n    balances[_to] = _amount;\n    totalSupply_ = totalSupply_.add(_amount);\n    emit Transfer(address(0), _to, _amount);\n  }\n\n  /**\n   * @dev Safely transfers the ownership of a given token ID to another address\n   * If the target address is a contract, it must implement `onERC721Received`,\n   * which is called upon a safe transfer, and return the magic value `bytes4(0x150b7a03)`;\n   * otherwise, the transfer is reverted.\n   * Requires the msg sender to be the owner, approved, or operator\n   * @param _to address to receive the tokens.  Must be a MenloTokenReceiver based contract\n   * @param _value uint256 number of tokens to transfer\n   * @param _action uint256 action to perform in target _to contract\n   * @param _data bytes data to send along with a safe transfer check\n   **/\n  function transferAndCall(address _to, uint256 _value, uint256 _action, bytes _data) public returns (bool) {\n    if (transfer(_to, _value)) {\n      require (MenloTokenReceiver(_to).onTokenReceived(msg.sender, _value, _action, _data) == ONE_RECEIVED, \"Target contract onTokenReceived failed\");\n      return true;\n    }\n\n    return false;\n  }\n}\n\ncontract MenloTokenReceiver {\n\n    /*\n     * @dev Address of the MenloToken contract\n     */\n    MenloToken token;\n\n    constructor(MenloToken _tokenContract) public {\n        token = _tokenContract;\n    }\n\n    /**\n     * @dev Magic value to be returned upon successful reception of Menlo Tokens\n     */\n    bytes4 internal constant ONE_RECEIVED = 0x150b7a03;\n\n    /**\n     * @dev Throws if called by any account other than the Menlo Token contract.\n     */\n    modifier onlyTokenContract() {\n        require(msg.sender == address(token));\n        _;\n    }\n\n    /**\n     * @notice Handle the receipt of Menlo Tokens\n     * @dev The MenloToken contract calls this function on the recipient\n     * after a `transferAndCall`. This function MAY throw to revert and reject the\n     * transfer. Return of other than the magic value MUST result in the\n     * transaction being reverted.\n     * Warning: this function must call the onlyTokenContract modifier to trust\n     * the transfer took place\n     * @param _from The address which previously owned the token\n     * @param _value Number of tokens that were transfered\n     * @param _action Used to define enumeration of possible functions to call\n     * @param _data Additional data with no specified format\n     * @return `bytes4(0x150b7a03)`\n     */\n    function onTokenReceived(\n        address _from,\n        uint256 _value,\n        uint256 _action,\n        bytes _data\n    ) public /* onlyTokenContract */ returns(bytes4);\n}\n\ncontract ForumEvents {\n    // the total ordering of all events on a smart contract is defined\n    // a parent of 0x0 indicates root topic\n    // by convention, the bytes32 is a keccak-256 content hash\n    // the multihash prefix for this is 1b,20\n    event Topic(bytes32 _parentHash, bytes32 contentHash);\n}\n\ncontract Forum is MenloTokenReceiver, ForumEvents, Ownable {\n\n    uint public constant ACTION_POST     = 1;\n    uint public constant ACTION_UPVOTE   = 2;\n    uint public constant ACTION_DOWNVOTE = 3;\n    uint public constant ACTION_UNVOTE   = 4;\n\n    uint256 public epochTimestamp;\n    uint256 public epochPrior;\n    uint256 public epochCurrent;\n    mapping(uint256 => int256) public votes;\n    mapping(uint256 => mapping(address => int8)) voters;\n    address[] public posters;\n\n    uint256 public postCost;\n    uint256 public nextPostCost;\n\n    uint256 public rewardPool;\n    address[5] public payouts;\n\n    constructor(MenloToken _token) public MenloTokenReceiver(_token) {\n        posters.push(0);\n        emit Topic(0, 0);\n\n        // no author for root post 0\n        postCost = 20 * 10**18;\n        nextPostCost = 20 * 10**18;\n    }\n\n    function postCount() public view returns (uint256) {\n        return posters.length;\n    }\n\n    function endEpoch() external {\n        require(era() >= epochTimestamp + 1 days);\n        epochTimestamp = era();\n\n        uint256[5] memory winners;\n        int256[5] memory topVotes;\n        // get top 5 posts\n        for (uint256 i = epochCurrent; i -- > epochPrior;) {\n            if (votes[i] == 0) {\n                continue;\n            }\n\n            int256 current = votes[i];\n            if (current > topVotes[4]) {\n                // insert it\n\n                /*\n                uint8 j = 4;\n                while (topVotes[j-1] < current) {\n                    topVotes[j] = topVotes[j-1];\n                    winners[j] = winners[j-1];\n                    j--;\n                    if (j == 0) {\n                        break;\n                    }\n                }\n                topVotes[j] = current;\n                winners[j] = i;\n                */\n                // the code below is equivalent to the commented code above\n                if (current > topVotes[2]) {\n                    topVotes[4] = topVotes[3];\n                    topVotes[3] = topVotes[2];\n                    winners[4] = winners[3];\n                    winners[3] = winners[2];\n                    if (current > topVotes[1]) {\n                        topVotes[2] = topVotes[1];\n                        winners[2] = winners[1];\n                        if (current > topVotes[0]) {\n                            topVotes[1] = topVotes[0];\n                            topVotes[0] = current;\n                            winners[1] = winners[0];\n                            winners[0] = i;\n                        } else {\n                            topVotes[1] = current;\n                            winners[1] = i;\n                        }\n                    } else {\n                        topVotes[2] = current;\n                        winners[2] = i;\n                    }\n                } else {\n                    if (current > topVotes[3]) {\n                        topVotes[4] = topVotes[3];\n                        topVotes[3] = current;\n                        winners[4] = winners[3];\n                        winners[3] = i;\n                    } else {\n                        topVotes[4] = current;\n                        winners[4] = i;\n                    }\n                }\n            }\n            votes[i] = 0;\n        }\n\n        // write the new winners\n        for (i = 0; i < 5; i++) {\n            payouts[i] = posters[winners[i]];\n        }\n        // refresh the pool\n        rewardPool = token.balanceOf(this);\n        epochPrior = epochCurrent;\n        epochCurrent = posters.length;\n        if (nextPostCost != postCost) {\n            postCost = nextPostCost;\n        }\n    }\n\n    function reward(uint8 _payout) public view returns (uint256) {\n        // I wish we had switch()\n        if (_payout == 0) {\n            return rewardPool * 2 / 5;\n        } else if (_payout == 1) {\n            return rewardPool / 4;\n        } else if (_payout == 2) {\n            return rewardPool / 5;\n        } else if (_payout == 3) {\n            return rewardPool / 10;\n        } else if (_payout == 4) {\n            return rewardPool / 20;\n        }\n        return 0;\n    }\n\n    function claim(uint8 _payout) external {\n        require(payouts[_payout] == msg.sender);\n        payouts[_payout] = 0;\n        token.transfer(msg.sender, reward(_payout));\n    }\n\n    modifier onlyOwner {\n        require(msg.sender == owner);\n        _;\n    }\n    function setOwner(address _owner) external onlyOwner {\n        owner = _owner;\n    }\n\n    function setNextPostCost(uint256 _nextPostCost) external onlyOwner {\n        nextPostCost = _nextPostCost;\n    }\n\n    function redeem(Redeemer _redeemer) external onlyOwner returns (MenloToken) {\n        require(_redeemer.from() == token);\n\n        token.approve(_redeemer, token.balanceOf(this));\n        _redeemer.redeem();\n        MenloToken to = _redeemer.to();\n        // tokenContract = to;\n        return to;\n    }\n\n    function undo(Redeemer _redeemer) external onlyOwner returns (MenloToken) {\n        require(_redeemer.to() == token);\n\n        token.approve(_redeemer, token.balanceOf(this));\n        _redeemer.undo();\n        MenloToken from = _redeemer.from();\n        // tokenContract = from;\n        return from;\n    }\n\n    function era() internal view returns (uint256) {\n        return now;\n    }\n\n    function vote(address _voter, uint256 _offset, int8 _direction) internal {\n        int8 priorVote = voters[_offset][_voter];\n        votes[_offset] += _direction - priorVote;\n        voters[_offset][_voter] = _direction;\n    }\n\n    function pushPoster(address _poster) internal {\n        posters.push(_poster);\n    }\n\n    function upvote(address _poster,uint256 _offset) internal {\n        vote(_poster, _offset, 1);\n    }\n\n    function downvote(address _poster,uint256 _offset) internal {\n        vote(_poster, _offset, - 1);\n    }\n\n    function unvote(address _poster, uint256 _offset) internal {\n        vote(_poster, _offset, 0);\n    }\n\n    function post(bytes32 _parentHash, bytes32 _contentHash) internal {\n        emit Topic(_parentHash, _contentHash);\n        pushPoster(msg.sender);\n    }\n\n    function uintFromBytes(bytes bs)\n    internal pure\n    returns (uint256)\n    {\n        require(bs.length >= 32, \"invalid conversion from bytes to uint\");\n        uint256 x;\n        assembly {\n            x := mload(add(bs, 0x20))\n        }\n        return x;\n    }\n\n    function addressFromBytes(bytes bs)\n    internal pure\n    returns (address)\n    {\n        require(bs.length >= 20, \"invalid conversion from bytes to address\");\n        address x;\n        assembly {\n            x := mload(add(bs, 20))\n        }\n        return x;\n    }\n\n    modifier usesONE(uint256 _value) {\n        require(postCost == _value);\n        _;\n    }\n\n    function decodeUint(bytes b, uint index) internal pure returns (uint256 result, uint i) {\n        uint c = 0;\n        for (i = index; i < b.length && c != 44; i++) {\n            c = uint(b[i]);\n            if (c >= 48 && c <= 57) {\n                result = result * 10 + (c - 48);\n            }\n        }\n    }\n\n    function decodeBytes32(bytes b, uint index) internal pure returns (bytes32 result, uint i) {\n        uint r = 0;\n        uint c = 0;\n        bytes32 b32;\n\n        require(uint(b[index++]) == 34, \"Expected \\\" to start bytes32\");\n\n        for (i = index; i < b.length && r < 32 && c != 34; i++) {\n            c = uint(b[i]);\n            b32 |= bytes32(b[i] & 0xFF) >> (r++ * 8);\n        }\n\n        result = b32;\n    }\n\n    function decodeAddress(bytes b, uint index) internal pure returns (address result, uint i) {\n        uint c = 0;\n        uint256 r = 0;\n\n        require(b.length - index > 3);\n        require(uint(b[index++]) == 34);  // \"\n        require(uint(b[index++]) == 48);  // 0\n        require(uint(b[index++]) == 120); // x\n\n        for (i = index; i < b.length && c != 44; i++) {\n            c = uint(b[i]);\n            if (c >= 48 && c <= 57) {\n                r = r * 16 + (c - 48);\n            } else\n                if (c >= 65 && c <= 70) {\n                    r = r * 16 + (c - 65 + 10);\n                } else\n                    if (c >= 97 && c <= 102) {\n                        r = r * 16 + (c - 97 + 10);\n                    }\n        }\n\n        result = address(r);\n    }\n\n    event LogBytes(bytes b);\n\n    function onTokenReceived(\n        address _from,\n        uint256 _value,\n        uint256 _action,\n        bytes _data\n    ) public onlyTokenContract usesONE(_value) returns(bytes4) {\n\n        uint offset;\n        uint i;\n\n        if (_action == ACTION_UPVOTE) {\n            (offset, i) = decodeUint(_data, 1);\n            upvote(_from, offset);\n            return ONE_RECEIVED;\n        }\n\n        if (_action == ACTION_DOWNVOTE) {\n            (offset, i) = decodeUint(_data, 1);\n            downvote(_from, offset);\n            return ONE_RECEIVED;\n        }\n\n        if (_action == ACTION_UNVOTE) {\n            (offset, i) = decodeUint(_data, 1);\n            unvote(_from, offset);\n            return ONE_RECEIVED;\n        }\n\n        if (_action == ACTION_POST) {\n            bytes32 parentHash;\n            bytes32 contentHash;\n\n\n            (parentHash, i)  = decodeBytes32(_data, 1);\n            (contentHash, i) = decodeBytes32(_data, i);\n\n            post(parentHash, contentHash);\n            return ONE_RECEIVED;\n        }\n\n        return 0;\n    }\n\n}\n\ninterface Redeemer {\n    function redeem() external;\n    function undo() external;\n    function to() external view returns (MenloToken);\n    function from() external view returns (MenloToken);\n}\n\n",
  "sourcePath": "/Users/dave/Code/expo/contracts/Forum.sol",
  "compiler": {
    "name": "solc",
    "version": "0.4.24+commit.e67f0147.Emscripten.clang"
  },
  "schemaVersion": "2.0.1",
  "updatedAt": "2018-09-07T19:09:02.853Z"
}