{
  "contractName": "Sponsored",
  "abi": [
    {
      "constant": false,
      "inputs": [],
      "name": "sponsor",
      "outputs": [],
      "payable": false,
      "stateMutability": "nonpayable",
      "type": "function"
    }
  ],
  "bytecode": "0x608060405234801561001057600080fd5b50610122806100206000396000f30060806040526004361060255763ffffffff60e060020a60003504166377c936628114602a575b600080fd5b348015603557600080fd5b50603c603e565b005b600080549060038201906050908260b2565b506001600082815481101515606157fe5b90600052602060002001819055506001600082600101815481101515608257fe5b9060005260206000200181905550600160008260020181548110151560a357fe5b60009182526020909120015550565b81548183558181111560d35760008381526020902060d391810190830160d8565b505050565b60f391905b8082111560ef576000815560010160dd565b5090565b905600a165627a7a72305820c8924e7ace3488ba93e2a943a7d3ef06dabc23a5d87577f7703f63791892be790029",
  "source": "pragma solidity^0.4.19;\n// like a less-liquid GasToken\ncontract Sponsored {\n    uint256[] wastedSpace;\n    function sponsor() external {\n        uint256 len = wastedSpace.length;\n        wastedSpace.length = len + 3;\n        wastedSpace[len] = 1;\n        wastedSpace[len + 1] = 1;\n        wastedSpace[len + 2] = 1;\n    }   \n    modifier sponsored {\n        _;  \n        uint256 len = wastedSpace.length;\n        if (len != 0) {\n            wastedSpace[--len] = 0;\n            wastedSpace[--len] = 0;\n            wastedSpace[--len] = 0;\n            wastedSpace.length = len;\n        }   \n    }   \n}\n",
  "sourcePath": "/Users/dave/Code/expo-demo/contracts/Sponsored.sol",
  "compiler": {
    "name": "solc",
    "version": "0.4.24+commit.e67f0147.Emscripten.clang"
  },
  "schemaVersion": "2.0.1",
  "updatedAt": "2018-08-16T16:50:30.652Z"
}