{
  "contractName": "Sponsored",
  "abi": [
    {
      "constant": false,
      "inputs": [],
      "name": "sponsor",
      "outputs": [],
      "payable": false,
      "stateMutability": "nonpayable",
      "type": "function"
    }
  ],
  "bytecode": "0x608060405234801561001057600080fd5b5061014b806100206000396000f3006080604052600436106100405763ffffffff7c010000000000000000000000000000000000000000000000000000000060003504166377c936628114610045575b600080fd5b34801561005157600080fd5b5061005a61005c565b005b6000805490600382019061007090826100d5565b50600160008281548110151561008257fe5b906000526020600020018190555060016000826001018154811015156100a457fe5b906000526020600020018190555060016000826002018154811015156100c657fe5b60009182526020909120015550565b8154818355818111156100f9576000838152602090206100f99181019083016100fe565b505050565b61011c91905b808211156101185760008155600101610104565b5090565b905600a165627a7a723058206a6931c8059c901247eb034dfb7651fe18ec00d61504a6c3f582947b33d671000029",
  "source": "pragma solidity^0.4.19;\n// like a less-liquid GasToken\ncontract Sponsored {\n    uint256[] wastedSpace;\n    function sponsor() external {\n        uint256 len = wastedSpace.length;\n        wastedSpace.length = len + 3;\n        wastedSpace[len] = 1;\n        wastedSpace[len + 1] = 1;\n        wastedSpace[len + 2] = 1;\n    }   \n    modifier sponsored {\n        _;  \n        uint256 len = wastedSpace.length;\n        if (len != 0) {\n            wastedSpace[--len] = 0;\n            wastedSpace[--len] = 0;\n            wastedSpace[--len] = 0;\n            wastedSpace.length = len;\n        }   \n    }   \n}\n",
  "sourcePath": "/Users/dave/Code/townhall-ui/contracts/Sponsored.sol",
  "compiler": {
    "name": "solc",
    "version": "0.4.24+commit.e67f0147.Emscripten.clang"
  },
  "schemaVersion": "2.0.1",
  "updatedAt": "2018-06-30T07:53:20.498Z"
}