{
  "contractName": "Token",
  "abi": [
    {
      "constant": false,
      "inputs": [
        {
          "name": "guy",
          "type": "address"
        },
        {
          "name": "wad",
          "type": "uint256"
        }
      ],
      "name": "approve",
      "outputs": [
        {
          "name": "",
          "type": "bool"
        }
      ],
      "payable": false,
      "stateMutability": "nonpayable",
      "type": "function"
    },
    {
      "constant": true,
      "inputs": [],
      "name": "totalSupply",
      "outputs": [
        {
          "name": "",
          "type": "uint256"
        }
      ],
      "payable": false,
      "stateMutability": "view",
      "type": "function"
    },
    {
      "constant": false,
      "inputs": [
        {
          "name": "src",
          "type": "address"
        },
        {
          "name": "dst",
          "type": "address"
        },
        {
          "name": "wad",
          "type": "uint256"
        }
      ],
      "name": "transferFrom",
      "outputs": [
        {
          "name": "",
          "type": "bool"
        }
      ],
      "payable": false,
      "stateMutability": "nonpayable",
      "type": "function"
    },
    {
      "constant": true,
      "inputs": [],
      "name": "decimals",
      "outputs": [
        {
          "name": "",
          "type": "uint8"
        }
      ],
      "payable": false,
      "stateMutability": "view",
      "type": "function"
    },
    {
      "constant": true,
      "inputs": [
        {
          "name": "src",
          "type": "address"
        }
      ],
      "name": "balanceOf",
      "outputs": [
        {
          "name": "",
          "type": "uint256"
        }
      ],
      "payable": false,
      "stateMutability": "view",
      "type": "function"
    },
    {
      "constant": true,
      "inputs": [],
      "name": "symbol",
      "outputs": [
        {
          "name": "",
          "type": "string"
        }
      ],
      "payable": false,
      "stateMutability": "view",
      "type": "function"
    },
    {
      "constant": false,
      "inputs": [
        {
          "name": "dst",
          "type": "address"
        },
        {
          "name": "wad",
          "type": "uint256"
        }
      ],
      "name": "transfer",
      "outputs": [
        {
          "name": "",
          "type": "bool"
        }
      ],
      "payable": false,
      "stateMutability": "nonpayable",
      "type": "function"
    },
    {
      "constant": true,
      "inputs": [
        {
          "name": "src",
          "type": "address"
        },
        {
          "name": "guy",
          "type": "address"
        }
      ],
      "name": "allowance",
      "outputs": [
        {
          "name": "",
          "type": "uint256"
        }
      ],
      "payable": false,
      "stateMutability": "view",
      "type": "function"
    },
    {
      "inputs": [
        {
          "name": "supply",
          "type": "uint256"
        }
      ],
      "payable": false,
      "stateMutability": "nonpayable",
      "type": "constructor"
    },
    {
      "anonymous": false,
      "inputs": [
        {
          "indexed": true,
          "name": "src",
          "type": "address"
        },
        {
          "indexed": true,
          "name": "guy",
          "type": "address"
        },
        {
          "indexed": false,
          "name": "wad",
          "type": "uint256"
        }
      ],
      "name": "Approval",
      "type": "event"
    },
    {
      "anonymous": false,
      "inputs": [
        {
          "indexed": true,
          "name": "src",
          "type": "address"
        },
        {
          "indexed": true,
          "name": "dst",
          "type": "address"
        },
        {
          "indexed": false,
          "name": "wad",
          "type": "uint256"
        }
      ],
      "name": "Transfer",
      "type": "event"
    }
  ],
  "bytecode": "0x6003805460ff1916601217905560c0604052600260808190527f544b00000000000000000000000000000000000000000000000000000000000060a090815261004b9160049190610085565b5034801561005857600080fd5b506040516020806106e3833981016040908152905133600090815260016020529182208190559055610120565b828054600181600116156101000203166002900490600052602060002090601f016020900481019282601f106100c657805160ff19168380011785556100f3565b828001600101855582156100f3579182015b828111156100f35782518255916020019190600101906100d8565b506100ff929150610103565b5090565b61011d91905b808211156100ff5760008155600101610109565b90565b6105b48061012f6000396000f30060806040526004361061008d5763ffffffff7c0100000000000000000000000000000000000000000000000000000000600035041663095ea7b3811461009257806318160ddd146100d757806323b872dd146100fe578063313ce5671461013557806370a082311461016057806395d89b411461018e578063a9059cbb14610218578063dd62ed3e14610249575b600080fd5b34801561009e57600080fd5b506100c373ffffffffffffffffffffffffffffffffffffffff6004351660243561027d565b604080519115158252519081900360200190f35b3480156100e357600080fd5b506100ec6102f1565b60408051918252519081900360200190f35b34801561010a57600080fd5b506100c373ffffffffffffffffffffffffffffffffffffffff600435811690602435166044356102f7565b34801561014157600080fd5b5061014a61045d565b6040805160ff9092168252519081900360200190f35b34801561016c57600080fd5b506100ec73ffffffffffffffffffffffffffffffffffffffff60043516610466565b34801561019a57600080fd5b506101a361048e565b6040805160208082528351818301528351919283929083019185019080838360005b838110156101dd5781810151838201526020016101c5565b50505050905090810190601f16801561020a5780820380516001836020036101000a031916815260200191505b509250505060405180910390f35b34801561022457600080fd5b506100c373ffffffffffffffffffffffffffffffffffffffff6004351660243561051c565b34801561025557600080fd5b506100ec73ffffffffffffffffffffffffffffffffffffffff60043581169060243516610530565b33600081815260026020908152604080832073ffffffffffffffffffffffffffffffffffffffff8716808552908352818420869055815186815291519394909390927f8c5be1e5ebec7d5bd14f71427d1e84f3dd0314c0f7b2291e5b200ac8c7c3b925928290030190a35060015b92915050565b60005490565b600073ffffffffffffffffffffffffffffffffffffffff841633146103835773ffffffffffffffffffffffffffffffffffffffff841660009081526002602090815260408083203384529091529020546103519083610568565b73ffffffffffffffffffffffffffffffffffffffff851660009081526002602090815260408083203384529091529020555b73ffffffffffffffffffffffffffffffffffffffff84166000908152600160205260409020546103b39083610568565b73ffffffffffffffffffffffffffffffffffffffff80861660009081526001602052604080822093909355908516815220546103ef9083610578565b73ffffffffffffffffffffffffffffffffffffffff80851660008181526001602090815260409182902094909455805186815290519193928816927fddf252ad1be2c89b69c2b068fc378daa952ba7f163c4a11628f55a4df523b3ef92918290030190a35060019392505050565b60035460ff1681565b73ffffffffffffffffffffffffffffffffffffffff1660009081526001602052604090205490565b6004805460408051602060026001851615610100026000190190941693909304601f810184900484028201840190925281815292918301828280156105145780601f106104e957610100808354040283529160200191610514565b820191906000526020600020905b8154815290600101906020018083116104f757829003601f168201915b505050505081565b60006105293384846102f7565b9392505050565b73ffffffffffffffffffffffffffffffffffffffff918216600090815260026020908152604080832093909416825291909152205490565b808203828111156102eb57600080fd5b808201828110156102eb57600080fd00a165627a7a72305820ee408f0762bc9a97bc646029bbd47479ba514e623b84414a8d93c0fb74d066900029",
  "source": "pragma solidity ^0.4.19;\n\nimport \"ds-token/token.sol\";\n\ncontract Token is DSTokenBase {\n    uint8 public decimals = 18;\n    string public symbol = \"TK\";\n    function Token(uint supply) DSTokenBase(supply) public {\n    }\n}\n",
  "sourcePath": "/Users/dave/Code/townhall-ui/contracts/Token.sol",
  "compiler": {
    "name": "solc",
    "version": "0.4.24+commit.e67f0147.Emscripten.clang"
  },
  "schemaVersion": "2.0.1",
  "updatedAt": "2018-06-30T07:21:37.836Z"
}