{
  "contractName": "Token",
  "abi": [
    {
      "constant": false,
      "inputs": [
        {
          "name": "guy",
          "type": "address"
        },
        {
          "name": "wad",
          "type": "uint256"
        }
      ],
      "name": "approve",
      "outputs": [
        {
          "name": "",
          "type": "bool"
        }
      ],
      "payable": false,
      "stateMutability": "nonpayable",
      "type": "function"
    },
    {
      "constant": true,
      "inputs": [],
      "name": "totalSupply",
      "outputs": [
        {
          "name": "",
          "type": "uint256"
        }
      ],
      "payable": false,
      "stateMutability": "view",
      "type": "function"
    },
    {
      "constant": false,
      "inputs": [
        {
          "name": "src",
          "type": "address"
        },
        {
          "name": "dst",
          "type": "address"
        },
        {
          "name": "wad",
          "type": "uint256"
        }
      ],
      "name": "transferFrom",
      "outputs": [
        {
          "name": "",
          "type": "bool"
        }
      ],
      "payable": false,
      "stateMutability": "nonpayable",
      "type": "function"
    },
    {
      "constant": true,
      "inputs": [],
      "name": "decimals",
      "outputs": [
        {
          "name": "",
          "type": "uint8"
        }
      ],
      "payable": false,
      "stateMutability": "view",
      "type": "function"
    },
    {
      "constant": true,
      "inputs": [
        {
          "name": "src",
          "type": "address"
        }
      ],
      "name": "balanceOf",
      "outputs": [
        {
          "name": "",
          "type": "uint256"
        }
      ],
      "payable": false,
      "stateMutability": "view",
      "type": "function"
    },
    {
      "constant": true,
      "inputs": [],
      "name": "symbol",
      "outputs": [
        {
          "name": "",
          "type": "string"
        }
      ],
      "payable": false,
      "stateMutability": "view",
      "type": "function"
    },
    {
      "constant": false,
      "inputs": [
        {
          "name": "dst",
          "type": "address"
        },
        {
          "name": "wad",
          "type": "uint256"
        }
      ],
      "name": "transfer",
      "outputs": [
        {
          "name": "",
          "type": "bool"
        }
      ],
      "payable": false,
      "stateMutability": "nonpayable",
      "type": "function"
    },
    {
      "constant": true,
      "inputs": [
        {
          "name": "src",
          "type": "address"
        },
        {
          "name": "guy",
          "type": "address"
        }
      ],
      "name": "allowance",
      "outputs": [
        {
          "name": "",
          "type": "uint256"
        }
      ],
      "payable": false,
      "stateMutability": "view",
      "type": "function"
    },
    {
      "inputs": [
        {
          "name": "supply",
          "type": "uint256"
        }
      ],
      "payable": false,
      "stateMutability": "nonpayable",
      "type": "constructor"
    },
    {
      "anonymous": false,
      "inputs": [
        {
          "indexed": true,
          "name": "src",
          "type": "address"
        },
        {
          "indexed": true,
          "name": "guy",
          "type": "address"
        },
        {
          "indexed": false,
          "name": "wad",
          "type": "uint256"
        }
      ],
      "name": "Approval",
      "type": "event"
    },
    {
      "anonymous": false,
      "inputs": [
        {
          "indexed": true,
          "name": "src",
          "type": "address"
        },
        {
          "indexed": true,
          "name": "dst",
          "type": "address"
        },
        {
          "indexed": false,
          "name": "wad",
          "type": "uint256"
        }
      ],
      "name": "Transfer",
      "type": "event"
    }
  ],
  "bytecode": "0x6003805460ff1916601217905560c0604052600260808190527f544b00000000000000000000000000000000000000000000000000000000000060a090815261004b9160049190610085565b5034801561005857600080fd5b50604051602080610614833981016040908152905133600090815260016020529182208190559055610120565b828054600181600116156101000203166002900490600052602060002090601f016020900481019282601f106100c657805160ff19168380011785556100f3565b828001600101855582156100f3579182015b828111156100f35782518255916020019190600101906100d8565b506100ff929150610103565b5090565b61011d91905b808211156100ff5760008155600101610109565b90565b6104e58061012f6000396000f3006080604052600436106100745763ffffffff60e060020a600035041663095ea7b3811461007957806318160ddd146100b157806323b872dd146100d8578063313ce5671461010257806370a082311461012d57806395d89b411461014e578063a9059cbb146101d8578063dd62ed3e146101fc575b600080fd5b34801561008557600080fd5b5061009d600160a060020a0360043516602435610223565b604080519115158252519081900360200190f35b3480156100bd57600080fd5b506100c661028a565b60408051918252519081900360200190f35b3480156100e457600080fd5b5061009d600160a060020a0360043581169060243516604435610290565b34801561010e57600080fd5b506101176103a8565b6040805160ff9092168252519081900360200190f35b34801561013957600080fd5b506100c6600160a060020a03600435166103b1565b34801561015a57600080fd5b506101636103cc565b6040805160208082528351818301528351919283929083019185019080838360005b8381101561019d578181015183820152602001610185565b50505050905090810190601f1680156101ca5780820380516001836020036101000a031916815260200191505b509250505060405180910390f35b3480156101e457600080fd5b5061009d600160a060020a036004351660243561045a565b34801561020857600080fd5b506100c6600160a060020a036004358116906024351661046e565b336000818152600260209081526040808320600160a060020a038716808552908352818420869055815186815291519394909390927f8c5be1e5ebec7d5bd14f71427d1e84f3dd0314c0f7b2291e5b200ac8c7c3b925928290030190a35060015b92915050565b60005490565b6000600160a060020a03841633146102f557600160a060020a03841660009081526002602090815260408083203384529091529020546102d09083610499565b600160a060020a03851660009081526002602090815260408083203384529091529020555b600160a060020a0384166000908152600160205260409020546103189083610499565b600160a060020a03808616600090815260016020526040808220939093559085168152205461034790836104a9565b600160a060020a0380851660008181526001602090815260409182902094909455805186815290519193928816927fddf252ad1be2c89b69c2b068fc378daa952ba7f163c4a11628f55a4df523b3ef92918290030190a35060019392505050565b60035460ff1681565b600160a060020a031660009081526001602052604090205490565b6004805460408051602060026001851615610100026000190190941693909304601f810184900484028201840190925281815292918301828280156104525780601f1061042757610100808354040283529160200191610452565b820191906000526020600020905b81548152906001019060200180831161043557829003601f168201915b505050505081565b6000610467338484610290565b9392505050565b600160a060020a03918216600090815260026020908152604080832093909416825291909152205490565b8082038281111561028457600080fd5b8082018281101561028457600080fd00a165627a7a723058208af318ec00fa96ccb30a285aefed5961f6ec466bf25402442724a28bcb62cb750029",
  "source": "pragma solidity ^0.4.19;\n\nimport \"ds-token/token.sol\";\n\ncontract Token is DSTokenBase {\n    uint8 public decimals = 18;\n    string public symbol = \"TK\";\n    function Token(uint supply) DSTokenBase(supply) public {\n    }\n}\n",
  "sourcePath": "/Users/dave/Code/expo-demo/contracts/Token.sol",
  "compiler": {
    "name": "solc",
    "version": "0.4.24+commit.e67f0147.Emscripten.clang"
  },
  "schemaVersion": "2.0.1",
  "updatedAt": "2018-08-17T21:48:27.699Z"
}